{
  "contractName": "PetShop",
  "abi": [
    {
      "inputs": [],
      "payable": false,
      "stateMutability": "nonpayable",
      "type": "constructor"
    },
    {
      "constant": true,
      "inputs": [],
      "name": "filterCount",
      "outputs": [
        {
          "internalType": "uint256",
          "name": "",
          "type": "uint256"
        }
      ],
      "payable": false,
      "stateMutability": "view",
      "type": "function"
    },
    {
      "constant": true,
      "inputs": [
        {
          "internalType": "uint256",
          "name": "",
          "type": "uint256"
        }
      ],
      "name": "filters",
      "outputs": [
        {
          "internalType": "int256",
          "name": "conditionAge",
          "type": "int256"
        },
        {
          "internalType": "int256",
          "name": "conditionPrice",
          "type": "int256"
        },
        {
          "internalType": "int256",
          "name": "conditionStatus",
          "type": "int256"
        },
        {
          "internalType": "int256",
          "name": "lowerAge",
          "type": "int256"
        },
        {
          "internalType": "int256",
          "name": "higherAge",
          "type": "int256"
        },
        {
          "internalType": "int256",
          "name": "lowerPrice",
          "type": "int256"
        },
        {
          "internalType": "int256",
          "name": "higherPrice",
          "type": "int256"
        },
        {
          "internalType": "int256",
          "name": "isSold",
          "type": "int256"
        }
      ],
      "payable": false,
      "stateMutability": "view",
      "type": "function"
    },
    {
      "constant": true,
      "inputs": [],
      "name": "owner",
      "outputs": [
        {
          "internalType": "address",
          "name": "",
          "type": "address"
        }
      ],
      "payable": false,
      "stateMutability": "view",
      "type": "function"
    },
    {
      "constant": true,
      "inputs": [],
      "name": "petCount",
      "outputs": [
        {
          "internalType": "uint256",
          "name": "",
          "type": "uint256"
        }
      ],
      "payable": false,
      "stateMutability": "view",
      "type": "function"
    },
    {
      "constant": true,
      "inputs": [
        {
          "internalType": "uint256",
          "name": "",
          "type": "uint256"
        }
      ],
      "name": "pets",
      "outputs": [
        {
          "internalType": "uint256",
          "name": "id",
          "type": "uint256"
        },
        {
          "internalType": "string",
          "name": "name",
          "type": "string"
        },
        {
          "internalType": "uint256",
          "name": "age",
          "type": "uint256"
        },
        {
          "internalType": "string",
          "name": "sex",
          "type": "string"
        },
        {
          "internalType": "string",
          "name": "breed",
          "type": "string"
        },
        {
          "internalType": "string",
          "name": "location",
          "type": "string"
        },
        {
          "internalType": "string",
          "name": "photo",
          "type": "string"
        },
        {
          "internalType": "uint256",
          "name": "price",
          "type": "uint256"
        },
        {
          "internalType": "bool",
          "name": "isSold",
          "type": "bool"
        },
        {
          "internalType": "address",
          "name": "owner",
          "type": "address"
        }
      ],
      "payable": false,
      "stateMutability": "view",
      "type": "function"
    },
    {
      "constant": true,
      "inputs": [],
      "name": "productCount",
      "outputs": [
        {
          "internalType": "uint256",
          "name": "",
          "type": "uint256"
        }
      ],
      "payable": false,
      "stateMutability": "view",
      "type": "function"
    },
    {
      "constant": true,
      "inputs": [
        {
          "internalType": "uint256",
          "name": "",
          "type": "uint256"
        }
      ],
      "name": "products",
      "outputs": [
        {
          "internalType": "uint256",
          "name": "pId",
          "type": "uint256"
        },
        {
          "internalType": "string",
          "name": "pName",
          "type": "string"
        },
        {
          "internalType": "string",
          "name": "pCategory",
          "type": "string"
        },
        {
          "internalType": "string",
          "name": "pBrand",
          "type": "string"
        },
        {
          "internalType": "string",
          "name": "picture",
          "type": "string"
        },
        {
          "internalType": "uint256",
          "name": "pPrice",
          "type": "uint256"
        },
        {
          "internalType": "uint256",
          "name": "stock",
          "type": "uint256"
        }
      ],
      "payable": false,
      "stateMutability": "view",
      "type": "function"
    },
    {
      "constant": false,
      "inputs": [
        {
          "internalType": "string",
          "name": "pName",
          "type": "string"
        },
        {
          "internalType": "string",
          "name": "pCategory",
          "type": "string"
        },
        {
          "internalType": "string",
          "name": "pBrand",
          "type": "string"
        },
        {
          "internalType": "string",
          "name": "picture",
          "type": "string"
        },
        {
          "internalType": "uint256",
          "name": "pPrice",
          "type": "uint256"
        },
        {
          "internalType": "uint256",
          "name": "stock",
          "type": "uint256"
        }
      ],
      "name": "addProduct",
      "outputs": [
        {
          "internalType": "uint256",
          "name": "",
          "type": "uint256"
        }
      ],
      "payable": false,
      "stateMutability": "nonpayable",
      "type": "function"
    },
    {
      "constant": false,
      "inputs": [
        {
          "internalType": "string",
          "name": "_name",
          "type": "string"
        },
        {
          "internalType": "uint256",
          "name": "_age",
          "type": "uint256"
        },
        {
          "internalType": "string",
          "name": "_sex",
          "type": "string"
        },
        {
          "internalType": "string",
          "name": "_breed",
          "type": "string"
        },
        {
          "internalType": "string",
          "name": "_location",
          "type": "string"
        },
        {
          "internalType": "string",
          "name": "_photo",
          "type": "string"
        },
        {
          "internalType": "uint256",
          "name": "_price",
          "type": "uint256"
        },
        {
          "internalType": "uint256",
          "name": "_fee",
          "type": "uint256"
        }
      ],
      "name": "registerPet",
      "outputs": [
        {
          "internalType": "uint256",
          "name": "",
          "type": "uint256"
        }
      ],
      "payable": true,
      "stateMutability": "payable",
      "type": "function"
    },
    {
      "constant": false,
      "inputs": [
        {
          "internalType": "uint256",
          "name": "_id",
          "type": "uint256"
        }
      ],
      "name": "buyPet",
      "outputs": [],
      "payable": true,
      "stateMutability": "payable",
      "type": "function"
    },
    {
      "constant": false,
      "inputs": [
        {
          "internalType": "uint256",
          "name": "pId",
          "type": "uint256"
        },
        {
          "internalType": "uint256",
          "name": "amount",
          "type": "uint256"
        }
      ],
      "name": "buyProduct",
      "outputs": [],
      "payable": true,
      "stateMutability": "payable",
      "type": "function"
    },
    {
      "constant": false,
      "inputs": [
        {
          "internalType": "uint256",
          "name": "_id",
          "type": "uint256"
        }
      ],
      "name": "adopt",
      "outputs": [
        {
          "internalType": "uint256",
          "name": "",
          "type": "uint256"
        }
      ],
      "payable": false,
      "stateMutability": "nonpayable",
      "type": "function"
    },
    {
      "constant": true,
      "inputs": [],
      "name": "getCount",
      "outputs": [
        {
          "internalType": "uint256",
          "name": "",
          "type": "uint256"
        }
      ],
      "payable": false,
      "stateMutability": "view",
      "type": "function"
    },
    {
      "constant": true,
      "inputs": [],
      "name": "getProductCount",
      "outputs": [
        {
          "internalType": "uint256",
          "name": "",
          "type": "uint256"
        }
      ],
      "payable": false,
      "stateMutability": "view",
      "type": "function"
    },
    {
      "constant": true,
      "inputs": [
        {
          "internalType": "uint256",
          "name": "petId",
          "type": "uint256"
        }
      ],
      "name": "getPetDetails",
      "outputs": [
        {
          "internalType": "uint256",
          "name": "",
          "type": "uint256"
        },
        {
          "internalType": "string",
          "name": "",
          "type": "string"
        },
        {
          "internalType": "uint256",
          "name": "",
          "type": "uint256"
        },
        {
          "internalType": "string",
          "name": "",
          "type": "string"
        },
        {
          "internalType": "string",
          "name": "",
          "type": "string"
        },
        {
          "internalType": "string",
          "name": "",
          "type": "string"
        },
        {
          "internalType": "uint256",
          "name": "",
          "type": "uint256"
        },
        {
          "internalType": "bool",
          "name": "",
          "type": "bool"
        },
        {
          "internalType": "address",
          "name": "",
          "type": "address"
        },
        {
          "internalType": "string",
          "name": "",
          "type": "string"
        }
      ],
      "payable": false,
      "stateMutability": "view",
      "type": "function"
    },
    {
      "constant": true,
      "inputs": [
        {
          "internalType": "uint256",
          "name": "pId",
          "type": "uint256"
        }
      ],
      "name": "getProductDetails",
      "outputs": [
        {
          "internalType": "uint256",
          "name": "",
          "type": "uint256"
        },
        {
          "internalType": "string",
          "name": "",
          "type": "string"
        },
        {
          "internalType": "string",
          "name": "",
          "type": "string"
        },
        {
          "internalType": "string",
          "name": "",
          "type": "string"
        },
        {
          "internalType": "string",
          "name": "",
          "type": "string"
        },
        {
          "internalType": "uint256",
          "name": "",
          "type": "uint256"
        },
        {
          "internalType": "uint256",
          "name": "",
          "type": "uint256"
        }
      ],
      "payable": false,
      "stateMutability": "view",
      "type": "function"
    },
    {
      "constant": true,
      "inputs": [
        {
          "internalType": "uint256",
          "name": "petId",
          "type": "uint256"
        }
      ],
      "name": "getPrice",
      "outputs": [
        {
          "internalType": "uint256",
          "name": "",
          "type": "uint256"
        }
      ],
      "payable": false,
      "stateMutability": "view",
      "type": "function"
    },
    {
      "constant": true,
      "inputs": [
        {
          "internalType": "uint256",
          "name": "pId",
          "type": "uint256"
        }
      ],
      "name": "getProductPrice",
      "outputs": [
        {
          "internalType": "uint256",
          "name": "",
          "type": "uint256"
        }
      ],
      "payable": false,
      "stateMutability": "view",
      "type": "function"
    },
    {
      "constant": false,
      "inputs": [
        {
          "internalType": "address payable",
          "name": "_to",
          "type": "address"
        }
      ],
      "name": "withdrawAll",
      "outputs": [],
      "payable": false,
      "stateMutability": "nonpayable",
      "type": "function"
    },
    {
      "constant": false,
      "inputs": [
        {
          "internalType": "int256",
          "name": "conditionAge",
          "type": "int256"
        },
        {
          "internalType": "int256",
          "name": "conditionPrice",
          "type": "int256"
        },
        {
          "internalType": "int256",
          "name": "conditionStatus",
          "type": "int256"
        },
        {
          "internalType": "int256",
          "name": "lowerAge",
          "type": "int256"
        },
        {
          "internalType": "int256",
          "name": "higherAge",
          "type": "int256"
        },
        {
          "internalType": "int256",
          "name": "lowerPrice",
          "type": "int256"
        },
        {
          "internalType": "int256",
          "name": "higherPrice",
          "type": "int256"
        },
        {
          "internalType": "int256",
          "name": "isSold",
          "type": "int256"
        }
      ],
      "name": "setFilters",
      "outputs": [
        {
          "internalType": "uint256",
          "name": "",
          "type": "uint256"
        }
      ],
      "payable": true,
      "stateMutability": "payable",
      "type": "function"
    },
    {
      "constant": true,
      "inputs": [],
      "name": "getFilters",
      "outputs": [
        {
          "internalType": "int256",
          "name": "",
          "type": "int256"
        },
        {
          "internalType": "int256",
          "name": "",
          "type": "int256"
        },
        {
          "internalType": "int256",
          "name": "",
          "type": "int256"
        },
        {
          "internalType": "int256",
          "name": "",
          "type": "int256"
        },
        {
          "internalType": "int256",
          "name": "",
          "type": "int256"
        },
        {
          "internalType": "int256",
          "name": "",
          "type": "int256"
        },
        {
          "internalType": "int256",
          "name": "",
          "type": "int256"
        },
        {
          "internalType": "int256",
          "name": "",
          "type": "int256"
        }
      ],
      "payable": false,
      "stateMutability": "view",
      "type": "function"
    }
  ],
  "bytecode": "0x60806040523480156200001157600080fd5b50600060048190555060006005819055506000600681905550336000806101000a81548173ffffffffffffffffffffffffffffffffffffffff021916908373ffffffffffffffffffffffffffffffffffffffff1602179055506200013d60405180606001604052806021815260200162003b0f602191396040518060400160405280600b81526020017f466f6f64265472656174730000000000000000000000000000000000000000008152506040518060400160405280600c81526020017f506572666f726d617472696e00000000000000000000000000000000000000008152506040518060400160405280601381526020017f696d616765732f70726f64756374312e6a706700000000000000000000000000815250620186a06103e86200093f60201b60201c565b506200022d6040518060400160405280602081526020017f486f6d6573746561642048617276657374204164756c742043617420466f6f648152506040518060400160405280600b81526020017f466f6f64265472656174730000000000000000000000000000000000000000008152506040518060400160405280600581526020017f4143414e410000000000000000000000000000000000000000000000000000008152506040518060400160405280601381526020017f696d616765732f70726f64756374322e6a70670000000000000000000000000081525062030d406103e86200093f60201b60201c565b506200031d6040518060400160405280601e81526020017f47726579202620576869746520486f6f646564204c697474657220426f7800008152506040518060400160405280601281526020017f4c6974746572264163636573736f7269657300000000000000000000000000008152506040518060400160405280600581526020017f53617669630000000000000000000000000000000000000000000000000000008152506040518060400160405280601381526020017f696d616765732f70726f64756374332e6a70670000000000000000000000000081525062030d406103e86200093f60201b60201c565b506200040d6040518060400160405280601281526020017f4769616e74204c69747465722053636f6f7000000000000000000000000000008152506040518060400160405280601281526020017f4c6974746572264163636573736f7269657300000000000000000000000000008152506040518060400160405280600881526020017f56616e204e6573730000000000000000000000000000000000000000000000008152506040518060400160405280601381526020017f696d616765732f70726f64756374342e6a70670000000000000000000000000081525062030d406103e86200093f60201b60201c565b50620004fd6040518060400160405280601781526020017f4e61747572654d617465732042697264205465617365720000000000000000008152506040518060400160405280600881526020017f537570706c6965730000000000000000000000000000000000000000000000008152506040518060400160405280600481526020017f4a756d70000000000000000000000000000000000000000000000000000000008152506040518060400160405280601381526020017f696d616765732f70726f64756374352e6a70670000000000000000000000000081525062030d406103e86200093f60201b60201c565b50620005ed6040518060400160405280601781526020017f46656c69782048616d6d6f636b2043617420436f6e646f0000000000000000008152506040518060400160405280600881526020017f537570706c6965730000000000000000000000000000000000000000000000008152506040518060400160405280600481526020017f4a756d70000000000000000000000000000000000000000000000000000000008152506040518060400160405280601381526020017f696d616765732f70726f64756374362e6a70670000000000000000000000000081525062030d406103e86200093f60201b60201c565b50620006dd6040518060400160405280600e81526020017f57656c6c6e657373206578616d730000000000000000000000000000000000008152506040518060400160405280600781526020017f53657276696365000000000000000000000000000000000000000000000000008152506040518060400160405280600d81526020017f50657420476f6f64204c696665000000000000000000000000000000000000008152506040518060400160405280601381526020017f696d616765732f70726f64756374372e6a70670000000000000000000000000081525062030d406103e86200093f60201b60201c565b50620007cd6040518060400160405280600c81526020017f56616363696e6174696f6e7300000000000000000000000000000000000000008152506040518060400160405280600781526020017f53657276696365000000000000000000000000000000000000000000000000008152506040518060400160405280600d81526020017f50657420476f6f64204c696665000000000000000000000000000000000000008152506040518060400160405280601381526020017f696d616765732f70726f64756374382e6a70670000000000000000000000000081525062030d406103e86200093f60201b60201c565b50620008bd6040518060400160405280601c81526020017f546565746820636c65616e696e6720616e642064656e746973747279000000008152506040518060400160405280600781526020017f53657276696365000000000000000000000000000000000000000000000000008152506040518060400160405280600d81526020017f50657420476f6f64204c696665000000000000000000000000000000000000008152506040518060400160405280601381526020017f696d616765732f70726f64756374392e6a70670000000000000000000000000081525062030d406103e86200093f60201b60201c565b506200093860008060007fffffffffffffffffffffffffffffffffffffffffffffffffffffffffffffffff807fffffffffffffffffffffffffffffffffffffffffffffffffffffffffffffffff807fffffffffffffffffffffffffffffffffffffffffffffffffffffffffffffffff62000b3360201b60201c565b5062000ca9565b6000808311620009b7576040517f08c379a00000000000000000000000000000000000000000000000000000000081526004018080602001828103825260118152602001807f756e73617469736669656420707269636500000000000000000000000000000081525060200191505060405180910390fd5b600082101562000a2f576040517f08c379a00000000000000000000000000000000000000000000000000000000081526004018080602001828103825260118152602001807f756e7361746973666965642073746f636b00000000000000000000000000000081525060200191505060405180910390fd5b6040518060e0016040528060055481526020018881526020018781526020018681526020018581526020018481526020018381525060026000600554815260200190815260200160002060008201518160000155602082015181600101908051906020019062000aa192919062000bfa565b50604082015181600201908051906020019062000ac092919062000bfa565b50606082015181600301908051906020019062000adf92919062000bfa565b50608082015181600401908051906020019062000afe92919062000bfa565b5060a0820151816005015560c08201518160060155905050600560008154809291906001019190505590509695505050505050565b60006006600081548092919060010191905055506040518061010001604052808a815260200189815260200188815260200187815260200186815260200185815260200184815260200183815250600360006006548152602001908152602001600020600082015181600001556020820151816001015560408201518160020155606082015181600301556080820151816004015560a0820151816005015560c0820151816006015560e08201518160070155905050600654905098975050505050505050565b828054600181600116156101000203166002900490600052602060002090601f016020900481019282601f1062000c3d57805160ff191683800117855562000c6e565b8280016001018555821562000c6e579182015b8281111562000c6d57825182559160200191906001019062000c50565b5b50905062000c7d919062000c81565b5090565b62000ca691905b8082111562000ca257600081600090555060010162000c88565b5090565b90565b612e568062000cb96000396000f3fe60806040526004361061012a5760003560e01c80638da5cb5b116100ab578063d89fd4b41161006f578063d89fd4b414611093578063e0f6ef871461134a578063e757223014611375578063e7bf7dfc146113c4578063f7a943a614611413578063fa09e6301461149c5761012a565b80638da5cb5b14610d015780639edded1114610d58578063a87d942c14610d86578063cd619f5814610db1578063cfb869bf14610ddc5761012a565b80635e1978b8116100f25780635e1978b8146105b857806361655e12146105e35780636813b53b146108985780637acc0b2014610aa55780638588b2c514610cb25761012a565b806306e341501461012f578063259060d9146101af57806334ea77341461020b5780634a348da91461055557806353b6286614610580575b600080fd5b34801561013b57600080fd5b506101686004803603602081101561015257600080fd5b81019080803590602001909291905050506114ed565b604051808981526020018881526020018781526020018681526020018581526020018481526020018381526020018281526020019850505050505050505060405180910390f35b3480156101bb57600080fd5b506101c4611535565b604051808981526020018881526020018781526020018681526020018581526020018481526020018381526020018281526020019850505050505050505060405180910390f35b61053f600480360361010081101561022257600080fd5b810190808035906020019064010000000081111561023f57600080fd5b82018360208201111561025157600080fd5b8035906020019184600183028401116401000000008311171561027357600080fd5b91908080601f016020809104026020016040519081016040528093929190818152602001838380828437600081840152601f19601f82011690508083019250505050505050919291929080359060200190929190803590602001906401000000008111156102e057600080fd5b8201836020820111156102f257600080fd5b8035906020019184600183028401116401000000008311171561031457600080fd5b91908080601f016020809104026020016040519081016040528093929190818152602001838380828437600081840152601f19601f8201169050808301925050505050505091929192908035906020019064010000000081111561037757600080fd5b82018360208201111561038957600080fd5b803590602001918460018302840111640100000000831117156103ab57600080fd5b91908080601f016020809104026020016040519081016040528093929190818152602001838380828437600081840152601f19601f8201169050808301925050505050505091929192908035906020019064010000000081111561040e57600080fd5b82018360208201111561042057600080fd5b8035906020019184600183028401116401000000008311171561044257600080fd5b91908080601f016020809104026020016040519081016040528093929190818152602001838380828437600081840152601f19601f820116905080830192505050505050509192919290803590602001906401000000008111156104a557600080fd5b8201836020820111156104b757600080fd5b803590602001918460018302840111640100000000831117156104d957600080fd5b91908080601f016020809104026020016040519081016040528093929190818152602001838380828437600081840152601f19601f820116905080830192505050505050509192919290803590602001909291908035906020019092919050505061159d565b6040518082815260200191505060405180910390f35b34801561056157600080fd5b5061056a6117ca565b6040518082815260200191505060405180910390f35b6105b66004803603604081101561059657600080fd5b8101908080359060200190929190803590602001909291905050506117d4565b005b3480156105c457600080fd5b506105cd61191b565b6040518082815260200191505060405180910390f35b3480156105ef57600080fd5b50610882600480360360c081101561060657600080fd5b810190808035906020019064010000000081111561062357600080fd5b82018360208201111561063557600080fd5b8035906020019184600183028401116401000000008311171561065757600080fd5b91908080601f016020809104026020016040519081016040528093929190818152602001838380828437600081840152601f19601f820116905080830192505050505050509192919290803590602001906401000000008111156106ba57600080fd5b8201836020820111156106cc57600080fd5b803590602001918460018302840111640100000000831117156106ee57600080fd5b91908080601f016020809104026020016040519081016040528093929190818152602001838380828437600081840152601f19601f8201169050808301925050505050505091929192908035906020019064010000000081111561075157600080fd5b82018360208201111561076357600080fd5b8035906020019184600183028401116401000000008311171561078557600080fd5b91908080601f016020809104026020016040519081016040528093929190818152602001838380828437600081840152601f19601f820116905080830192505050505050509192919290803590602001906401000000008111156107e857600080fd5b8201836020820111156107fa57600080fd5b8035906020019184600183028401116401000000008311171561081c57600080fd5b91908080601f016020809104026020016040519081016040528093929190818152602001838380828437600081840152601f19601f8201169050808301925050505050505091929192908035906020019092919080359060200190929190505050611921565b6040518082815260200191505060405180910390f35b3480156108a457600080fd5b506108d1600480360360208110156108bb57600080fd5b8101908080359060200190929190505050611b0b565b604051808881526020018060200180602001806020018060200187815260200186815260200185810385528b818151815260200191508051906020019080838360005b8381101561092f578082015181840152602081019050610914565b50505050905090810190601f16801561095c5780820380516001836020036101000a031916815260200191505b5085810384528a818151815260200191508051906020019080838360005b8381101561099557808201518184015260208101905061097a565b50505050905090810190601f1680156109c25780820380516001836020036101000a031916815260200191505b50858103835289818151815260200191508051906020019080838360005b838110156109fb5780820151818401526020810190506109e0565b50505050905090810190601f168015610a285780820380516001836020036101000a031916815260200191505b50858103825288818151815260200191508051906020019080838360005b83811015610a61578082015181840152602081019050610a46565b50505050905090810190601f168015610a8e5780820380516001836020036101000a031916815260200191505b509b50505050505050505050505060405180910390f35b348015610ab157600080fd5b50610ade60048036036020811015610ac857600080fd5b8101908080359060200190929190505050611dd6565b604051808881526020018060200180602001806020018060200187815260200186815260200185810385528b818151815260200191508051906020019080838360005b83811015610b3c578082015181840152602081019050610b21565b50505050905090810190601f168015610b695780820380516001836020036101000a031916815260200191505b5085810384528a818151815260200191508051906020019080838360005b83811015610ba2578082015181840152602081019050610b87565b50505050905090810190601f168015610bcf5780820380516001836020036101000a031916815260200191505b50858103835289818151815260200191508051906020019080838360005b83811015610c08578082015181840152602081019050610bed565b50505050905090810190601f168015610c355780820380516001836020036101000a031916815260200191505b50858103825288818151815260200191508051906020019080838360005b83811015610c6e578082015181840152602081019050610c53565b50505050905090810190601f168015610c9b5780820380516001836020036101000a031916815260200191505b509b50505050505050505050505060405180910390f35b348015610cbe57600080fd5b50610ceb60048036036020811015610cd557600080fd5b8101908080359060200190929190505050612078565b6040518082815260200191505060405180910390f35b348015610d0d57600080fd5b50610d1661219a565b604051808273ffffffffffffffffffffffffffffffffffffffff1673ffffffffffffffffffffffffffffffffffffffff16815260200191505060405180910390f35b610d8460048036036020811015610d6e57600080fd5b81019080803590602001909291905050506121bf565b005b348015610d9257600080fd5b50610d9b612355565b6040518082815260200191505060405180910390f35b348015610dbd57600080fd5b50610dc661235f565b6040518082815260200191505060405180910390f35b348015610de857600080fd5b50610e1560048036036020811015610dff57600080fd5b8101908080359060200190929190505050612365565b604051808b8152602001806020018a815260200180602001806020018060200180602001898152602001881515151581526020018773ffffffffffffffffffffffffffffffffffffffff1673ffffffffffffffffffffffffffffffffffffffff16815260200186810386528f818151815260200191508051906020019080838360005b83811015610eb3578082015181840152602081019050610e98565b50505050905090810190601f168015610ee05780820380516001836020036101000a031916815260200191505b5086810385528d818151815260200191508051906020019080838360005b83811015610f19578082015181840152602081019050610efe565b50505050905090810190601f168015610f465780820380516001836020036101000a031916815260200191505b5086810384528c818151815260200191508051906020019080838360005b83811015610f7f578082015181840152602081019050610f64565b50505050905090810190601f168015610fac5780820380516001836020036101000a031916815260200191505b5086810383528b818151815260200191508051906020019080838360005b83811015610fe5578082015181840152602081019050610fca565b50505050905090810190601f1680156110125780820380516001836020036101000a031916815260200191505b5086810382528a818151815260200191508051906020019080838360005b8381101561104b578082015181840152602081019050611030565b50505050905090810190601f1680156110785780820380516001836020036101000a031916815260200191505b509f5050505050505050505050505050505060405180910390f35b34801561109f57600080fd5b506110cc600480360360208110156110b657600080fd5b81019080803590602001909291905050506126de565b604051808b8152602001806020018a8152602001806020018060200180602001898152602001881515151581526020018773ffffffffffffffffffffffffffffffffffffffff1673ffffffffffffffffffffffffffffffffffffffff1681526020018060200186810386528f818151815260200191508051906020019080838360005b8381101561116a57808201518184015260208101905061114f565b50505050905090810190601f1680156111975780820380516001836020036101000a031916815260200191505b5086810385528d818151815260200191508051906020019080838360005b838110156111d05780820151818401526020810190506111b5565b50505050905090810190601f1680156111fd5780820380516001836020036101000a031916815260200191505b5086810384528c818151815260200191508051906020019080838360005b8381101561123657808201518184015260208101905061121b565b50505050905090810190601f1680156112635780820380516001836020036101000a031916815260200191505b5086810383528b818151815260200191508051906020019080838360005b8381101561129c578082015181840152602081019050611281565b50505050905090810190601f1680156112c95780820380516001836020036101000a031916815260200191505b50868103825287818151815260200191508051906020019080838360005b838110156113025780820151818401526020810190506112e7565b50505050905090810190601f16801561132f5780820380516001836020036101000a031916815260200191505b509f5050505050505050505050505050505060405180910390f35b34801561135657600080fd5b5061135f612aab565b6040518082815260200191505060405180910390f35b34801561138157600080fd5b506113ae6004803603602081101561139857600080fd5b8101908080359060200190929190505050612ab1565b6040518082815260200191505060405180910390f35b3480156113d057600080fd5b506113fd600480360360208110156113e757600080fd5b8101908080359060200190929190505050612af2565b6040518082815260200191505060405180910390f35b611486600480360361010081101561142a57600080fd5b810190808035906020019092919080359060200190929190803590602001909291908035906020019092919080359060200190929190803590602001909291908035906020019092919080359060200190929190505050612b33565b6040518082815260200191505060405180910390f35b3480156114a857600080fd5b506114eb600480360360208110156114bf57600080fd5b81019080803573ffffffffffffffffffffffffffffffffffffffff169060200190929190505050612bfa565b005b60036020528060005260406000206000915090508060000154908060010154908060020154908060030154908060040154908060050154908060060154908060070154905088565b600080600080600080600080600060036000600654815260200190815260200160002090508060000154816001015482600201548360030154846004015485600501548660060154876007015498509850985098509850985098509850509091929394959697565b600081341015611615576040517f08c379a00000000000000000000000000000000000000000000000000000000081526004018080602001828103825260108152602001807f496e73756666696369656e74206665650000000000000000000000000000000081525060200191505060405180910390fd5b60046000815480929190600101919050555060405180610140016040528060045481526020018a8152602001898152602001888152602001878152602001868152602001858152602001848152602001600015158152602001600073ffffffffffffffffffffffffffffffffffffffff168152506001600060045481526020019081526020016000206000820151816000015560208201518160010190805190602001906116c4929190612d7c565b506040820151816002015560608201518160030190805190602001906116eb929190612d7c565b506080820151816004019080519060200190611708929190612d7c565b5060a0820151816005019080519060200190611725929190612d7c565b5060c0820151816006019080519060200190611742929190612d7c565b5060e082015181600701556101008201518160080160006101000a81548160ff0219169083151502179055506101208201518160080160016101000a81548173ffffffffffffffffffffffffffffffffffffffff021916908373ffffffffffffffffffffffffffffffffffffffff160217905550905050600454905098975050505050505050565b6000600554905090565b600082101580156117e757506005548211155b6117f057600080fd5b60006002600084815260200190815260200160002090506000828260060154031015611884576040517f08c379a00000000000000000000000000000000000000000000000000000000081526004018080602001828103825260108152602001807f53746f636b206e6f7420656e6f7567680000000000000000000000000000000081525060200191505060405180910390fd5b8060050154816006015402341015611904576040517f08c379a00000000000000000000000000000000000000000000000000000000081526004018080602001828103825260128152602001807f496e73756666696369656e742066756e6473000000000000000000000000000081525060200191505060405180910390fd5b818160060160008282540392505081905550505050565b60065481565b6000808311611998576040517f08c379a00000000000000000000000000000000000000000000000000000000081526004018080602001828103825260118152602001807f756e73617469736669656420707269636500000000000000000000000000000081525060200191505060405180910390fd5b6000821015611a0f576040517f08c379a00000000000000000000000000000000000000000000000000000000081526004018080602001828103825260118152602001807f756e7361746973666965642073746f636b00000000000000000000000000000081525060200191505060405180910390fd5b6040518060e00160405280600554815260200188815260200187815260200186815260200185815260200184815260200183815250600260006005548152602001908152602001600020600082015181600001556020820151816001019080519060200190611a7f929190612d7c565b506040820151816002019080519060200190611a9c929190612d7c565b506060820151816003019080519060200190611ab9929190612d7c565b506080820151816004019080519060200190611ad6929190612d7c565b5060a0820151816005015560c08201518160060155905050600560008154809291906001019190505590509695505050505050565b60006060806060806000806000600260008a8152602001908152602001600020905080600001548160010182600201836003018460040185600501548660060154858054600181600116156101000203166002900480601f016020809104026020016040519081016040528092919081815260200182805460018160011615610100020316600290048015611be15780601f10611bb657610100808354040283529160200191611be1565b820191906000526020600020905b815481529060010190602001808311611bc457829003601f168201915b50505050509550848054600181600116156101000203166002900480601f016020809104026020016040519081016040528092919081815260200182805460018160011615610100020316600290048015611c7d5780601f10611c5257610100808354040283529160200191611c7d565b820191906000526020600020905b815481529060010190602001808311611c6057829003601f168201915b50505050509450838054600181600116156101000203166002900480601f016020809104026020016040519081016040528092919081815260200182805460018160011615610100020316600290048015611d195780601f10611cee57610100808354040283529160200191611d19565b820191906000526020600020905b815481529060010190602001808311611cfc57829003601f168201915b50505050509350828054600181600116156101000203166002900480601f016020809104026020016040519081016040528092919081815260200182805460018160011615610100020316600290048015611db55780601f10611d8a57610100808354040283529160200191611db5565b820191906000526020600020905b815481529060010190602001808311611d9857829003601f168201915b50505050509250975097509750975097509750975050919395979092949650565b6002602052806000526040600020600091509050806000015490806001018054600181600116156101000203166002900480601f016020809104026020016040519081016040528092919081815260200182805460018160011615610100020316600290048015611e885780601f10611e5d57610100808354040283529160200191611e88565b820191906000526020600020905b815481529060010190602001808311611e6b57829003601f168201915b505050505090806002018054600181600116156101000203166002900480601f016020809104026020016040519081016040528092919081815260200182805460018160011615610100020316600290048015611f265780601f10611efb57610100808354040283529160200191611f26565b820191906000526020600020905b815481529060010190602001808311611f0957829003601f168201915b505050505090806003018054600181600116156101000203166002900480601f016020809104026020016040519081016040528092919081815260200182805460018160011615610100020316600290048015611fc45780601f10611f9957610100808354040283529160200191611fc4565b820191906000526020600020905b815481529060010190602001808311611fa757829003601f168201915b505050505090806004018054600181600116156101000203166002900480601f0160208091040260200160405190810160405280929190818152602001828054600181600116156101000203166002900480156120625780601f1061203757610100808354040283529160200191612062565b820191906000526020600020905b81548152906001019060200180831161204557829003601f168201915b5050505050908060050154908060060154905087565b600080821015801561208c57506004548211155b61209557600080fd5b60006001600084815260200190815260200160002090508060080160009054906101000a900460ff1615612131576040517f08c379a000000000000000000000000000000000000000000000000000000000815260040180806020018281038252601b8152602001807f546869732070657420697320616c7265616479206164706f746564000000000081525060200191505060405180910390fd5b60018160080160006101000a81548160ff021916908315150217905550338160080160016101000a81548173ffffffffffffffffffffffffffffffffffffffff021916908373ffffffffffffffffffffffffffffffffffffffff16021790555082915050919050565b6000809054906101000a900473ffffffffffffffffffffffffffffffffffffffff1681565b600081101580156121d257506004548111155b6121db57600080fd5b60006001600083815260200190815260200160002090508060080160009054906101000a900460ff1615612277576040517f08c379a00000000000000000000000000000000000000000000000000000000081526004018080602001828103825260188152602001807f546869732070657420697320616c726561647920736f6c64000000000000000081525060200191505060405180910390fd5b80600701543410156122f1576040517f08c379a00000000000000000000000000000000000000000000000000000000081526004018080602001828103825260128152602001807f496e73756666696369656e742066756e6473000000000000000000000000000081525060200191505060405180910390fd5b60018160080160006101000a81548160ff021916908315150217905550338160080160016101000a81548173ffffffffffffffffffffffffffffffffffffffff021916908373ffffffffffffffffffffffffffffffffffffffff1602179055505050565b6000600454905090565b60045481565b6001602052806000526040600020600091509050806000015490806001018054600181600116156101000203166002900480601f0160208091040260200160405190810160405280929190818152602001828054600181600116156101000203166002900480156124175780601f106123ec57610100808354040283529160200191612417565b820191906000526020600020905b8154815290600101906020018083116123fa57829003601f168201915b505050505090806002015490806003018054600181600116156101000203166002900480601f0160208091040260200160405190810160405280929190818152602001828054600181600116156101000203166002900480156124bb5780601f10612490576101008083540402835291602001916124bb565b820191906000526020600020905b81548152906001019060200180831161249e57829003601f168201915b505050505090806004018054600181600116156101000203166002900480601f0160208091040260200160405190810160405280929190818152602001828054600181600116156101000203166002900480156125595780601f1061252e57610100808354040283529160200191612559565b820191906000526020600020905b81548152906001019060200180831161253c57829003601f168201915b505050505090806005018054600181600116156101000203166002900480601f0160208091040260200160405190810160405280929190818152602001828054600181600116156101000203166002900480156125f75780601f106125cc576101008083540402835291602001916125f7565b820191906000526020600020905b8154815290600101906020018083116125da57829003601f168201915b505050505090806006018054600181600116156101000203166002900480601f0160208091040260200160405190810160405280929190818152602001828054600181600116156101000203166002900480156126955780601f1061266a57610100808354040283529160200191612695565b820191906000526020600020905b81548152906001019060200180831161267857829003601f168201915b5050505050908060070154908060080160009054906101000a900460ff16908060080160019054906101000a900473ffffffffffffffffffffffffffffffffffffffff1690508a565b60006060600060608060606000806000606060008b1015801561270357506004548b11155b61270c57600080fd5b6000600160008d81526020019081526020016000209050806000015481600101826002015483600401846005018560060186600701548760080160009054906101000a900460ff168860080160019054906101000a900473ffffffffffffffffffffffffffffffffffffffff1689600301888054600181600116156101000203166002900480601f0160208091040260200160405190810160405280929190818152602001828054600181600116156101000203166002900480156128125780601f106127e757610100808354040283529160200191612812565b820191906000526020600020905b8154815290600101906020018083116127f557829003601f168201915b50505050509850868054600181600116156101000203166002900480601f0160208091040260200160405190810160405280929190818152602001828054600181600116156101000203166002900480156128ae5780601f10612883576101008083540402835291602001916128ae565b820191906000526020600020905b81548152906001019060200180831161289157829003601f168201915b50505050509650858054600181600116156101000203166002900480601f01602080910402602001604051908101604052809291908181526020018280546001816001161561010002031660029004801561294a5780601f1061291f5761010080835404028352916020019161294a565b820191906000526020600020905b81548152906001019060200180831161292d57829003601f168201915b50505050509550848054600181600116156101000203166002900480601f0160208091040260200160405190810160405280929190818152602001828054600181600116156101000203166002900480156129e65780601f106129bb576101008083540402835291602001916129e6565b820191906000526020600020905b8154815290600101906020018083116129c957829003601f168201915b50505050509450808054600181600116156101000203166002900480601f016020809104026020016040519081016040528092919081815260200182805460018160011615610100020316600290048015612a825780601f10612a5757610100808354040283529160200191612a82565b820191906000526020600020905b815481529060010190602001808311612a6557829003601f168201915b505050505090509a509a509a509a509a509a509a509a509a509a50509193959799509193959799565b60055481565b6000808210158015612ac557506004548211155b612ace57600080fd5b60006001600084815260200190815260200160002090508060070154915050919050565b6000808210158015612b0657506005548211155b612b0f57600080fd5b60006002600084815260200190815260200160002090508060050154915050919050565b60006006600081548092919060010191905055506040518061010001604052808a815260200189815260200188815260200187815260200186815260200185815260200184815260200183815250600360006006548152602001908152602001600020600082015181600001556020820151816001015560408201518160020155606082015181600301556080820151816004015560a0820151816005015560c0820151816006015560e08201518160070155905050600654905098975050505050505050565b6000809054906101000a900473ffffffffffffffffffffffffffffffffffffffff1673ffffffffffffffffffffffffffffffffffffffff163373ffffffffffffffffffffffffffffffffffffffff1614612cbc576040517f08c379a00000000000000000000000000000000000000000000000000000000081526004018080602001828103825260098152602001807f4e6f74206f776e6572000000000000000000000000000000000000000000000081525060200191505060405180910390fd5b60004711612d32576040517f08c379a000000000000000000000000000000000000000000000000000000000815260040180806020018281038252600d8152602001807f656d7074792062616c616e63650000000000000000000000000000000000000081525060200191505060405180910390fd5b8073ffffffffffffffffffffffffffffffffffffffff166108fc479081150290604051600060405180830381858888f19350505050158015612d78573d6000803e3d6000fd5b5050565b828054600181600116156101000203166002900490600052602060002090601f016020900481019282601f10612dbd57805160ff1916838001178555612deb565b82800160010185558215612deb579182015b82811115612dea578251825591602001919060010190612dcf565b5b509050612df89190612dfc565b5090565b612e1e91905b80821115612e1a576000816000905550600101612e02565b5090565b9056fea265627a7a723158201b74c8972ef2b09e5bd97f8f471df88b36234eef1c283378fd908cbdddc5986d64736f6c634300051000324c616d6220262042726f776e20526963652052656369706520446f6720466f6f64",
  "source": "pragma solidity >=0.4.22 <0.9.0;\n\ncontract PetShop {\n    address public owner;\n\n    //struct of a pet's info, picture = ipfs url\n    struct Pet {\n        uint id;\n        string name;\n        uint age;\n        string sex;\n        string breed;\n        string location;\n        string photo;\n        uint price;\n        bool isSold;\n        address owner;\n    }\n    \n    struct Product {\n        uint pId;\n        string pName;\n        string pCategory;\n        string pBrand;\n        string picture;\n        uint pPrice;\n        uint stock;\n    }\n\n    struct filter {\n      int conditionAge;\n      int conditionPrice;\n      int conditionStatus;\n      int lowerAge;\n      int higherAge;\n      int lowerPrice;\n      int higherPrice;\n      int isSold;\n    }\n\n    mapping(uint => Pet) public pets;\n    mapping(uint => Product) public products;\n    mapping(uint => filter) public filters;\n\n    uint public petCount;\n    uint public productCount;\n    uint public filterCount;\n\n    constructor() public {\n        petCount = 0;\n        productCount = 0;\n        filterCount =0;\n        owner = msg.sender;\n        addProduct(\"Lamb & Brown Rice Recipe Dog Food\",\"Food&Treats\",\"Performatrin\",\"images/product1.jpg\",1*100000,1000);\n        addProduct(\"Homestead Harvest Adult Cat Food\",\"Food&Treats\",\"ACANA\",\"images/product2.jpg\",2*100000,1000);\n        addProduct(\"Grey & White Hooded Litter Box\",\"Litter&Accessories\",\"Savic\",\"images/product3.jpg\",2*100000,1000);\n        addProduct(\"Giant Litter Scoop\",\"Litter&Accessories\",\"Van Ness\",\"images/product4.jpg\",2*100000,1000);\n        addProduct(\"NatureMates Bird Teaser\",\"Supplies\",\"Jump\",\"images/product5.jpg\",2*100000,1000);\n        addProduct(\"Felix Hammock Cat Condo\",\"Supplies\",\"Jump\",\"images/product6.jpg\",2*100000,1000);\n        addProduct(\"Wellness exams\",\"Service\",\"Pet Good Life\",\"images/product7.jpg\",2*100000,1000);\n        addProduct(\"Vaccinations\",\"Service\",\"Pet Good Life\",\"images/product8.jpg\",2*100000,1000);\n        addProduct(\"Teeth cleaning and dentistry\",\"Service\",\"Pet Good Life\",\"images/product9.jpg\",2*100000,1000);\n        setFilters(0,0,0,-1,-1,-1,-1,-1);\n    }\n\n    function addProduct(string memory pName, string memory pCategory, string memory pBrand, string memory picture, uint pPrice, uint stock) public returns (uint){\n        require (pPrice > 0,\"unsatisfied price\");\n        require (stock >= 0,\"unsatisfied stock\");\n        products[productCount] = Product(productCount, pName, pCategory, pBrand, picture, pPrice, stock);\n        return productCount++;\n    }\n    \n    function registerPet(string memory _name, uint _age, string memory _sex, string memory _breed, \n    string memory _location, string memory _photo, uint _price, uint _fee) public payable returns (uint) {\n        require(msg.value >= _fee, \"Insufficient fee\");\n        petCount++;\n        pets[petCount] = Pet(petCount, _name, _age, _sex, _breed, _location, _photo, _price, false, address(0));\n        return petCount;\n    }\n\n    function buyPet(uint _id) external payable {\n        require(_id >= 0 && _id<= petCount);\n        Pet storage pet = pets[_id];\n        require(!pet.isSold, \"This pet is already sold\");\n        require(msg.value >= pet.price, \"Insufficient funds\");\n        pet.isSold = true;\n        pet.owner = msg.sender;\n    }\n    function buyProduct(uint pId, uint amount) external payable {\n        require(pId >= 0 && pId <= productCount);\n        Product storage product = products[pId];\n        require(product.stock-amount >= 0, \"Stock not enough\");\n        require(msg.value >= product.stock * product.pPrice, \"Insufficient funds\");\n        product.stock -= amount;\n    }\n\n    function adopt(uint _id) external returns (uint) {\n        require(_id >= 0 && _id <= petCount);\n        Pet storage pet = pets[_id];\n        require(!pet.isSold, \"This pet is already adpoted\");\n        pet.isSold = true;\n        pet.owner = msg.sender;\n        return _id;\n    }\n\n    function getCount() view external returns (uint) {\n        return petCount;\n    }\n    function getProductCount() view external returns (uint){\n        return productCount;\n    }\n\n    // Retrieving one pet's details\n    function getPetDetails(uint petId) public view returns (uint, string memory, uint, string memory, string memory,\n        string memory, uint, bool, address, string memory) {\n        require(petId >= 0 && petId <= petCount);\n        Pet storage p = pets[petId];\n        return (p.id, p.name, p.age, p.breed, p.location, p.photo, p.price, p.isSold, p.owner, p.sex);\n    }\n    function getProductDetails(uint pId) public view returns (uint, string memory, string memory, string memory, string memory, uint, uint) {\n        Product storage product = products[pId];\n        return (product.pId, product.pName,product.pCategory,product.pBrand,product.picture,product.pPrice,product.stock);\n        // return product;\n    }\n\n    // Retrieving one pet's price\n    function getPrice(uint petId) public view returns (uint) {\n        require(petId >= 0 && petId <= petCount);\n        Pet storage p = pets[petId];\n        return p.price;\n    }\n    function getProductPrice(uint pId) public view returns (uint) {\n        require(pId >= 0 && pId <= productCount);\n        Product storage product = products[pId];\n        return product.pPrice;\n    }\n\n    modifier onlyOwner() {\n        require(msg.sender == owner, \"Not owner\");\n        _;\n    }\n\n    function withdrawAll(address payable _to) external onlyOwner{\n        require(address(this).balance > 0, \"empty balance\");\n        _to.transfer(address(this).balance);\n    }\n\n    function setFilters(int conditionAge, int conditionPrice, int conditionStatus, int lowerAge, int higherAge, int lowerPrice, int higherPrice, int isSold) public payable returns (uint){\n        filterCount++;\n        filters[filterCount] = filter(conditionAge, conditionPrice, conditionStatus, lowerAge, higherAge, lowerPrice, higherPrice, isSold);\n        return filterCount;\n    }\n\n    function getFilters() public view returns (int, int, int, int, int, int, int, int){\n        filter storage f = filters[filterCount];\n        return (f.conditionAge, f.conditionPrice, f.conditionStatus, f.lowerAge, f.higherAge, f.lowerPrice, f.higherPrice, f.isSold);\n    }\n}\n",
  "sourcePath": "/Users/thea/Projects/1050/Pet-Shop-Dapp/contracts/PetShop.sol",
  "compiler": {
    "name": "solc",
    "version": "0.5.16+commit.9c3226ce.Emscripten.clang"
  },
  "schemaVersion": "3.0.22",
  "updatedAt": "2023-04-09T20:43:30.012Z",
  "networkType": "ethereum",
  "devdoc": {
    "methods": {}
  },
  "userdoc": {
    "methods": {}
  }
}