{
  "contractName": "PetShop",
  "abi": [
    {
      "inputs": [],
      "payable": false,
      "stateMutability": "nonpayable",
      "type": "constructor"
    },
    {
      "constant": true,
      "inputs": [],
      "name": "owner",
      "outputs": [
        {
          "internalType": "address",
          "name": "",
          "type": "address"
        }
      ],
      "payable": false,
      "stateMutability": "view",
      "type": "function"
    },
    {
      "constant": true,
      "inputs": [],
      "name": "petCount",
      "outputs": [
        {
          "internalType": "uint256",
          "name": "",
          "type": "uint256"
        }
      ],
      "payable": false,
      "stateMutability": "view",
      "type": "function"
    },
    {
      "constant": true,
      "inputs": [
        {
          "internalType": "uint256",
          "name": "",
          "type": "uint256"
        }
      ],
      "name": "pets",
      "outputs": [
        {
          "internalType": "uint256",
          "name": "id",
          "type": "uint256"
        },
        {
          "internalType": "string",
          "name": "name",
          "type": "string"
        },
        {
          "internalType": "uint256",
          "name": "age",
          "type": "uint256"
        },
        {
          "internalType": "string",
          "name": "sex",
          "type": "string"
        },
        {
          "internalType": "string",
          "name": "breed",
          "type": "string"
        },
        {
          "internalType": "string",
          "name": "location",
          "type": "string"
        },
        {
          "internalType": "string",
          "name": "photo",
          "type": "string"
        },
        {
          "internalType": "uint256",
          "name": "price",
          "type": "uint256"
        },
        {
          "internalType": "bool",
          "name": "isSold",
          "type": "bool"
        },
        {
          "internalType": "address",
          "name": "owner",
          "type": "address"
        }
      ],
      "payable": false,
      "stateMutability": "view",
      "type": "function"
    },
    {
      "constant": true,
      "inputs": [],
      "name": "productCount",
      "outputs": [
        {
          "internalType": "uint256",
          "name": "",
          "type": "uint256"
        }
      ],
      "payable": false,
      "stateMutability": "view",
      "type": "function"
    },
    {
      "constant": true,
      "inputs": [
        {
          "internalType": "uint256",
          "name": "",
          "type": "uint256"
        }
      ],
      "name": "products",
      "outputs": [
        {
          "internalType": "uint256",
          "name": "pId",
          "type": "uint256"
        },
        {
          "internalType": "string",
          "name": "pName",
          "type": "string"
        },
        {
          "internalType": "string",
          "name": "pCategory",
          "type": "string"
        },
        {
          "internalType": "string",
          "name": "pBrand",
          "type": "string"
        },
        {
          "internalType": "string",
          "name": "picture",
          "type": "string"
        },
        {
          "internalType": "uint256",
          "name": "pPrice",
          "type": "uint256"
        },
        {
          "internalType": "uint256",
          "name": "stock",
          "type": "uint256"
        }
      ],
      "payable": false,
      "stateMutability": "view",
      "type": "function"
    },
    {
      "constant": false,
      "inputs": [
        {
          "internalType": "string",
          "name": "pName",
          "type": "string"
        },
        {
          "internalType": "string",
          "name": "pCategory",
          "type": "string"
        },
        {
          "internalType": "string",
          "name": "pBrand",
          "type": "string"
        },
        {
          "internalType": "string",
          "name": "picture",
          "type": "string"
        },
        {
          "internalType": "uint256",
          "name": "pPrice",
          "type": "uint256"
        },
        {
          "internalType": "uint256",
          "name": "stock",
          "type": "uint256"
        }
      ],
      "name": "addProduct",
      "outputs": [
        {
          "internalType": "uint256",
          "name": "",
          "type": "uint256"
        }
      ],
      "payable": false,
      "stateMutability": "nonpayable",
      "type": "function"
    },
    {
      "constant": false,
      "inputs": [
        {
          "internalType": "string",
          "name": "_name",
          "type": "string"
        },
        {
          "internalType": "uint256",
          "name": "_age",
          "type": "uint256"
        },
        {
          "internalType": "string",
          "name": "_sex",
          "type": "string"
        },
        {
          "internalType": "string",
          "name": "_breed",
          "type": "string"
        },
        {
          "internalType": "string",
          "name": "_location",
          "type": "string"
        },
        {
          "internalType": "string",
          "name": "_photo",
          "type": "string"
        },
        {
          "internalType": "uint256",
          "name": "_price",
          "type": "uint256"
        },
        {
          "internalType": "uint256",
          "name": "_fee",
          "type": "uint256"
        }
      ],
      "name": "registerPet",
      "outputs": [
        {
          "internalType": "uint256",
          "name": "",
          "type": "uint256"
        }
      ],
      "payable": true,
      "stateMutability": "payable",
      "type": "function"
    },
    {
      "constant": false,
      "inputs": [
        {
          "internalType": "string",
          "name": "_name",
          "type": "string"
        },
        {
          "internalType": "uint256",
          "name": "_age",
          "type": "uint256"
        },
        {
          "internalType": "string",
          "name": "_sex",
          "type": "string"
        },
        {
          "internalType": "string",
          "name": "_breed",
          "type": "string"
        },
        {
          "internalType": "string",
          "name": "_location",
          "type": "string"
        },
        {
          "internalType": "string",
          "name": "_photo",
          "type": "string"
        },
        {
          "internalType": "uint256",
          "name": "_price",
          "type": "uint256"
        }
      ],
      "name": "registerPetAdmin",
      "outputs": [
        {
          "internalType": "uint256",
          "name": "",
          "type": "uint256"
        }
      ],
      "payable": false,
      "stateMutability": "nonpayable",
      "type": "function"
    },
    {
      "constant": false,
      "inputs": [
        {
          "internalType": "uint256",
          "name": "_id",
          "type": "uint256"
        }
      ],
      "name": "buyPet",
      "outputs": [],
      "payable": true,
      "stateMutability": "payable",
      "type": "function"
    },
    {
      "constant": false,
      "inputs": [
        {
          "internalType": "uint256",
          "name": "pId",
          "type": "uint256"
        },
        {
          "internalType": "uint256",
          "name": "amount",
          "type": "uint256"
        }
      ],
      "name": "buyProduct",
      "outputs": [],
      "payable": true,
      "stateMutability": "payable",
      "type": "function"
    },
    {
      "constant": false,
      "inputs": [
        {
          "internalType": "uint256",
          "name": "_id",
          "type": "uint256"
        }
      ],
      "name": "adopt",
      "outputs": [
        {
          "internalType": "uint256",
          "name": "",
          "type": "uint256"
        }
      ],
      "payable": false,
      "stateMutability": "nonpayable",
      "type": "function"
    },
    {
      "constant": true,
      "inputs": [],
      "name": "getCount",
      "outputs": [
        {
          "internalType": "uint256",
          "name": "",
          "type": "uint256"
        }
      ],
      "payable": false,
      "stateMutability": "view",
      "type": "function"
    },
    {
      "constant": true,
      "inputs": [],
      "name": "getProductCount",
      "outputs": [
        {
          "internalType": "uint256",
          "name": "",
          "type": "uint256"
        }
      ],
      "payable": false,
      "stateMutability": "view",
      "type": "function"
    },
    {
      "constant": true,
      "inputs": [
        {
          "internalType": "uint256",
          "name": "petId",
          "type": "uint256"
        }
      ],
      "name": "getPetDetails",
      "outputs": [
        {
          "internalType": "uint256",
          "name": "",
          "type": "uint256"
        },
        {
          "internalType": "string",
          "name": "",
          "type": "string"
        },
        {
          "internalType": "uint256",
          "name": "",
          "type": "uint256"
        },
        {
          "internalType": "string",
          "name": "",
          "type": "string"
        },
        {
          "internalType": "string",
          "name": "",
          "type": "string"
        },
        {
          "internalType": "string",
          "name": "",
          "type": "string"
        },
        {
          "internalType": "uint256",
          "name": "",
          "type": "uint256"
        },
        {
          "internalType": "bool",
          "name": "",
          "type": "bool"
        },
        {
          "internalType": "address",
          "name": "",
          "type": "address"
        },
        {
          "internalType": "string",
          "name": "",
          "type": "string"
        }
      ],
      "payable": false,
      "stateMutability": "view",
      "type": "function"
    },
    {
      "constant": true,
      "inputs": [
        {
          "internalType": "uint256",
          "name": "pId",
          "type": "uint256"
        }
      ],
      "name": "getProductDetails",
      "outputs": [
        {
          "internalType": "uint256",
          "name": "",
          "type": "uint256"
        },
        {
          "internalType": "string",
          "name": "",
          "type": "string"
        },
        {
          "internalType": "string",
          "name": "",
          "type": "string"
        },
        {
          "internalType": "string",
          "name": "",
          "type": "string"
        },
        {
          "internalType": "string",
          "name": "",
          "type": "string"
        },
        {
          "internalType": "uint256",
          "name": "",
          "type": "uint256"
        },
        {
          "internalType": "uint256",
          "name": "",
          "type": "uint256"
        }
      ],
      "payable": false,
      "stateMutability": "view",
      "type": "function"
    },
    {
      "constant": true,
      "inputs": [
        {
          "internalType": "uint256",
          "name": "petId",
          "type": "uint256"
        }
      ],
      "name": "getPrice",
      "outputs": [
        {
          "internalType": "uint256",
          "name": "",
          "type": "uint256"
        }
      ],
      "payable": false,
      "stateMutability": "view",
      "type": "function"
    },
    {
      "constant": true,
      "inputs": [
        {
          "internalType": "uint256",
          "name": "pId",
          "type": "uint256"
        }
      ],
      "name": "getProductPrice",
      "outputs": [
        {
          "internalType": "uint256",
          "name": "",
          "type": "uint256"
        }
      ],
      "payable": false,
      "stateMutability": "view",
      "type": "function"
    },
    {
      "constant": true,
      "inputs": [],
      "name": "getAdmin",
      "outputs": [
        {
          "internalType": "address",
          "name": "",
          "type": "address"
        }
      ],
      "payable": false,
      "stateMutability": "view",
      "type": "function"
    },
    {
      "constant": false,
      "inputs": [
        {
          "internalType": "address payable",
          "name": "_to",
          "type": "address"
        }
      ],
      "name": "withdrawAll",
      "outputs": [],
      "payable": false,
      "stateMutability": "nonpayable",
      "type": "function"
    }
  ],
  "bytecode": "0x60806040523480156200001157600080fd5b5060006004819055506000600581905550336000806101000a81548173ffffffffffffffffffffffffffffffffffffffff021916908373ffffffffffffffffffffffffffffffffffffffff16021790555033600160006101000a81548173ffffffffffffffffffffffffffffffffffffffff021916908373ffffffffffffffffffffffffffffffffffffffff160217905550620001916040518060400160405280601a81526020017f42726f776e20526963652052656369706520446f6720466f6f640000000000008152506040518060400160405280600b81526020017f466f6f64265472656174730000000000000000000000000000000000000000008152506040518060400160405280600c81526020017f506572666f726d617472696e00000000000000000000000000000000000000008152506040518060400160405280601381526020017f696d616765732f70726f64756374312e6a7067000000000000000000000000008152506127106103e86200090b60201b60201c565b506200027f6040518060400160405280601a81526020017f486f6d65737465616420486172766573742043617420466f6f640000000000008152506040518060400160405280600b81526020017f466f6f64265472656174730000000000000000000000000000000000000000008152506040518060400160405280600581526020017f4143414e410000000000000000000000000000000000000000000000000000008152506040518060400160405280601381526020017f696d616765732f70726f64756374322e6a706700000000000000000000000000815250614e2060c86200090b60201b60201c565b506200036d6040518060400160405280601e81526020017f47726579202620576869746520486f6f646564204c697474657220426f7800008152506040518060400160405280601281526020017f4c6974746572264163636573736f7269657300000000000000000000000000008152506040518060400160405280600581526020017f53617669630000000000000000000000000000000000000000000000000000008152506040518060400160405280601381526020017f696d616765732f70726f64756374332e6a706700000000000000000000000000815250614e2060146200090b60201b60201c565b506200045b6040518060400160405280601281526020017f4769616e74204c69747465722053636f6f7000000000000000000000000000008152506040518060400160405280601281526020017f4c6974746572264163636573736f7269657300000000000000000000000000008152506040518060400160405280600881526020017f56616e204e6573730000000000000000000000000000000000000000000000008152506040518060400160405280601381526020017f696d616765732f70726f64756374342e6a706700000000000000000000000000815250614e2060426200090b60201b60201c565b50620005496040518060400160405280601781526020017f4e61747572654d617465732042697264205465617365720000000000000000008152506040518060400160405280600881526020017f537570706c6965730000000000000000000000000000000000000000000000008152506040518060400160405280600481526020017f4a756d70000000000000000000000000000000000000000000000000000000008152506040518060400160405280601381526020017f696d616765732f70726f64756374352e6a70670000000000000000000000000081525061138860586200090b60201b60201c565b50620006386040518060400160405280601781526020017f46656c69782048616d6d6f636b2043617420436f6e646f0000000000000000008152506040518060400160405280600881526020017f537570706c6965730000000000000000000000000000000000000000000000008152506040518060400160405280600481526020017f4a756d70000000000000000000000000000000000000000000000000000000008152506040518060400160405280601381526020017f696d616765732f70726f64756374362e6a706700000000000000000000000000815250614e206101f46200090b60201b60201c565b50620007286040518060400160405280600e81526020017f57656c6c6e657373206578616d730000000000000000000000000000000000008152506040518060400160405280600781526020017f53657276696365000000000000000000000000000000000000000000000000008152506040518060400160405280600d81526020017f50657420476f6f64204c696665000000000000000000000000000000000000008152506040518060400160405280601381526020017f696d616765732f70726f64756374372e6a70670000000000000000000000000081525062030d406122b86200090b60201b60201c565b50620008166040518060400160405280600c81526020017f56616363696e6174696f6e7300000000000000000000000000000000000000008152506040518060400160405280600781526020017f53657276696365000000000000000000000000000000000000000000000000008152506040518060400160405280600d81526020017f50657420476f6f64204c696665000000000000000000000000000000000000008152506040518060400160405280601381526020017f696d616765732f70726f64756374382e6a706700000000000000000000000000815250614e2060036200090b60201b60201c565b50620009046040518060400160405280601c81526020017f546565746820636c65616e696e6720616e642064656e746973747279000000008152506040518060400160405280600781526020017f53657276696365000000000000000000000000000000000000000000000000008152506040518060400160405280600d81526020017f50657420476f6f64204c696665000000000000000000000000000000000000008152506040518060400160405280601381526020017f696d616765732f70726f64756374392e6a70670000000000000000000000000081525061ea6060116200090b60201b60201c565b5062000c73565b6000600160009054906101000a900473ffffffffffffffffffffffffffffffffffffffff1673ffffffffffffffffffffffffffffffffffffffff163373ffffffffffffffffffffffffffffffffffffffff1614620009d1576040517f08c379a00000000000000000000000000000000000000000000000000000000081526004018080602001828103825260118152602001807f596f7520617265206e6f742061646d696e00000000000000000000000000000081525060200191505060405180910390fd5b6000831162000a48576040517f08c379a00000000000000000000000000000000000000000000000000000000081526004018080602001828103825260118152602001807f756e73617469736669656420707269636500000000000000000000000000000081525060200191505060405180910390fd5b600082101562000ac0576040517f08c379a00000000000000000000000000000000000000000000000000000000081526004018080602001828103825260118152602001807f756e7361746973666965642073746f636b00000000000000000000000000000081525060200191505060405180910390fd5b6040518060e0016040528060055481526020018881526020018781526020018681526020018581526020018481526020018381525060036000600554815260200190815260200160002060008201518160000155602082015181600101908051906020019062000b3292919062000bc4565b50604082015181600201908051906020019062000b5192919062000bc4565b50606082015181600301908051906020019062000b7092919062000bc4565b50608082015181600401908051906020019062000b8f92919062000bc4565b5060a0820151816005015560c08201518160060155905050600560008154809291906001019190505590509695505050505050565b828054600181600116156101000203166002900490600052602060002090601f016020900481019282601f1062000c0757805160ff191683800117855562000c38565b8280016001018555821562000c38579182015b8281111562000c3757825182559160200191906001019062000c1a565b5b50905062000c47919062000c4b565b5090565b62000c7091905b8082111562000c6c57600081600090555060010162000c52565b5090565b90565b61323d8062000c836000396000f3fe6080604052600436106101145760003560e01c80638da5cb5b116100a0578063d89fd4b411610064578063d89fd4b414611319578063e0f6ef87146115d0578063e7572230146115fb578063e7bf7dfc1461164a578063fa09e6301461169957610114565b80638da5cb5b14610f875780639edded1114610fde578063a87d942c1461100c578063cd619f5814611037578063cfb869bf1461106257610114565b80636813b53b116100e75780636813b53b1461077b5780636e9960c31461098857806370bdabb7146109df5780637acc0b2014610d2b5780638588b2c514610f3857610114565b806334ea7734146101195780634a348da91461046357806353b628661461048e57806361655e12146104c6575b600080fd5b61044d600480360361010081101561013057600080fd5b810190808035906020019064010000000081111561014d57600080fd5b82018360208201111561015f57600080fd5b8035906020019184600183028401116401000000008311171561018157600080fd5b91908080601f016020809104026020016040519081016040528093929190818152602001838380828437600081840152601f19601f82011690508083019250505050505050919291929080359060200190929190803590602001906401000000008111156101ee57600080fd5b82018360208201111561020057600080fd5b8035906020019184600183028401116401000000008311171561022257600080fd5b91908080601f016020809104026020016040519081016040528093929190818152602001838380828437600081840152601f19601f8201169050808301925050505050505091929192908035906020019064010000000081111561028557600080fd5b82018360208201111561029757600080fd5b803590602001918460018302840111640100000000831117156102b957600080fd5b91908080601f016020809104026020016040519081016040528093929190818152602001838380828437600081840152601f19601f8201169050808301925050505050505091929192908035906020019064010000000081111561031c57600080fd5b82018360208201111561032e57600080fd5b8035906020019184600183028401116401000000008311171561035057600080fd5b91908080601f016020809104026020016040519081016040528093929190818152602001838380828437600081840152601f19601f820116905080830192505050505050509192919290803590602001906401000000008111156103b357600080fd5b8201836020820111156103c557600080fd5b803590602001918460018302840111640100000000831117156103e757600080fd5b91908080601f016020809104026020016040519081016040528093929190818152602001838380828437600081840152601f19601f82011690508083019250505050505050919291929080359060200190929190803590602001909291905050506116ea565b6040518082815260200191505060405180910390f35b34801561046f57600080fd5b50610478611917565b6040518082815260200191505060405180910390f35b6104c4600480360360408110156104a457600080fd5b810190808035906020019092919080359060200190929190505050611921565b005b3480156104d257600080fd5b50610765600480360360c08110156104e957600080fd5b810190808035906020019064010000000081111561050657600080fd5b82018360208201111561051857600080fd5b8035906020019184600183028401116401000000008311171561053a57600080fd5b91908080601f016020809104026020016040519081016040528093929190818152602001838380828437600081840152601f19601f8201169050808301925050505050505091929192908035906020019064010000000081111561059d57600080fd5b8201836020820111156105af57600080fd5b803590602001918460018302840111640100000000831117156105d157600080fd5b91908080601f016020809104026020016040519081016040528093929190818152602001838380828437600081840152601f19601f8201169050808301925050505050505091929192908035906020019064010000000081111561063457600080fd5b82018360208201111561064657600080fd5b8035906020019184600183028401116401000000008311171561066857600080fd5b91908080601f016020809104026020016040519081016040528093929190818152602001838380828437600081840152601f19601f820116905080830192505050505050509192919290803590602001906401000000008111156106cb57600080fd5b8201836020820111156106dd57600080fd5b803590602001918460018302840111640100000000831117156106ff57600080fd5b91908080601f016020809104026020016040519081016040528093929190818152602001838380828437600081840152601f19601f8201169050808301925050505050505091929192908035906020019092919080359060200190929190505050611a68565b6040518082815260200191505060405180910390f35b34801561078757600080fd5b506107b46004803603602081101561079e57600080fd5b8101908080359060200190929190505050611d16565b604051808881526020018060200180602001806020018060200187815260200186815260200185810385528b818151815260200191508051906020019080838360005b838110156108125780820151818401526020810190506107f7565b50505050905090810190601f16801561083f5780820380516001836020036101000a031916815260200191505b5085810384528a818151815260200191508051906020019080838360005b8381101561087857808201518184015260208101905061085d565b50505050905090810190601f1680156108a55780820380516001836020036101000a031916815260200191505b50858103835289818151815260200191508051906020019080838360005b838110156108de5780820151818401526020810190506108c3565b50505050905090810190601f16801561090b5780820380516001836020036101000a031916815260200191505b50858103825288818151815260200191508051906020019080838360005b83811015610944578082015181840152602081019050610929565b50505050905090810190601f1680156109715780820380516001836020036101000a031916815260200191505b509b50505050505050505050505060405180910390f35b34801561099457600080fd5b5061099d611fe1565b604051808273ffffffffffffffffffffffffffffffffffffffff1673ffffffffffffffffffffffffffffffffffffffff16815260200191505060405180910390f35b3480156109eb57600080fd5b50610d15600480360360e0811015610a0257600080fd5b8101908080359060200190640100000000811115610a1f57600080fd5b820183602082011115610a3157600080fd5b80359060200191846001830284011164010000000083111715610a5357600080fd5b91908080601f016020809104026020016040519081016040528093929190818152602001838380828437600081840152601f19601f8201169050808301925050505050505091929192908035906020019092919080359060200190640100000000811115610ac057600080fd5b820183602082011115610ad257600080fd5b80359060200191846001830284011164010000000083111715610af457600080fd5b91908080601f016020809104026020016040519081016040528093929190818152602001838380828437600081840152601f19601f82011690508083019250505050505050919291929080359060200190640100000000811115610b5757600080fd5b820183602082011115610b6957600080fd5b80359060200191846001830284011164010000000083111715610b8b57600080fd5b91908080601f016020809104026020016040519081016040528093929190818152602001838380828437600081840152601f19601f82011690508083019250505050505050919291929080359060200190640100000000811115610bee57600080fd5b820183602082011115610c0057600080fd5b80359060200191846001830284011164010000000083111715610c2257600080fd5b91908080601f016020809104026020016040519081016040528093929190818152602001838380828437600081840152601f19601f82011690508083019250505050505050919291929080359060200190640100000000811115610c8557600080fd5b820183602082011115610c9757600080fd5b80359060200191846001830284011164010000000083111715610cb957600080fd5b91908080601f016020809104026020016040519081016040528093929190818152602001838380828437600081840152601f19601f8201169050808301925050505050505091929192908035906020019092919050505061200b565b6040518082815260200191505060405180910390f35b348015610d3757600080fd5b50610d6460048036036020811015610d4e57600080fd5b8101908080359060200190929190505050612284565b604051808881526020018060200180602001806020018060200187815260200186815260200185810385528b818151815260200191508051906020019080838360005b83811015610dc2578082015181840152602081019050610da7565b50505050905090810190601f168015610def5780820380516001836020036101000a031916815260200191505b5085810384528a818151815260200191508051906020019080838360005b83811015610e28578082015181840152602081019050610e0d565b50505050905090810190601f168015610e555780820380516001836020036101000a031916815260200191505b50858103835289818151815260200191508051906020019080838360005b83811015610e8e578082015181840152602081019050610e73565b50505050905090810190601f168015610ebb5780820380516001836020036101000a031916815260200191505b50858103825288818151815260200191508051906020019080838360005b83811015610ef4578082015181840152602081019050610ed9565b50505050905090810190601f168015610f215780820380516001836020036101000a031916815260200191505b509b50505050505050505050505060405180910390f35b348015610f4457600080fd5b50610f7160048036036020811015610f5b57600080fd5b8101908080359060200190929190505050612526565b6040518082815260200191505060405180910390f35b348015610f9357600080fd5b50610f9c612648565b604051808273ffffffffffffffffffffffffffffffffffffffff1673ffffffffffffffffffffffffffffffffffffffff16815260200191505060405180910390f35b61100a60048036036020811015610ff457600080fd5b810190808035906020019092919050505061266d565b005b34801561101857600080fd5b50611021612803565b6040518082815260200191505060405180910390f35b34801561104357600080fd5b5061104c61280d565b6040518082815260200191505060405180910390f35b34801561106e57600080fd5b5061109b6004803603602081101561108557600080fd5b8101908080359060200190929190505050612813565b604051808b8152602001806020018a815260200180602001806020018060200180602001898152602001881515151581526020018773ffffffffffffffffffffffffffffffffffffffff1673ffffffffffffffffffffffffffffffffffffffff16815260200186810386528f818151815260200191508051906020019080838360005b8381101561113957808201518184015260208101905061111e565b50505050905090810190601f1680156111665780820380516001836020036101000a031916815260200191505b5086810385528d818151815260200191508051906020019080838360005b8381101561119f578082015181840152602081019050611184565b50505050905090810190601f1680156111cc5780820380516001836020036101000a031916815260200191505b5086810384528c818151815260200191508051906020019080838360005b838110156112055780820151818401526020810190506111ea565b50505050905090810190601f1680156112325780820380516001836020036101000a031916815260200191505b5086810383528b818151815260200191508051906020019080838360005b8381101561126b578082015181840152602081019050611250565b50505050905090810190601f1680156112985780820380516001836020036101000a031916815260200191505b5086810382528a818151815260200191508051906020019080838360005b838110156112d15780820151818401526020810190506112b6565b50505050905090810190601f1680156112fe5780820380516001836020036101000a031916815260200191505b509f5050505050505050505050505050505060405180910390f35b34801561132557600080fd5b506113526004803603602081101561133c57600080fd5b8101908080359060200190929190505050612b8c565b604051808b8152602001806020018a8152602001806020018060200180602001898152602001881515151581526020018773ffffffffffffffffffffffffffffffffffffffff1673ffffffffffffffffffffffffffffffffffffffff1681526020018060200186810386528f818151815260200191508051906020019080838360005b838110156113f05780820151818401526020810190506113d5565b50505050905090810190601f16801561141d5780820380516001836020036101000a031916815260200191505b5086810385528d818151815260200191508051906020019080838360005b8381101561145657808201518184015260208101905061143b565b50505050905090810190601f1680156114835780820380516001836020036101000a031916815260200191505b5086810384528c818151815260200191508051906020019080838360005b838110156114bc5780820151818401526020810190506114a1565b50505050905090810190601f1680156114e95780820380516001836020036101000a031916815260200191505b5086810383528b818151815260200191508051906020019080838360005b83811015611522578082015181840152602081019050611507565b50505050905090810190601f16801561154f5780820380516001836020036101000a031916815260200191505b50868103825287818151815260200191508051906020019080838360005b8381101561158857808201518184015260208101905061156d565b50505050905090810190601f1680156115b55780820380516001836020036101000a031916815260200191505b509f5050505050505050505050505050505060405180910390f35b3480156115dc57600080fd5b506115e5612f59565b6040518082815260200191505060405180910390f35b34801561160757600080fd5b506116346004803603602081101561161e57600080fd5b8101908080359060200190929190505050612f5f565b6040518082815260200191505060405180910390f35b34801561165657600080fd5b506116836004803603602081101561166d57600080fd5b8101908080359060200190929190505050612fa0565b6040518082815260200191505060405180910390f35b3480156116a557600080fd5b506116e8600480360360208110156116bc57600080fd5b81019080803573ffffffffffffffffffffffffffffffffffffffff169060200190929190505050612fe1565b005b600081341015611762576040517f08c379a00000000000000000000000000000000000000000000000000000000081526004018080602001828103825260108152602001807f496e73756666696369656e74206665650000000000000000000000000000000081525060200191505060405180910390fd5b60046000815480929190600101919050555060405180610140016040528060045481526020018a8152602001898152602001888152602001878152602001868152602001858152602001848152602001600015158152602001600073ffffffffffffffffffffffffffffffffffffffff16815250600260006004548152602001908152602001600020600082015181600001556020820151816001019080519060200190611811929190613163565b50604082015181600201556060820151816003019080519060200190611838929190613163565b506080820151816004019080519060200190611855929190613163565b5060a0820151816005019080519060200190611872929190613163565b5060c082015181600601908051906020019061188f929190613163565b5060e082015181600701556101008201518160080160006101000a81548160ff0219169083151502179055506101208201518160080160016101000a81548173ffffffffffffffffffffffffffffffffffffffff021916908373ffffffffffffffffffffffffffffffffffffffff160217905550905050600454905098975050505050505050565b6000600554905090565b6000821015801561193457506005548211155b61193d57600080fd5b600060036000848152602001908152602001600020905060008282600601540310156119d1576040517f08c379a00000000000000000000000000000000000000000000000000000000081526004018080602001828103825260108152602001807f53746f636b206e6f7420656e6f7567680000000000000000000000000000000081525060200191505060405180910390fd5b8060050154816006015402341015611a51576040517f08c379a00000000000000000000000000000000000000000000000000000000081526004018080602001828103825260128152602001807f496e73756666696369656e742066756e6473000000000000000000000000000081525060200191505060405180910390fd5b818160060160008282540392505081905550505050565b6000600160009054906101000a900473ffffffffffffffffffffffffffffffffffffffff1673ffffffffffffffffffffffffffffffffffffffff163373ffffffffffffffffffffffffffffffffffffffff1614611b2d576040517f08c379a00000000000000000000000000000000000000000000000000000000081526004018080602001828103825260118152602001807f596f7520617265206e6f742061646d696e00000000000000000000000000000081525060200191505060405180910390fd5b60008311611ba3576040517f08c379a00000000000000000000000000000000000000000000000000000000081526004018080602001828103825260118152602001807f756e73617469736669656420707269636500000000000000000000000000000081525060200191505060405180910390fd5b6000821015611c1a576040517f08c379a00000000000000000000000000000000000000000000000000000000081526004018080602001828103825260118152602001807f756e7361746973666965642073746f636b00000000000000000000000000000081525060200191505060405180910390fd5b6040518060e00160405280600554815260200188815260200187815260200186815260200185815260200184815260200183815250600360006005548152602001908152602001600020600082015181600001556020820151816001019080519060200190611c8a929190613163565b506040820151816002019080519060200190611ca7929190613163565b506060820151816003019080519060200190611cc4929190613163565b506080820151816004019080519060200190611ce1929190613163565b5060a0820151816005015560c08201518160060155905050600560008154809291906001019190505590509695505050505050565b60006060806060806000806000600360008a8152602001908152602001600020905080600001548160010182600201836003018460040185600501548660060154858054600181600116156101000203166002900480601f016020809104026020016040519081016040528092919081815260200182805460018160011615610100020316600290048015611dec5780601f10611dc157610100808354040283529160200191611dec565b820191906000526020600020905b815481529060010190602001808311611dcf57829003601f168201915b50505050509550848054600181600116156101000203166002900480601f016020809104026020016040519081016040528092919081815260200182805460018160011615610100020316600290048015611e885780601f10611e5d57610100808354040283529160200191611e88565b820191906000526020600020905b815481529060010190602001808311611e6b57829003601f168201915b50505050509450838054600181600116156101000203166002900480601f016020809104026020016040519081016040528092919081815260200182805460018160011615610100020316600290048015611f245780601f10611ef957610100808354040283529160200191611f24565b820191906000526020600020905b815481529060010190602001808311611f0757829003601f168201915b50505050509350828054600181600116156101000203166002900480601f016020809104026020016040519081016040528092919081815260200182805460018160011615610100020316600290048015611fc05780601f10611f9557610100808354040283529160200191611fc0565b820191906000526020600020905b815481529060010190602001808311611fa357829003601f168201915b50505050509250975097509750975097509750975050919395979092949650565b6000600160009054906101000a900473ffffffffffffffffffffffffffffffffffffffff16905090565b6000600160009054906101000a900473ffffffffffffffffffffffffffffffffffffffff1673ffffffffffffffffffffffffffffffffffffffff163373ffffffffffffffffffffffffffffffffffffffff16146120d0576040517f08c379a00000000000000000000000000000000000000000000000000000000081526004018080602001828103825260118152602001807f596f7520617265206e6f742061646d696e00000000000000000000000000000081525060200191505060405180910390fd5b6004600081548092919060010191905055506040518061014001604052806004548152602001898152602001888152602001878152602001868152602001858152602001848152602001838152602001600015158152602001600073ffffffffffffffffffffffffffffffffffffffff1681525060026000600454815260200190815260200160002060008201518160000155602082015181600101908051906020019061217f929190613163565b506040820151816002015560608201518160030190805190602001906121a6929190613163565b5060808201518160040190805190602001906121c3929190613163565b5060a08201518160050190805190602001906121e0929190613163565b5060c08201518160060190805190602001906121fd929190613163565b5060e082015181600701556101008201518160080160006101000a81548160ff0219169083151502179055506101208201518160080160016101000a81548173ffffffffffffffffffffffffffffffffffffffff021916908373ffffffffffffffffffffffffffffffffffffffff1602179055509050506004549050979650505050505050565b6003602052806000526040600020600091509050806000015490806001018054600181600116156101000203166002900480601f0160208091040260200160405190810160405280929190818152602001828054600181600116156101000203166002900480156123365780601f1061230b57610100808354040283529160200191612336565b820191906000526020600020905b81548152906001019060200180831161231957829003601f168201915b505050505090806002018054600181600116156101000203166002900480601f0160208091040260200160405190810160405280929190818152602001828054600181600116156101000203166002900480156123d45780601f106123a9576101008083540402835291602001916123d4565b820191906000526020600020905b8154815290600101906020018083116123b757829003601f168201915b505050505090806003018054600181600116156101000203166002900480601f0160208091040260200160405190810160405280929190818152602001828054600181600116156101000203166002900480156124725780601f1061244757610100808354040283529160200191612472565b820191906000526020600020905b81548152906001019060200180831161245557829003601f168201915b505050505090806004018054600181600116156101000203166002900480601f0160208091040260200160405190810160405280929190818152602001828054600181600116156101000203166002900480156125105780601f106124e557610100808354040283529160200191612510565b820191906000526020600020905b8154815290600101906020018083116124f357829003601f168201915b5050505050908060050154908060060154905087565b600080821015801561253a57506004548211155b61254357600080fd5b60006002600084815260200190815260200160002090508060080160009054906101000a900460ff16156125df576040517f08c379a000000000000000000000000000000000000000000000000000000000815260040180806020018281038252601b8152602001807f546869732070657420697320616c7265616479206164706f746564000000000081525060200191505060405180910390fd5b60018160080160006101000a81548160ff021916908315150217905550338160080160016101000a81548173ffffffffffffffffffffffffffffffffffffffff021916908373ffffffffffffffffffffffffffffffffffffffff16021790555082915050919050565b6000809054906101000a900473ffffffffffffffffffffffffffffffffffffffff1681565b6000811015801561268057506004548111155b61268957600080fd5b60006002600083815260200190815260200160002090508060080160009054906101000a900460ff1615612725576040517f08c379a00000000000000000000000000000000000000000000000000000000081526004018080602001828103825260188152602001807f546869732070657420697320616c726561647920736f6c64000000000000000081525060200191505060405180910390fd5b806007015434101561279f576040517f08c379a00000000000000000000000000000000000000000000000000000000081526004018080602001828103825260128152602001807f496e73756666696369656e742066756e6473000000000000000000000000000081525060200191505060405180910390fd5b60018160080160006101000a81548160ff021916908315150217905550338160080160016101000a81548173ffffffffffffffffffffffffffffffffffffffff021916908373ffffffffffffffffffffffffffffffffffffffff1602179055505050565b6000600454905090565b60045481565b6002602052806000526040600020600091509050806000015490806001018054600181600116156101000203166002900480601f0160208091040260200160405190810160405280929190818152602001828054600181600116156101000203166002900480156128c55780601f1061289a576101008083540402835291602001916128c5565b820191906000526020600020905b8154815290600101906020018083116128a857829003601f168201915b505050505090806002015490806003018054600181600116156101000203166002900480601f0160208091040260200160405190810160405280929190818152602001828054600181600116156101000203166002900480156129695780601f1061293e57610100808354040283529160200191612969565b820191906000526020600020905b81548152906001019060200180831161294c57829003601f168201915b505050505090806004018054600181600116156101000203166002900480601f016020809104026020016040519081016040528092919081815260200182805460018160011615610100020316600290048015612a075780601f106129dc57610100808354040283529160200191612a07565b820191906000526020600020905b8154815290600101906020018083116129ea57829003601f168201915b505050505090806005018054600181600116156101000203166002900480601f016020809104026020016040519081016040528092919081815260200182805460018160011615610100020316600290048015612aa55780601f10612a7a57610100808354040283529160200191612aa5565b820191906000526020600020905b815481529060010190602001808311612a8857829003601f168201915b505050505090806006018054600181600116156101000203166002900480601f016020809104026020016040519081016040528092919081815260200182805460018160011615610100020316600290048015612b435780601f10612b1857610100808354040283529160200191612b43565b820191906000526020600020905b815481529060010190602001808311612b2657829003601f168201915b5050505050908060070154908060080160009054906101000a900460ff16908060080160019054906101000a900473ffffffffffffffffffffffffffffffffffffffff1690508a565b60006060600060608060606000806000606060008b10158015612bb157506004548b11155b612bba57600080fd5b6000600260008d81526020019081526020016000209050806000015481600101826002015483600401846005018560060186600701548760080160009054906101000a900460ff168860080160019054906101000a900473ffffffffffffffffffffffffffffffffffffffff1689600301888054600181600116156101000203166002900480601f016020809104026020016040519081016040528092919081815260200182805460018160011615610100020316600290048015612cc05780601f10612c9557610100808354040283529160200191612cc0565b820191906000526020600020905b815481529060010190602001808311612ca357829003601f168201915b50505050509850868054600181600116156101000203166002900480601f016020809104026020016040519081016040528092919081815260200182805460018160011615610100020316600290048015612d5c5780601f10612d3157610100808354040283529160200191612d5c565b820191906000526020600020905b815481529060010190602001808311612d3f57829003601f168201915b50505050509650858054600181600116156101000203166002900480601f016020809104026020016040519081016040528092919081815260200182805460018160011615610100020316600290048015612df85780601f10612dcd57610100808354040283529160200191612df8565b820191906000526020600020905b815481529060010190602001808311612ddb57829003601f168201915b50505050509550848054600181600116156101000203166002900480601f016020809104026020016040519081016040528092919081815260200182805460018160011615610100020316600290048015612e945780601f10612e6957610100808354040283529160200191612e94565b820191906000526020600020905b815481529060010190602001808311612e7757829003601f168201915b50505050509450808054600181600116156101000203166002900480601f016020809104026020016040519081016040528092919081815260200182805460018160011615610100020316600290048015612f305780601f10612f0557610100808354040283529160200191612f30565b820191906000526020600020905b815481529060010190602001808311612f1357829003601f168201915b505050505090509a509a509a509a509a509a509a509a509a509a50509193959799509193959799565b60055481565b6000808210158015612f7357506004548211155b612f7c57600080fd5b60006002600084815260200190815260200160002090508060070154915050919050565b6000808210158015612fb457506005548211155b612fbd57600080fd5b60006003600084815260200190815260200160002090508060050154915050919050565b6000809054906101000a900473ffffffffffffffffffffffffffffffffffffffff1673ffffffffffffffffffffffffffffffffffffffff163373ffffffffffffffffffffffffffffffffffffffff16146130a3576040517f08c379a00000000000000000000000000000000000000000000000000000000081526004018080602001828103825260098152602001807f4e6f74206f776e6572000000000000000000000000000000000000000000000081525060200191505060405180910390fd5b60004711613119576040517f08c379a000000000000000000000000000000000000000000000000000000000815260040180806020018281038252600d8152602001807f656d7074792062616c616e63650000000000000000000000000000000000000081525060200191505060405180910390fd5b8073ffffffffffffffffffffffffffffffffffffffff166108fc479081150290604051600060405180830381858888f1935050505015801561315f573d6000803e3d6000fd5b5050565b828054600181600116156101000203166002900490600052602060002090601f016020900481019282601f106131a457805160ff19168380011785556131d2565b828001600101855582156131d2579182015b828111156131d15782518255916020019190600101906131b6565b5b5090506131df91906131e3565b5090565b61320591905b808211156132015760008160009055506001016131e9565b5090565b9056fea265627a7a72315820065c46b09f900f29b0e0f1472ba151a4ba0f905888a7c8763708ef9b1801b3da64736f6c63430005100032",
  "source": "pragma solidity >=0.4.22 <0.9.0;\r\n\r\ncontract PetShop {\r\n    address public owner;\r\n    address private _admin;\r\n\r\n    //struct of a pet's info, picture = ipfs url\r\n    struct Pet {\r\n        uint id;\r\n        string name;\r\n        uint age;\r\n        string sex;\r\n        string breed;\r\n        string location;\r\n        string photo;\r\n        uint price;\r\n        bool isSold;\r\n        address owner;\r\n    }\r\n    \r\n    struct Product {\r\n        uint pId;\r\n        string pName;\r\n        string pCategory;\r\n        string pBrand;\r\n        string picture;\r\n        uint pPrice;\r\n        uint stock;\r\n    }\r\n\r\n    mapping(uint => Pet) public pets;\r\n    mapping(uint => Product) public products;\r\n\r\n    uint public petCount;\r\n    uint public productCount;\r\n\r\n    constructor() public {\r\n        petCount = 0;\r\n        productCount = 0;\r\n        owner = msg.sender;\r\n        _admin = msg.sender;\r\n        addProduct(\"Brown Rice Recipe Dog Food\",\"Food&Treats\",\"Performatrin\",\"images/product1.jpg\",1*10000,1000);\r\n        addProduct(\"Homestead Harvest Cat Food\",\"Food&Treats\",\"ACANA\",\"images/product2.jpg\",2*10000,200);\r\n        addProduct(\"Grey & White Hooded Litter Box\",\"Litter&Accessories\",\"Savic\",\"images/product3.jpg\",2*10000,20);\r\n        addProduct(\"Giant Litter Scoop\",\"Litter&Accessories\",\"Van Ness\",\"images/product4.jpg\",2*10000,66);\r\n        addProduct(\"NatureMates Bird Teaser\",\"Supplies\",\"Jump\",\"images/product5.jpg\",5*1000,88);\r\n        addProduct(\"Felix Hammock Cat Condo\",\"Supplies\",\"Jump\",\"images/product6.jpg\",2*10000,500);\r\n        addProduct(\"Wellness exams\",\"Service\",\"Pet Good Life\",\"images/product7.jpg\",2*100000,8888);\r\n        addProduct(\"Vaccinations\",\"Service\",\"Pet Good Life\",\"images/product8.jpg\",2*10000,3);\r\n        addProduct(\"Teeth cleaning and dentistry\",\"Service\",\"Pet Good Life\",\"images/product9.jpg\",6*10000,17);\r\n    }\r\n\r\n    function addProduct(string memory pName, string memory pCategory, string memory pBrand, string memory picture, uint pPrice, uint stock) public onlyAdmin returns (uint){\r\n        require (pPrice > 0,\"unsatisfied price\");\r\n        require (stock >= 0,\"unsatisfied stock\");\r\n        products[productCount] = Product(productCount, pName, pCategory, pBrand, picture, pPrice, stock);\r\n        return productCount++;\r\n    }\r\n    \r\n    function registerPet(string memory _name, uint _age, string memory _sex, string memory _breed, \r\n    string memory _location, string memory _photo, uint _price, uint _fee) public payable returns (uint) {\r\n        require(msg.value >= _fee, \"Insufficient fee\");\r\n        petCount++;\r\n        pets[petCount] = Pet(petCount, _name, _age, _sex, _breed, _location, _photo, _price, false, address(0));\r\n        return petCount;\r\n    }\r\n\r\n    function registerPetAdmin(string memory _name, uint _age, string memory _sex, string memory _breed, \r\n    string memory _location, string memory _photo, uint _price) public onlyAdmin returns (uint) {\r\n        petCount++;\r\n        pets[petCount] = Pet(petCount, _name, _age, _sex, _breed, _location, _photo, _price, false, address(0));\r\n        return petCount;\r\n    }\r\n\r\n    function buyPet(uint _id) external payable {\r\n        require(_id >= 0 && _id<= petCount);\r\n        Pet storage pet = pets[_id];\r\n        require(!pet.isSold, \"This pet is already sold\");\r\n        require(msg.value >= pet.price, \"Insufficient funds\");\r\n        pet.isSold = true;\r\n        pet.owner = msg.sender;\r\n    }\r\n    function buyProduct(uint pId, uint amount) external payable {\r\n        require(pId >= 0 && pId <= productCount);\r\n        Product storage product = products[pId];\r\n        require(product.stock-amount >= 0, \"Stock not enough\");\r\n        require(msg.value >= product.stock * product.pPrice, \"Insufficient funds\");\r\n        product.stock -= amount;\r\n    }\r\n\r\n    function adopt(uint _id) external returns (uint) {\r\n        require(_id >= 0 && _id <= petCount);\r\n        Pet storage pet = pets[_id];\r\n        require(!pet.isSold, \"This pet is already adpoted\");\r\n        pet.isSold = true;\r\n        pet.owner = msg.sender;\r\n        return _id;\r\n    }\r\n\r\n    function getCount() view external returns (uint) {\r\n        return petCount;\r\n    }\r\n    function getProductCount() view external returns (uint){\r\n        return productCount;\r\n    }\r\n\r\n    // Retrieving one pet's details\r\n    function getPetDetails(uint petId) public view returns (uint, string memory, uint, string memory, string memory,\r\n        string memory, uint, bool, address, string memory) {\r\n        require(petId >= 0 && petId <= petCount);\r\n        Pet storage p = pets[petId];\r\n        return (p.id, p.name, p.age, p.breed, p.location, p.photo, p.price, p.isSold, p.owner, p.sex);\r\n    }\r\n    function getProductDetails(uint pId) public view returns (uint, string memory, string memory, string memory, string memory, uint, uint) {\r\n        Product storage product = products[pId];\r\n        return (product.pId, product.pName,product.pCategory,product.pBrand,product.picture,product.pPrice,product.stock);\r\n        // return product;\r\n    }\r\n\r\n    // Retrieving one pet's price\r\n    function getPrice(uint petId) public view returns (uint) {\r\n        require(petId >= 0 && petId <= petCount);\r\n        Pet storage p = pets[petId];\r\n        return p.price;\r\n    }\r\n    function getProductPrice(uint pId) public view returns (uint) {\r\n        require(pId >= 0 && pId <= productCount);\r\n        Product storage product = products[pId];\r\n        return product.pPrice;\r\n    }\r\n\r\n    modifier onlyOwner() {\r\n        require(msg.sender == owner, \"Not owner\");\r\n        _;\r\n    }\r\n    modifier onlyAdmin() {\r\n        require(msg.sender == _admin,\"You are not admin\");\r\n        _;\r\n    }\r\n    // function isAdmin() public view returns (bool){\r\n    //     return _admin == msg.sender;\r\n    // }\r\n    // function getSender() public view returns (address){\r\n    //     return msg.sender;\r\n    // }\r\n    function getAdmin() public view returns (address){\r\n        return _admin;\r\n    }\r\n\r\n    function withdrawAll(address payable _to) external onlyOwner{\r\n        require(address(this).balance > 0, \"empty balance\");\r\n        _to.transfer(address(this).balance);\r\n    }\r\n\r\n    \r\n}\r\n",
  "sourcePath": "C:\\Users\\xinyu\\Documents\\MyFiles\\U of T\\APS 1050\\Project\\Pet-Shop-Dapp\\contracts\\PetShop.sol",
  "compiler": {
    "name": "solc",
    "version": "0.5.16+commit.9c3226ce.Emscripten.clang"
  },
  "schemaVersion": "3.4.13",
  "updatedAt": "2023-04-11T21:55:13.757Z",
  "networkType": "ethereum",
  "devdoc": {
    "methods": {}
  },
  "userdoc": {
    "methods": {}
  }
}