{
  "contractName": "PetShop",
  "abi": [
    {
      "inputs": [],
      "payable": false,
      "stateMutability": "nonpayable",
      "type": "constructor"
    },
    {
      "constant": true,
      "inputs": [],
      "name": "owner",
      "outputs": [
        {
          "internalType": "address",
          "name": "",
          "type": "address"
        }
      ],
      "payable": false,
      "stateMutability": "view",
      "type": "function"
    },
    {
      "constant": true,
      "inputs": [],
      "name": "petCount",
      "outputs": [
        {
          "internalType": "uint256",
          "name": "",
          "type": "uint256"
        }
      ],
      "payable": false,
      "stateMutability": "view",
      "type": "function"
    },
    {
      "constant": true,
      "inputs": [
        {
          "internalType": "uint256",
          "name": "",
          "type": "uint256"
        }
      ],
      "name": "pets",
      "outputs": [
        {
          "internalType": "uint256",
          "name": "id",
          "type": "uint256"
        },
        {
          "internalType": "string",
          "name": "name",
          "type": "string"
        },
        {
          "internalType": "uint256",
          "name": "age",
          "type": "uint256"
        },
        {
          "internalType": "string",
          "name": "sex",
          "type": "string"
        },
        {
          "internalType": "string",
          "name": "breed",
          "type": "string"
        },
        {
          "internalType": "string",
          "name": "location",
          "type": "string"
        },
        {
          "internalType": "string",
          "name": "photo",
          "type": "string"
        },
        {
          "internalType": "uint256",
          "name": "price",
          "type": "uint256"
        },
        {
          "internalType": "bool",
          "name": "isSold",
          "type": "bool"
        },
        {
          "internalType": "address",
          "name": "owner",
          "type": "address"
        }
      ],
      "payable": false,
      "stateMutability": "view",
      "type": "function"
    },
    {
      "constant": true,
      "inputs": [],
      "name": "productCount",
      "outputs": [
        {
          "internalType": "uint256",
          "name": "",
          "type": "uint256"
        }
      ],
      "payable": false,
      "stateMutability": "view",
      "type": "function"
    },
    {
      "constant": true,
      "inputs": [
        {
          "internalType": "uint256",
          "name": "",
          "type": "uint256"
        }
      ],
      "name": "products",
      "outputs": [
        {
          "internalType": "uint256",
          "name": "pId",
          "type": "uint256"
        },
        {
          "internalType": "string",
          "name": "pName",
          "type": "string"
        },
        {
          "internalType": "string",
          "name": "pCategory",
          "type": "string"
        },
        {
          "internalType": "string",
          "name": "pBrand",
          "type": "string"
        },
        {
          "internalType": "string",
          "name": "picture",
          "type": "string"
        },
        {
          "internalType": "uint256",
          "name": "pPrice",
          "type": "uint256"
        },
        {
          "internalType": "uint256",
          "name": "stock",
          "type": "uint256"
        }
      ],
      "payable": false,
      "stateMutability": "view",
      "type": "function"
    },
    {
      "constant": false,
      "inputs": [
        {
          "internalType": "string",
          "name": "pName",
          "type": "string"
        },
        {
          "internalType": "string",
          "name": "pCategory",
          "type": "string"
        },
        {
          "internalType": "string",
          "name": "pBrand",
          "type": "string"
        },
        {
          "internalType": "string",
          "name": "picture",
          "type": "string"
        },
        {
          "internalType": "uint256",
          "name": "pPrice",
          "type": "uint256"
        },
        {
          "internalType": "uint256",
          "name": "stock",
          "type": "uint256"
        }
      ],
      "name": "addProduct",
      "outputs": [
        {
          "internalType": "uint256",
          "name": "",
          "type": "uint256"
        }
      ],
      "payable": true,
      "stateMutability": "payable",
      "type": "function"
    },
    {
      "constant": false,
      "inputs": [
        {
          "internalType": "string",
          "name": "_name",
          "type": "string"
        },
        {
          "internalType": "uint256",
          "name": "_age",
          "type": "uint256"
        },
        {
          "internalType": "string",
          "name": "_sex",
          "type": "string"
        },
        {
          "internalType": "string",
          "name": "_breed",
          "type": "string"
        },
        {
          "internalType": "string",
          "name": "_location",
          "type": "string"
        },
        {
          "internalType": "string",
          "name": "_photo",
          "type": "string"
        },
        {
          "internalType": "uint256",
          "name": "_price",
          "type": "uint256"
        },
        {
          "internalType": "uint256",
          "name": "_fee",
          "type": "uint256"
        }
      ],
      "name": "registerPet",
      "outputs": [
        {
          "internalType": "uint256",
          "name": "",
          "type": "uint256"
        }
      ],
      "payable": true,
      "stateMutability": "payable",
      "type": "function"
    },
    {
      "constant": false,
      "inputs": [
        {
          "internalType": "uint256",
          "name": "_id",
          "type": "uint256"
        }
      ],
      "name": "buyPet",
      "outputs": [],
      "payable": true,
      "stateMutability": "payable",
      "type": "function"
    },
    {
      "constant": false,
      "inputs": [
        {
          "internalType": "uint256",
          "name": "pId",
          "type": "uint256"
        },
        {
          "internalType": "uint256",
          "name": "amount",
          "type": "uint256"
        }
      ],
      "name": "buyProduct",
      "outputs": [],
      "payable": true,
      "stateMutability": "payable",
      "type": "function"
    },
    {
      "constant": false,
      "inputs": [
        {
          "internalType": "uint256",
          "name": "_id",
          "type": "uint256"
        }
      ],
      "name": "adopt",
      "outputs": [
        {
          "internalType": "uint256",
          "name": "",
          "type": "uint256"
        }
      ],
      "payable": false,
      "stateMutability": "nonpayable",
      "type": "function"
    },
    {
      "constant": true,
      "inputs": [],
      "name": "getCount",
      "outputs": [
        {
          "internalType": "uint256",
          "name": "",
          "type": "uint256"
        }
      ],
      "payable": false,
      "stateMutability": "view",
      "type": "function"
    },
    {
      "constant": true,
      "inputs": [],
      "name": "getProductCount",
      "outputs": [
        {
          "internalType": "uint256",
          "name": "",
          "type": "uint256"
        }
      ],
      "payable": false,
      "stateMutability": "view",
      "type": "function"
    },
    {
      "constant": true,
      "inputs": [
        {
          "internalType": "uint256",
          "name": "petId",
          "type": "uint256"
        }
      ],
      "name": "getPetDetails",
      "outputs": [
        {
          "internalType": "uint256",
          "name": "",
          "type": "uint256"
        },
        {
          "internalType": "string",
          "name": "",
          "type": "string"
        },
        {
          "internalType": "uint256",
          "name": "",
          "type": "uint256"
        },
        {
          "internalType": "string",
          "name": "",
          "type": "string"
        },
        {
          "internalType": "string",
          "name": "",
          "type": "string"
        },
        {
          "internalType": "string",
          "name": "",
          "type": "string"
        },
        {
          "internalType": "uint256",
          "name": "",
          "type": "uint256"
        },
        {
          "internalType": "bool",
          "name": "",
          "type": "bool"
        },
        {
          "internalType": "address",
          "name": "",
          "type": "address"
        },
        {
          "internalType": "string",
          "name": "",
          "type": "string"
        }
      ],
      "payable": false,
      "stateMutability": "view",
      "type": "function"
    },
    {
      "constant": true,
      "inputs": [
        {
          "internalType": "uint256",
          "name": "pId",
          "type": "uint256"
        }
      ],
      "name": "getProductDetails",
      "outputs": [
        {
          "internalType": "uint256",
          "name": "",
          "type": "uint256"
        },
        {
          "internalType": "string",
          "name": "",
          "type": "string"
        },
        {
          "internalType": "string",
          "name": "",
          "type": "string"
        },
        {
          "internalType": "string",
          "name": "",
          "type": "string"
        },
        {
          "internalType": "string",
          "name": "",
          "type": "string"
        },
        {
          "internalType": "uint256",
          "name": "",
          "type": "uint256"
        },
        {
          "internalType": "uint256",
          "name": "",
          "type": "uint256"
        }
      ],
      "payable": false,
      "stateMutability": "view",
      "type": "function"
    },
    {
      "constant": true,
      "inputs": [
        {
          "internalType": "uint256",
          "name": "petId",
          "type": "uint256"
        }
      ],
      "name": "getPrice",
      "outputs": [
        {
          "internalType": "uint256",
          "name": "",
          "type": "uint256"
        }
      ],
      "payable": false,
      "stateMutability": "view",
      "type": "function"
    },
    {
      "constant": true,
      "inputs": [
        {
          "internalType": "uint256",
          "name": "pId",
          "type": "uint256"
        }
      ],
      "name": "getProductPrice",
      "outputs": [
        {
          "internalType": "uint256",
          "name": "",
          "type": "uint256"
        }
      ],
      "payable": false,
      "stateMutability": "view",
      "type": "function"
    },
    {
      "constant": true,
      "inputs": [],
      "name": "getAdmin",
      "outputs": [
        {
          "internalType": "address",
          "name": "",
          "type": "address"
        }
      ],
      "payable": false,
      "stateMutability": "view",
      "type": "function"
    },
    {
      "constant": false,
      "inputs": [
        {
          "internalType": "address payable",
          "name": "_to",
          "type": "address"
        }
      ],
      "name": "withdrawAll",
      "outputs": [],
      "payable": false,
      "stateMutability": "nonpayable",
      "type": "function"
    }
  ],
  "bytecode": "0x60806040523480156200001157600080fd5b5060006004819055506000600581905550336000806101000a81548173ffffffffffffffffffffffffffffffffffffffff021916908373ffffffffffffffffffffffffffffffffffffffff16021790555033600160006101000a81548173ffffffffffffffffffffffffffffffffffffffff021916908373ffffffffffffffffffffffffffffffffffffffff160217905550620001926040518060400160405280601a81526020017f42726f776e20526963652052656369706520446f6720466f6f640000000000008152506040518060400160405280600b81526020017f466f6f64265472656174730000000000000000000000000000000000000000008152506040518060400160405280600c81526020017f506572666f726d617472696e00000000000000000000000000000000000000008152506040518060400160405280601381526020017f696d616765732f70726f64756374312e6a706700000000000000000000000000815250620186a06103e86200091960201b60201c565b50620002826040518060400160405280601a81526020017f486f6d65737465616420486172766573742043617420466f6f640000000000008152506040518060400160405280600b81526020017f466f6f64265472656174730000000000000000000000000000000000000000008152506040518060400160405280600581526020017f4143414e410000000000000000000000000000000000000000000000000000008152506040518060400160405280601381526020017f696d616765732f70726f64756374322e6a70670000000000000000000000000081525062030d406103e86200091960201b60201c565b50620003726040518060400160405280601e81526020017f47726579202620576869746520486f6f646564204c697474657220426f7800008152506040518060400160405280601281526020017f4c6974746572264163636573736f7269657300000000000000000000000000008152506040518060400160405280600581526020017f53617669630000000000000000000000000000000000000000000000000000008152506040518060400160405280601381526020017f696d616765732f70726f64756374332e6a70670000000000000000000000000081525062030d406103e86200091960201b60201c565b50620004626040518060400160405280601281526020017f4769616e74204c69747465722053636f6f7000000000000000000000000000008152506040518060400160405280601281526020017f4c6974746572264163636573736f7269657300000000000000000000000000008152506040518060400160405280600881526020017f56616e204e6573730000000000000000000000000000000000000000000000008152506040518060400160405280601381526020017f696d616765732f70726f64756374342e6a70670000000000000000000000000081525062030d406103e86200091960201b60201c565b50620005526040518060400160405280601781526020017f4e61747572654d617465732042697264205465617365720000000000000000008152506040518060400160405280600881526020017f537570706c6965730000000000000000000000000000000000000000000000008152506040518060400160405280600481526020017f4a756d70000000000000000000000000000000000000000000000000000000008152506040518060400160405280601381526020017f696d616765732f70726f64756374352e6a70670000000000000000000000000081525062030d406103e86200091960201b60201c565b50620006426040518060400160405280601781526020017f46656c69782048616d6d6f636b2043617420436f6e646f0000000000000000008152506040518060400160405280600881526020017f537570706c6965730000000000000000000000000000000000000000000000008152506040518060400160405280600481526020017f4a756d70000000000000000000000000000000000000000000000000000000008152506040518060400160405280601381526020017f696d616765732f70726f64756374362e6a70670000000000000000000000000081525062030d406103e86200091960201b60201c565b50620007326040518060400160405280600e81526020017f57656c6c6e657373206578616d730000000000000000000000000000000000008152506040518060400160405280600781526020017f53657276696365000000000000000000000000000000000000000000000000008152506040518060400160405280600d81526020017f50657420476f6f64204c696665000000000000000000000000000000000000008152506040518060400160405280601381526020017f696d616765732f70726f64756374372e6a70670000000000000000000000000081525062030d406103e86200091960201b60201c565b50620008226040518060400160405280600c81526020017f56616363696e6174696f6e7300000000000000000000000000000000000000008152506040518060400160405280600781526020017f53657276696365000000000000000000000000000000000000000000000000008152506040518060400160405280600d81526020017f50657420476f6f64204c696665000000000000000000000000000000000000008152506040518060400160405280601381526020017f696d616765732f70726f64756374382e6a70670000000000000000000000000081525062030d406103e86200091960201b60201c565b50620009126040518060400160405280601c81526020017f546565746820636c65616e696e6720616e642064656e746973747279000000008152506040518060400160405280600781526020017f53657276696365000000000000000000000000000000000000000000000000008152506040518060400160405280600d81526020017f50657420476f6f64204c696665000000000000000000000000000000000000008152506040518060400160405280601381526020017f696d616765732f70726f64756374392e6a70670000000000000000000000000081525062030d406103e86200091960201b60201c565b5062000c81565b6000600160009054906101000a900473ffffffffffffffffffffffffffffffffffffffff1673ffffffffffffffffffffffffffffffffffffffff163373ffffffffffffffffffffffffffffffffffffffff1614620009df576040517f08c379a00000000000000000000000000000000000000000000000000000000081526004018080602001828103825260118152602001807f596f7520617265206e6f742061646d696e00000000000000000000000000000081525060200191505060405180910390fd5b6000831162000a56576040517f08c379a00000000000000000000000000000000000000000000000000000000081526004018080602001828103825260118152602001807f756e73617469736669656420707269636500000000000000000000000000000081525060200191505060405180910390fd5b600082101562000ace576040517f08c379a00000000000000000000000000000000000000000000000000000000081526004018080602001828103825260118152602001807f756e7361746973666965642073746f636b00000000000000000000000000000081525060200191505060405180910390fd5b6040518060e0016040528060055481526020018881526020018781526020018681526020018581526020018481526020018381525060036000600554815260200190815260200160002060008201518160000155602082015181600101908051906020019062000b4092919062000bd2565b50604082015181600201908051906020019062000b5f92919062000bd2565b50606082015181600301908051906020019062000b7e92919062000bd2565b50608082015181600401908051906020019062000b9d92919062000bd2565b5060a0820151816005015560c08201518160060155905050600560008154809291906001019190505590509695505050505050565b828054600181600116156101000203166002900490600052602060002090601f016020900481019282601f1062000c1557805160ff191683800117855562000c46565b8280016001018555821562000c46579182015b8281111562000c4557825182559160200191906001019062000c28565b5b50905062000c55919062000c59565b5090565b62000c7e91905b8082111562000c7a57600081600090555060010162000c60565b5090565b90565b612c608062000c916000396000f3fe6080604052600436106101095760003560e01c80639edded1111610095578063d89fd4b411610064578063d89fd4b414610fb5578063e0f6ef871461126c578063e757223014611297578063e7bf7dfc146112e6578063fa09e6301461133557610109565b80639edded1114610c7a578063a87d942c14610ca8578063cd619f5814610cd3578063cfb869bf14610cfe57610109565b80636813b53b116100dc5780636813b53b146107635780636e9960c3146109705780637acc0b20146109c75780638588b2c514610bd45780638da5cb5b14610c2357610109565b806334ea77341461010e5780634a348da91461045857806353b628661461048357806361655e12146104bb575b600080fd5b610442600480360361010081101561012557600080fd5b810190808035906020019064010000000081111561014257600080fd5b82018360208201111561015457600080fd5b8035906020019184600183028401116401000000008311171561017657600080fd5b91908080601f016020809104026020016040519081016040528093929190818152602001838380828437600081840152601f19601f82011690508083019250505050505050919291929080359060200190929190803590602001906401000000008111156101e357600080fd5b8201836020820111156101f557600080fd5b8035906020019184600183028401116401000000008311171561021757600080fd5b91908080601f016020809104026020016040519081016040528093929190818152602001838380828437600081840152601f19601f8201169050808301925050505050505091929192908035906020019064010000000081111561027a57600080fd5b82018360208201111561028c57600080fd5b803590602001918460018302840111640100000000831117156102ae57600080fd5b91908080601f016020809104026020016040519081016040528093929190818152602001838380828437600081840152601f19601f8201169050808301925050505050505091929192908035906020019064010000000081111561031157600080fd5b82018360208201111561032357600080fd5b8035906020019184600183028401116401000000008311171561034557600080fd5b91908080601f016020809104026020016040519081016040528093929190818152602001838380828437600081840152601f19601f820116905080830192505050505050509192919290803590602001906401000000008111156103a857600080fd5b8201836020820111156103ba57600080fd5b803590602001918460018302840111640100000000831117156103dc57600080fd5b91908080601f016020809104026020016040519081016040528093929190818152602001838380828437600081840152601f19601f8201169050808301925050505050505091929192908035906020019092919080359060200190929190505050611386565b6040518082815260200191505060405180910390f35b34801561046457600080fd5b5061046d6115b3565b6040518082815260200191505060405180910390f35b6104b96004803603604081101561049957600080fd5b8101908080359060200190929190803590602001909291905050506115bd565b005b61074d600480360360c08110156104d157600080fd5b81019080803590602001906401000000008111156104ee57600080fd5b82018360208201111561050057600080fd5b8035906020019184600183028401116401000000008311171561052257600080fd5b91908080601f016020809104026020016040519081016040528093929190818152602001838380828437600081840152601f19601f8201169050808301925050505050505091929192908035906020019064010000000081111561058557600080fd5b82018360208201111561059757600080fd5b803590602001918460018302840111640100000000831117156105b957600080fd5b91908080601f016020809104026020016040519081016040528093929190818152602001838380828437600081840152601f19601f8201169050808301925050505050505091929192908035906020019064010000000081111561061c57600080fd5b82018360208201111561062e57600080fd5b8035906020019184600183028401116401000000008311171561065057600080fd5b91908080601f016020809104026020016040519081016040528093929190818152602001838380828437600081840152601f19601f820116905080830192505050505050509192919290803590602001906401000000008111156106b357600080fd5b8201836020820111156106c557600080fd5b803590602001918460018302840111640100000000831117156106e757600080fd5b91908080601f016020809104026020016040519081016040528093929190818152602001838380828437600081840152601f19601f8201169050808301925050505050505091929192908035906020019092919080359060200190929190505050611704565b6040518082815260200191505060405180910390f35b34801561076f57600080fd5b5061079c6004803603602081101561078657600080fd5b81019080803590602001909291905050506119b2565b604051808881526020018060200180602001806020018060200187815260200186815260200185810385528b818151815260200191508051906020019080838360005b838110156107fa5780820151818401526020810190506107df565b50505050905090810190601f1680156108275780820380516001836020036101000a031916815260200191505b5085810384528a818151815260200191508051906020019080838360005b83811015610860578082015181840152602081019050610845565b50505050905090810190601f16801561088d5780820380516001836020036101000a031916815260200191505b50858103835289818151815260200191508051906020019080838360005b838110156108c65780820151818401526020810190506108ab565b50505050905090810190601f1680156108f35780820380516001836020036101000a031916815260200191505b50858103825288818151815260200191508051906020019080838360005b8381101561092c578082015181840152602081019050610911565b50505050905090810190601f1680156109595780820380516001836020036101000a031916815260200191505b509b50505050505050505050505060405180910390f35b34801561097c57600080fd5b50610985611c7d565b604051808273ffffffffffffffffffffffffffffffffffffffff1673ffffffffffffffffffffffffffffffffffffffff16815260200191505060405180910390f35b3480156109d357600080fd5b50610a00600480360360208110156109ea57600080fd5b8101908080359060200190929190505050611ca7565b604051808881526020018060200180602001806020018060200187815260200186815260200185810385528b818151815260200191508051906020019080838360005b83811015610a5e578082015181840152602081019050610a43565b50505050905090810190601f168015610a8b5780820380516001836020036101000a031916815260200191505b5085810384528a818151815260200191508051906020019080838360005b83811015610ac4578082015181840152602081019050610aa9565b50505050905090810190601f168015610af15780820380516001836020036101000a031916815260200191505b50858103835289818151815260200191508051906020019080838360005b83811015610b2a578082015181840152602081019050610b0f565b50505050905090810190601f168015610b575780820380516001836020036101000a031916815260200191505b50858103825288818151815260200191508051906020019080838360005b83811015610b90578082015181840152602081019050610b75565b50505050905090810190601f168015610bbd5780820380516001836020036101000a031916815260200191505b509b50505050505050505050505060405180910390f35b348015610be057600080fd5b50610c0d60048036036020811015610bf757600080fd5b8101908080359060200190929190505050611f49565b6040518082815260200191505060405180910390f35b348015610c2f57600080fd5b50610c3861206b565b604051808273ffffffffffffffffffffffffffffffffffffffff1673ffffffffffffffffffffffffffffffffffffffff16815260200191505060405180910390f35b610ca660048036036020811015610c9057600080fd5b8101908080359060200190929190505050612090565b005b348015610cb457600080fd5b50610cbd612226565b6040518082815260200191505060405180910390f35b348015610cdf57600080fd5b50610ce8612230565b6040518082815260200191505060405180910390f35b348015610d0a57600080fd5b50610d3760048036036020811015610d2157600080fd5b8101908080359060200190929190505050612236565b604051808b8152602001806020018a815260200180602001806020018060200180602001898152602001881515151581526020018773ffffffffffffffffffffffffffffffffffffffff1673ffffffffffffffffffffffffffffffffffffffff16815260200186810386528f818151815260200191508051906020019080838360005b83811015610dd5578082015181840152602081019050610dba565b50505050905090810190601f168015610e025780820380516001836020036101000a031916815260200191505b5086810385528d818151815260200191508051906020019080838360005b83811015610e3b578082015181840152602081019050610e20565b50505050905090810190601f168015610e685780820380516001836020036101000a031916815260200191505b5086810384528c818151815260200191508051906020019080838360005b83811015610ea1578082015181840152602081019050610e86565b50505050905090810190601f168015610ece5780820380516001836020036101000a031916815260200191505b5086810383528b818151815260200191508051906020019080838360005b83811015610f07578082015181840152602081019050610eec565b50505050905090810190601f168015610f345780820380516001836020036101000a031916815260200191505b5086810382528a818151815260200191508051906020019080838360005b83811015610f6d578082015181840152602081019050610f52565b50505050905090810190601f168015610f9a5780820380516001836020036101000a031916815260200191505b509f5050505050505050505050505050505060405180910390f35b348015610fc157600080fd5b50610fee60048036036020811015610fd857600080fd5b81019080803590602001909291905050506125af565b604051808b8152602001806020018a8152602001806020018060200180602001898152602001881515151581526020018773ffffffffffffffffffffffffffffffffffffffff1673ffffffffffffffffffffffffffffffffffffffff1681526020018060200186810386528f818151815260200191508051906020019080838360005b8381101561108c578082015181840152602081019050611071565b50505050905090810190601f1680156110b95780820380516001836020036101000a031916815260200191505b5086810385528d818151815260200191508051906020019080838360005b838110156110f25780820151818401526020810190506110d7565b50505050905090810190601f16801561111f5780820380516001836020036101000a031916815260200191505b5086810384528c818151815260200191508051906020019080838360005b8381101561115857808201518184015260208101905061113d565b50505050905090810190601f1680156111855780820380516001836020036101000a031916815260200191505b5086810383528b818151815260200191508051906020019080838360005b838110156111be5780820151818401526020810190506111a3565b50505050905090810190601f1680156111eb5780820380516001836020036101000a031916815260200191505b50868103825287818151815260200191508051906020019080838360005b83811015611224578082015181840152602081019050611209565b50505050905090810190601f1680156112515780820380516001836020036101000a031916815260200191505b509f5050505050505050505050505050505060405180910390f35b34801561127857600080fd5b5061128161297c565b6040518082815260200191505060405180910390f35b3480156112a357600080fd5b506112d0600480360360208110156112ba57600080fd5b8101908080359060200190929190505050612982565b6040518082815260200191505060405180910390f35b3480156112f257600080fd5b5061131f6004803603602081101561130957600080fd5b81019080803590602001909291905050506129c3565b6040518082815260200191505060405180910390f35b34801561134157600080fd5b506113846004803603602081101561135857600080fd5b81019080803573ffffffffffffffffffffffffffffffffffffffff169060200190929190505050612a04565b005b6000813410156113fe576040517f08c379a00000000000000000000000000000000000000000000000000000000081526004018080602001828103825260108152602001807f496e73756666696369656e74206665650000000000000000000000000000000081525060200191505060405180910390fd5b60046000815480929190600101919050555060405180610140016040528060045481526020018a8152602001898152602001888152602001878152602001868152602001858152602001848152602001600015158152602001600073ffffffffffffffffffffffffffffffffffffffff168152506002600060045481526020019081526020016000206000820151816000015560208201518160010190805190602001906114ad929190612b86565b506040820151816002015560608201518160030190805190602001906114d4929190612b86565b5060808201518160040190805190602001906114f1929190612b86565b5060a082015181600501908051906020019061150e929190612b86565b5060c082015181600601908051906020019061152b929190612b86565b5060e082015181600701556101008201518160080160006101000a81548160ff0219169083151502179055506101208201518160080160016101000a81548173ffffffffffffffffffffffffffffffffffffffff021916908373ffffffffffffffffffffffffffffffffffffffff160217905550905050600454905098975050505050505050565b6000600554905090565b600082101580156115d057506005548211155b6115d957600080fd5b6000600360008481526020019081526020016000209050600082826006015403101561166d576040517f08c379a00000000000000000000000000000000000000000000000000000000081526004018080602001828103825260108152602001807f53746f636b206e6f7420656e6f7567680000000000000000000000000000000081525060200191505060405180910390fd5b80600501548160060154023410156116ed576040517f08c379a00000000000000000000000000000000000000000000000000000000081526004018080602001828103825260128152602001807f496e73756666696369656e742066756e6473000000000000000000000000000081525060200191505060405180910390fd5b818160060160008282540392505081905550505050565b6000600160009054906101000a900473ffffffffffffffffffffffffffffffffffffffff1673ffffffffffffffffffffffffffffffffffffffff163373ffffffffffffffffffffffffffffffffffffffff16146117c9576040517f08c379a00000000000000000000000000000000000000000000000000000000081526004018080602001828103825260118152602001807f596f7520617265206e6f742061646d696e00000000000000000000000000000081525060200191505060405180910390fd5b6000831161183f576040517f08c379a00000000000000000000000000000000000000000000000000000000081526004018080602001828103825260118152602001807f756e73617469736669656420707269636500000000000000000000000000000081525060200191505060405180910390fd5b60008210156118b6576040517f08c379a00000000000000000000000000000000000000000000000000000000081526004018080602001828103825260118152602001807f756e7361746973666965642073746f636b00000000000000000000000000000081525060200191505060405180910390fd5b6040518060e00160405280600554815260200188815260200187815260200186815260200185815260200184815260200183815250600360006005548152602001908152602001600020600082015181600001556020820151816001019080519060200190611926929190612b86565b506040820151816002019080519060200190611943929190612b86565b506060820151816003019080519060200190611960929190612b86565b50608082015181600401908051906020019061197d929190612b86565b5060a0820151816005015560c08201518160060155905050600560008154809291906001019190505590509695505050505050565b60006060806060806000806000600360008a8152602001908152602001600020905080600001548160010182600201836003018460040185600501548660060154858054600181600116156101000203166002900480601f016020809104026020016040519081016040528092919081815260200182805460018160011615610100020316600290048015611a885780601f10611a5d57610100808354040283529160200191611a88565b820191906000526020600020905b815481529060010190602001808311611a6b57829003601f168201915b50505050509550848054600181600116156101000203166002900480601f016020809104026020016040519081016040528092919081815260200182805460018160011615610100020316600290048015611b245780601f10611af957610100808354040283529160200191611b24565b820191906000526020600020905b815481529060010190602001808311611b0757829003601f168201915b50505050509450838054600181600116156101000203166002900480601f016020809104026020016040519081016040528092919081815260200182805460018160011615610100020316600290048015611bc05780601f10611b9557610100808354040283529160200191611bc0565b820191906000526020600020905b815481529060010190602001808311611ba357829003601f168201915b50505050509350828054600181600116156101000203166002900480601f016020809104026020016040519081016040528092919081815260200182805460018160011615610100020316600290048015611c5c5780601f10611c3157610100808354040283529160200191611c5c565b820191906000526020600020905b815481529060010190602001808311611c3f57829003601f168201915b50505050509250975097509750975097509750975050919395979092949650565b6000600160009054906101000a900473ffffffffffffffffffffffffffffffffffffffff16905090565b6003602052806000526040600020600091509050806000015490806001018054600181600116156101000203166002900480601f016020809104026020016040519081016040528092919081815260200182805460018160011615610100020316600290048015611d595780601f10611d2e57610100808354040283529160200191611d59565b820191906000526020600020905b815481529060010190602001808311611d3c57829003601f168201915b505050505090806002018054600181600116156101000203166002900480601f016020809104026020016040519081016040528092919081815260200182805460018160011615610100020316600290048015611df75780601f10611dcc57610100808354040283529160200191611df7565b820191906000526020600020905b815481529060010190602001808311611dda57829003601f168201915b505050505090806003018054600181600116156101000203166002900480601f016020809104026020016040519081016040528092919081815260200182805460018160011615610100020316600290048015611e955780601f10611e6a57610100808354040283529160200191611e95565b820191906000526020600020905b815481529060010190602001808311611e7857829003601f168201915b505050505090806004018054600181600116156101000203166002900480601f016020809104026020016040519081016040528092919081815260200182805460018160011615610100020316600290048015611f335780601f10611f0857610100808354040283529160200191611f33565b820191906000526020600020905b815481529060010190602001808311611f1657829003601f168201915b5050505050908060050154908060060154905087565b6000808210158015611f5d57506004548211155b611f6657600080fd5b60006002600084815260200190815260200160002090508060080160009054906101000a900460ff1615612002576040517f08c379a000000000000000000000000000000000000000000000000000000000815260040180806020018281038252601b8152602001807f546869732070657420697320616c7265616479206164706f746564000000000081525060200191505060405180910390fd5b60018160080160006101000a81548160ff021916908315150217905550338160080160016101000a81548173ffffffffffffffffffffffffffffffffffffffff021916908373ffffffffffffffffffffffffffffffffffffffff16021790555082915050919050565b6000809054906101000a900473ffffffffffffffffffffffffffffffffffffffff1681565b600081101580156120a357506004548111155b6120ac57600080fd5b60006002600083815260200190815260200160002090508060080160009054906101000a900460ff1615612148576040517f08c379a00000000000000000000000000000000000000000000000000000000081526004018080602001828103825260188152602001807f546869732070657420697320616c726561647920736f6c64000000000000000081525060200191505060405180910390fd5b80600701543410156121c2576040517f08c379a00000000000000000000000000000000000000000000000000000000081526004018080602001828103825260128152602001807f496e73756666696369656e742066756e6473000000000000000000000000000081525060200191505060405180910390fd5b60018160080160006101000a81548160ff021916908315150217905550338160080160016101000a81548173ffffffffffffffffffffffffffffffffffffffff021916908373ffffffffffffffffffffffffffffffffffffffff1602179055505050565b6000600454905090565b60045481565b6002602052806000526040600020600091509050806000015490806001018054600181600116156101000203166002900480601f0160208091040260200160405190810160405280929190818152602001828054600181600116156101000203166002900480156122e85780601f106122bd576101008083540402835291602001916122e8565b820191906000526020600020905b8154815290600101906020018083116122cb57829003601f168201915b505050505090806002015490806003018054600181600116156101000203166002900480601f01602080910402602001604051908101604052809291908181526020018280546001816001161561010002031660029004801561238c5780601f106123615761010080835404028352916020019161238c565b820191906000526020600020905b81548152906001019060200180831161236f57829003601f168201915b505050505090806004018054600181600116156101000203166002900480601f01602080910402602001604051908101604052809291908181526020018280546001816001161561010002031660029004801561242a5780601f106123ff5761010080835404028352916020019161242a565b820191906000526020600020905b81548152906001019060200180831161240d57829003601f168201915b505050505090806005018054600181600116156101000203166002900480601f0160208091040260200160405190810160405280929190818152602001828054600181600116156101000203166002900480156124c85780601f1061249d576101008083540402835291602001916124c8565b820191906000526020600020905b8154815290600101906020018083116124ab57829003601f168201915b505050505090806006018054600181600116156101000203166002900480601f0160208091040260200160405190810160405280929190818152602001828054600181600116156101000203166002900480156125665780601f1061253b57610100808354040283529160200191612566565b820191906000526020600020905b81548152906001019060200180831161254957829003601f168201915b5050505050908060070154908060080160009054906101000a900460ff16908060080160019054906101000a900473ffffffffffffffffffffffffffffffffffffffff1690508a565b60006060600060608060606000806000606060008b101580156125d457506004548b11155b6125dd57600080fd5b6000600260008d81526020019081526020016000209050806000015481600101826002015483600401846005018560060186600701548760080160009054906101000a900460ff168860080160019054906101000a900473ffffffffffffffffffffffffffffffffffffffff1689600301888054600181600116156101000203166002900480601f0160208091040260200160405190810160405280929190818152602001828054600181600116156101000203166002900480156126e35780601f106126b8576101008083540402835291602001916126e3565b820191906000526020600020905b8154815290600101906020018083116126c657829003601f168201915b50505050509850868054600181600116156101000203166002900480601f01602080910402602001604051908101604052809291908181526020018280546001816001161561010002031660029004801561277f5780601f106127545761010080835404028352916020019161277f565b820191906000526020600020905b81548152906001019060200180831161276257829003601f168201915b50505050509650858054600181600116156101000203166002900480601f01602080910402602001604051908101604052809291908181526020018280546001816001161561010002031660029004801561281b5780601f106127f05761010080835404028352916020019161281b565b820191906000526020600020905b8154815290600101906020018083116127fe57829003601f168201915b50505050509550848054600181600116156101000203166002900480601f0160208091040260200160405190810160405280929190818152602001828054600181600116156101000203166002900480156128b75780601f1061288c576101008083540402835291602001916128b7565b820191906000526020600020905b81548152906001019060200180831161289a57829003601f168201915b50505050509450808054600181600116156101000203166002900480601f0160208091040260200160405190810160405280929190818152602001828054600181600116156101000203166002900480156129535780601f1061292857610100808354040283529160200191612953565b820191906000526020600020905b81548152906001019060200180831161293657829003601f168201915b505050505090509a509a509a509a509a509a509a509a509a509a50509193959799509193959799565b60055481565b600080821015801561299657506004548211155b61299f57600080fd5b60006002600084815260200190815260200160002090508060070154915050919050565b60008082101580156129d757506005548211155b6129e057600080fd5b60006003600084815260200190815260200160002090508060050154915050919050565b6000809054906101000a900473ffffffffffffffffffffffffffffffffffffffff1673ffffffffffffffffffffffffffffffffffffffff163373ffffffffffffffffffffffffffffffffffffffff1614612ac6576040517f08c379a00000000000000000000000000000000000000000000000000000000081526004018080602001828103825260098152602001807f4e6f74206f776e6572000000000000000000000000000000000000000000000081525060200191505060405180910390fd5b60004711612b3c576040517f08c379a000000000000000000000000000000000000000000000000000000000815260040180806020018281038252600d8152602001807f656d7074792062616c616e63650000000000000000000000000000000000000081525060200191505060405180910390fd5b8073ffffffffffffffffffffffffffffffffffffffff166108fc479081150290604051600060405180830381858888f19350505050158015612b82573d6000803e3d6000fd5b5050565b828054600181600116156101000203166002900490600052602060002090601f016020900481019282601f10612bc757805160ff1916838001178555612bf5565b82800160010185558215612bf5579182015b82811115612bf4578251825591602001919060010190612bd9565b5b509050612c029190612c06565b5090565b612c2891905b80821115612c24576000816000905550600101612c0c565b5090565b9056fea265627a7a72315820762210431fde6d55b03fdbc44f19d8bbb9438d84235467d98a95dc689a2214a764736f6c63430005100032",
  "source": "pragma solidity >=0.4.22 <0.9.0;\r\n\r\ncontract PetShop {\r\n    address public owner;\r\n    address private _admin;\r\n\r\n    //struct of a pet's info, picture = ipfs url\r\n    struct Pet {\r\n        uint id;\r\n        string name;\r\n        uint age;\r\n        string sex;\r\n        string breed;\r\n        string location;\r\n        string photo;\r\n        uint price;\r\n        bool isSold;\r\n        address owner;\r\n    }\r\n    \r\n    struct Product {\r\n        uint pId;\r\n        string pName;\r\n        string pCategory;\r\n        string pBrand;\r\n        string picture;\r\n        uint pPrice;\r\n        uint stock;\r\n    }\r\n\r\n    mapping(uint => Pet) public pets;\r\n    mapping(uint => Product) public products;\r\n\r\n    uint public petCount;\r\n    uint public productCount;\r\n\r\n    constructor() public {\r\n        petCount = 0;\r\n        productCount = 0;\r\n        owner = msg.sender;\r\n        _admin = msg.sender;\r\n        addProduct(\"Brown Rice Recipe Dog Food\",\"Food&Treats\",\"Performatrin\",\"images/product1.jpg\",1*100000,1000);\r\n        addProduct(\"Homestead Harvest Cat Food\",\"Food&Treats\",\"ACANA\",\"images/product2.jpg\",2*100000,1000);\r\n        addProduct(\"Grey & White Hooded Litter Box\",\"Litter&Accessories\",\"Savic\",\"images/product3.jpg\",2*100000,1000);\r\n        addProduct(\"Giant Litter Scoop\",\"Litter&Accessories\",\"Van Ness\",\"images/product4.jpg\",2*100000,1000);\r\n        addProduct(\"NatureMates Bird Teaser\",\"Supplies\",\"Jump\",\"images/product5.jpg\",2*100000,1000);\r\n        addProduct(\"Felix Hammock Cat Condo\",\"Supplies\",\"Jump\",\"images/product6.jpg\",2*100000,1000);\r\n        addProduct(\"Wellness exams\",\"Service\",\"Pet Good Life\",\"images/product7.jpg\",2*100000,1000);\r\n        addProduct(\"Vaccinations\",\"Service\",\"Pet Good Life\",\"images/product8.jpg\",2*100000,1000);\r\n        addProduct(\"Teeth cleaning and dentistry\",\"Service\",\"Pet Good Life\",\"images/product9.jpg\",2*100000,1000);\r\n    }\r\n\r\n    function addProduct(string memory pName, string memory pCategory, string memory pBrand, string memory picture, uint pPrice, uint stock) public payable onlyAdmin returns (uint){\r\n        require (pPrice > 0,\"unsatisfied price\");\r\n        require (stock >= 0,\"unsatisfied stock\");\r\n        products[productCount] = Product(productCount, pName, pCategory, pBrand, picture, pPrice, stock);\r\n        return productCount++;\r\n    }\r\n    \r\n    function registerPet(string memory _name, uint _age, string memory _sex, string memory _breed, \r\n    string memory _location, string memory _photo, uint _price, uint _fee) public payable returns (uint) {\r\n        require(msg.value >= _fee, \"Insufficient fee\");\r\n        petCount++;\r\n        pets[petCount] = Pet(petCount, _name, _age, _sex, _breed, _location, _photo, _price, false, address(0));\r\n        return petCount;\r\n    }\r\n\r\n    function buyPet(uint _id) external payable {\r\n        require(_id >= 0 && _id<= petCount);\r\n        Pet storage pet = pets[_id];\r\n        require(!pet.isSold, \"This pet is already sold\");\r\n        require(msg.value >= pet.price, \"Insufficient funds\");\r\n        pet.isSold = true;\r\n        pet.owner = msg.sender;\r\n    }\r\n    function buyProduct(uint pId, uint amount) external payable {\r\n        require(pId >= 0 && pId <= productCount);\r\n        Product storage product = products[pId];\r\n        require(product.stock-amount >= 0, \"Stock not enough\");\r\n        require(msg.value >= product.stock * product.pPrice, \"Insufficient funds\");\r\n        product.stock -= amount;\r\n    }\r\n\r\n    function adopt(uint _id) external returns (uint) {\r\n        require(_id >= 0 && _id <= petCount);\r\n        Pet storage pet = pets[_id];\r\n        require(!pet.isSold, \"This pet is already adpoted\");\r\n        pet.isSold = true;\r\n        pet.owner = msg.sender;\r\n        return _id;\r\n    }\r\n\r\n    function getCount() view external returns (uint) {\r\n        return petCount;\r\n    }\r\n    function getProductCount() view external returns (uint){\r\n        return productCount;\r\n    }\r\n\r\n    // Retrieving one pet's details\r\n    function getPetDetails(uint petId) public view returns (uint, string memory, uint, string memory, string memory,\r\n        string memory, uint, bool, address, string memory) {\r\n        require(petId >= 0 && petId <= petCount);\r\n        Pet storage p = pets[petId];\r\n        return (p.id, p.name, p.age, p.breed, p.location, p.photo, p.price, p.isSold, p.owner, p.sex);\r\n    }\r\n    function getProductDetails(uint pId) public view returns (uint, string memory, string memory, string memory, string memory, uint, uint) {\r\n        Product storage product = products[pId];\r\n        return (product.pId, product.pName,product.pCategory,product.pBrand,product.picture,product.pPrice,product.stock);\r\n        // return product;\r\n    }\r\n\r\n    // Retrieving one pet's price\r\n    function getPrice(uint petId) public view returns (uint) {\r\n        require(petId >= 0 && petId <= petCount);\r\n        Pet storage p = pets[petId];\r\n        return p.price;\r\n    }\r\n    function getProductPrice(uint pId) public view returns (uint) {\r\n        require(pId >= 0 && pId <= productCount);\r\n        Product storage product = products[pId];\r\n        return product.pPrice;\r\n    }\r\n\r\n    modifier onlyOwner() {\r\n        require(msg.sender == owner, \"Not owner\");\r\n        _;\r\n    }\r\n    modifier onlyAdmin() {\r\n        require(msg.sender == _admin,\"You are not admin\");\r\n        _;\r\n    }\r\n    // function isAdmin() public view returns (bool){\r\n    //     return _admin == msg.sender;\r\n    // }\r\n    // function getSender() public view returns (address){\r\n    //     return msg.sender;\r\n    // }\r\n    function getAdmin() public view returns (address){\r\n        return _admin;\r\n    }\r\n\r\n    function withdrawAll(address payable _to) external onlyOwner{\r\n        require(address(this).balance > 0, \"empty balance\");\r\n        _to.transfer(address(this).balance);\r\n    }\r\n\r\n    \r\n}\r\n",
  "sourcePath": "C:\\Users\\xinyu\\Documents\\MyFiles\\U of T\\APS 1050\\Project\\Pet-Shop-Dapp\\contracts\\PetShop.sol",
  "compiler": {
    "name": "solc",
    "version": "0.5.16+commit.9c3226ce.Emscripten.clang"
  },
  "schemaVersion": "3.4.13",
  "updatedAt": "2023-04-11T01:31:07.844Z",
  "networkType": "ethereum",
  "devdoc": {
    "methods": {}
  },
  "userdoc": {
    "methods": {}
  }
}