{
  "contractName": "PetShop",
  "abi": [
    {
      "inputs": [],
      "payable": false,
      "stateMutability": "nonpayable",
      "type": "constructor"
    },
    {
      "constant": true,
      "inputs": [],
      "name": "owner",
      "outputs": [
        {
          "internalType": "address",
          "name": "",
          "type": "address"
        }
      ],
      "payable": false,
      "stateMutability": "view",
      "type": "function"
    },
    {
      "constant": true,
      "inputs": [],
      "name": "petCount",
      "outputs": [
        {
          "internalType": "uint256",
          "name": "",
          "type": "uint256"
        }
      ],
      "payable": false,
      "stateMutability": "view",
      "type": "function"
    },
    {
      "constant": true,
      "inputs": [
        {
          "internalType": "uint256",
          "name": "",
          "type": "uint256"
        }
      ],
      "name": "pets",
      "outputs": [
        {
          "internalType": "uint256",
          "name": "id",
          "type": "uint256"
        },
        {
          "internalType": "string",
          "name": "name",
          "type": "string"
        },
        {
          "internalType": "uint256",
          "name": "age",
          "type": "uint256"
        },
        {
          "internalType": "string",
          "name": "breed",
          "type": "string"
        },
        {
          "internalType": "string",
          "name": "location",
          "type": "string"
        },
        {
          "internalType": "string",
          "name": "photo",
          "type": "string"
        },
        {
          "internalType": "uint256",
          "name": "price",
          "type": "uint256"
        },
        {
          "internalType": "bool",
          "name": "isSold",
          "type": "bool"
        },
        {
          "internalType": "address",
          "name": "owner",
          "type": "address"
        }
      ],
      "payable": false,
      "stateMutability": "view",
      "type": "function"
    },
    {
      "constant": false,
      "inputs": [
        {
          "internalType": "string",
          "name": "_name",
          "type": "string"
        },
        {
          "internalType": "uint256",
          "name": "_age",
          "type": "uint256"
        },
        {
          "internalType": "string",
          "name": "_breed",
          "type": "string"
        },
        {
          "internalType": "string",
          "name": "_location",
          "type": "string"
        },
        {
          "internalType": "string",
          "name": "_photo",
          "type": "string"
        },
        {
          "internalType": "uint256",
          "name": "_price",
          "type": "uint256"
        },
        {
          "internalType": "uint256",
          "name": "_fee",
          "type": "uint256"
        }
      ],
      "name": "registerPet",
      "outputs": [
        {
          "internalType": "uint256",
          "name": "",
          "type": "uint256"
        }
      ],
      "payable": true,
      "stateMutability": "payable",
      "type": "function"
    },
    {
      "constant": false,
      "inputs": [
        {
          "internalType": "uint256",
          "name": "_id",
          "type": "uint256"
        }
      ],
      "name": "buyPet",
      "outputs": [],
      "payable": true,
      "stateMutability": "payable",
      "type": "function"
    },
    {
      "constant": false,
      "inputs": [
        {
          "internalType": "uint256",
          "name": "_id",
          "type": "uint256"
        }
      ],
      "name": "adopt",
      "outputs": [
        {
          "internalType": "uint256",
          "name": "",
          "type": "uint256"
        }
      ],
      "payable": false,
      "stateMutability": "nonpayable",
      "type": "function"
    },
    {
      "constant": true,
      "inputs": [],
      "name": "getCount",
      "outputs": [
        {
          "internalType": "uint256",
          "name": "",
          "type": "uint256"
        }
      ],
      "payable": false,
      "stateMutability": "view",
      "type": "function"
    },
    {
      "constant": true,
      "inputs": [
        {
          "internalType": "uint256",
          "name": "petId",
          "type": "uint256"
        }
      ],
      "name": "getPetDetails",
      "outputs": [
        {
          "internalType": "uint256",
          "name": "",
          "type": "uint256"
        },
        {
          "internalType": "string",
          "name": "",
          "type": "string"
        },
        {
          "internalType": "uint256",
          "name": "",
          "type": "uint256"
        },
        {
          "internalType": "string",
          "name": "",
          "type": "string"
        },
        {
          "internalType": "string",
          "name": "",
          "type": "string"
        },
        {
          "internalType": "string",
          "name": "",
          "type": "string"
        },
        {
          "internalType": "uint256",
          "name": "",
          "type": "uint256"
        },
        {
          "internalType": "bool",
          "name": "",
          "type": "bool"
        },
        {
          "internalType": "address",
          "name": "",
          "type": "address"
        }
      ],
      "payable": false,
      "stateMutability": "view",
      "type": "function"
    },
    {
      "constant": false,
      "inputs": [
        {
          "internalType": "address payable",
          "name": "_to",
          "type": "address"
        }
      ],
      "name": "withdrawAll",
      "outputs": [],
      "payable": false,
      "stateMutability": "nonpayable",
      "type": "function"
    }
  ],
  "bytecode": "0x608060405234801561001057600080fd5b506000600281905550336000806101000a81548173ffffffffffffffffffffffffffffffffffffffff021916908373ffffffffffffffffffffffffffffffffffffffff160217905550611686806100686000396000f3fe6080604052600436106100865760003560e01c8063a87d942c11610059578063a87d942c14610411578063cd619f581461043c578063cfb869bf14610467578063d89fd4b4146106b2578063fa09e630146108fd57610086565b806364da52bc1461008b5780638588b2c51461033d5780638da5cb5b1461038c5780639edded11146103e3575b600080fd5b610327600480360360e08110156100a157600080fd5b81019080803590602001906401000000008111156100be57600080fd5b8201836020820111156100d057600080fd5b803590602001918460018302840111640100000000831117156100f257600080fd5b91908080601f016020809104026020016040519081016040528093929190818152602001838380828437600081840152601f19601f820116905080830192505050505050509192919290803590602001909291908035906020019064010000000081111561015f57600080fd5b82018360208201111561017157600080fd5b8035906020019184600183028401116401000000008311171561019357600080fd5b91908080601f016020809104026020016040519081016040528093929190818152602001838380828437600081840152601f19601f820116905080830192505050505050509192919290803590602001906401000000008111156101f657600080fd5b82018360208201111561020857600080fd5b8035906020019184600183028401116401000000008311171561022a57600080fd5b91908080601f016020809104026020016040519081016040528093929190818152602001838380828437600081840152601f19601f8201169050808301925050505050505091929192908035906020019064010000000081111561028d57600080fd5b82018360208201111561029f57600080fd5b803590602001918460018302840111640100000000831117156102c157600080fd5b91908080601f016020809104026020016040519081016040528093929190818152602001838380828437600081840152601f19601f820116905080830192505050505050509192919290803590602001909291908035906020019092919050505061094e565b6040518082815260200191505060405180910390f35b34801561034957600080fd5b506103766004803603602081101561036057600080fd5b8101908080359060200190929190505050610b56565b6040518082815260200191505060405180910390f35b34801561039857600080fd5b506103a1610c78565b604051808273ffffffffffffffffffffffffffffffffffffffff1673ffffffffffffffffffffffffffffffffffffffff16815260200191505060405180910390f35b61040f600480360360208110156103f957600080fd5b8101908080359060200190929190505050610c9d565b005b34801561041d57600080fd5b50610426610e33565b6040518082815260200191505060405180910390f35b34801561044857600080fd5b50610451610e3d565b6040518082815260200191505060405180910390f35b34801561047357600080fd5b506104a06004803603602081101561048a57600080fd5b8101908080359060200190929190505050610e43565b604051808a815260200180602001898152602001806020018060200180602001888152602001871515151581526020018673ffffffffffffffffffffffffffffffffffffffff1673ffffffffffffffffffffffffffffffffffffffff16815260200185810385528d818151815260200191508051906020019080838360005b8381101561053a57808201518184015260208101905061051f565b50505050905090810190601f1680156105675780820380516001836020036101000a031916815260200191505b5085810384528b818151815260200191508051906020019080838360005b838110156105a0578082015181840152602081019050610585565b50505050905090810190601f1680156105cd5780820380516001836020036101000a031916815260200191505b5085810383528a818151815260200191508051906020019080838360005b838110156106065780820151818401526020810190506105eb565b50505050905090810190601f1680156106335780820380516001836020036101000a031916815260200191505b50858103825289818151815260200191508051906020019080838360005b8381101561066c578082015181840152602081019050610651565b50505050905090810190601f1680156106995780820380516001836020036101000a031916815260200191505b509d505050505050505050505050505060405180910390f35b3480156106be57600080fd5b506106eb600480360360208110156106d557600080fd5b810190808035906020019092919050505061111e565b604051808a815260200180602001898152602001806020018060200180602001888152602001871515151581526020018673ffffffffffffffffffffffffffffffffffffffff1673ffffffffffffffffffffffffffffffffffffffff16815260200185810385528d818151815260200191508051906020019080838360005b8381101561078557808201518184015260208101905061076a565b50505050905090810190601f1680156107b25780820380516001836020036101000a031916815260200191505b5085810384528b818151815260200191508051906020019080838360005b838110156107eb5780820151818401526020810190506107d0565b50505050905090810190601f1680156108185780820380516001836020036101000a031916815260200191505b5085810383528a818151815260200191508051906020019080838360005b83811015610851578082015181840152602081019050610836565b50505050905090810190601f16801561087e5780820380516001836020036101000a031916815260200191505b50858103825289818151815260200191508051906020019080838360005b838110156108b757808201518184015260208101905061089c565b50505050905090810190601f1680156108e45780820380516001836020036101000a031916815260200191505b509d505050505050505050505050505060405180910390f35b34801561090957600080fd5b5061094c6004803603602081101561092057600080fd5b81019080803573ffffffffffffffffffffffffffffffffffffffff16906020019092919050505061142a565b005b6000813410156109c6576040517f08c379a00000000000000000000000000000000000000000000000000000000081526004018080602001828103825260108152602001807f496e73756666696369656e74206665650000000000000000000000000000000081525060200191505060405180910390fd5b6002600081548092919060010191905055506040518061012001604052806002548152602001898152602001888152602001878152602001868152602001858152602001848152602001600015158152602001600073ffffffffffffffffffffffffffffffffffffffff16815250600160006002548152602001908152602001600020600082015181600001556020820151816001019080519060200190610a6f9291906115ac565b50604082015181600201556060820151816003019080519060200190610a969291906115ac565b506080820151816004019080519060200190610ab39291906115ac565b5060a0820151816005019080519060200190610ad09291906115ac565b5060c0820151816006015560e08201518160070160006101000a81548160ff0219169083151502179055506101008201518160070160016101000a81548173ffffffffffffffffffffffffffffffffffffffff021916908373ffffffffffffffffffffffffffffffffffffffff1602179055509050506002549050979650505050505050565b6000808210158015610b6a57506002548211155b610b7357600080fd5b60006001600084815260200190815260200160002090508060070160009054906101000a900460ff1615610c0f576040517f08c379a000000000000000000000000000000000000000000000000000000000815260040180806020018281038252601b8152602001807f546869732070657420697320616c7265616479206164706f746564000000000081525060200191505060405180910390fd5b60018160070160006101000a81548160ff021916908315150217905550338160070160016101000a81548173ffffffffffffffffffffffffffffffffffffffff021916908373ffffffffffffffffffffffffffffffffffffffff16021790555082915050919050565b6000809054906101000a900473ffffffffffffffffffffffffffffffffffffffff1681565b60008110158015610cb057506002548111155b610cb957600080fd5b60006001600083815260200190815260200160002090508060070160009054906101000a900460ff1615610d55576040517f08c379a00000000000000000000000000000000000000000000000000000000081526004018080602001828103825260188152602001807f546869732070657420697320616c726561647920736f6c64000000000000000081525060200191505060405180910390fd5b8060060154341015610dcf576040517f08c379a00000000000000000000000000000000000000000000000000000000081526004018080602001828103825260128152602001807f496e73756666696369656e742066756e6473000000000000000000000000000081525060200191505060405180910390fd5b60018160070160006101000a81548160ff021916908315150217905550338160070160016101000a81548173ffffffffffffffffffffffffffffffffffffffff021916908373ffffffffffffffffffffffffffffffffffffffff1602179055505050565b6000600254905090565b60025481565b6001602052806000526040600020600091509050806000015490806001018054600181600116156101000203166002900480601f016020809104026020016040519081016040528092919081815260200182805460018160011615610100020316600290048015610ef55780601f10610eca57610100808354040283529160200191610ef5565b820191906000526020600020905b815481529060010190602001808311610ed857829003601f168201915b505050505090806002015490806003018054600181600116156101000203166002900480601f016020809104026020016040519081016040528092919081815260200182805460018160011615610100020316600290048015610f995780601f10610f6e57610100808354040283529160200191610f99565b820191906000526020600020905b815481529060010190602001808311610f7c57829003601f168201915b505050505090806004018054600181600116156101000203166002900480601f0160208091040260200160405190810160405280929190818152602001828054600181600116156101000203166002900480156110375780601f1061100c57610100808354040283529160200191611037565b820191906000526020600020905b81548152906001019060200180831161101a57829003601f168201915b505050505090806005018054600181600116156101000203166002900480601f0160208091040260200160405190810160405280929190818152602001828054600181600116156101000203166002900480156110d55780601f106110aa576101008083540402835291602001916110d5565b820191906000526020600020905b8154815290600101906020018083116110b857829003601f168201915b5050505050908060060154908060070160009054906101000a900460ff16908060070160019054906101000a900473ffffffffffffffffffffffffffffffffffffffff16905089565b6000606060006060806060600080600080600160008c81526020019081526020016000209050806000015481600101826002015483600301846004018560050186600601548760070160009054906101000a900460ff168860070160019054906101000a900473ffffffffffffffffffffffffffffffffffffffff16878054600181600116156101000203166002900480601f01602080910402602001604051908101604052809291908181526020018280546001816001161561010002031660029004801561122f5780601f106112045761010080835404028352916020019161122f565b820191906000526020600020905b81548152906001019060200180831161121257829003601f168201915b50505050509750858054600181600116156101000203166002900480601f0160208091040260200160405190810160405280929190818152602001828054600181600116156101000203166002900480156112cb5780601f106112a0576101008083540402835291602001916112cb565b820191906000526020600020905b8154815290600101906020018083116112ae57829003601f168201915b50505050509550848054600181600116156101000203166002900480601f0160208091040260200160405190810160405280929190818152602001828054600181600116156101000203166002900480156113675780601f1061133c57610100808354040283529160200191611367565b820191906000526020600020905b81548152906001019060200180831161134a57829003601f168201915b50505050509450838054600181600116156101000203166002900480601f0160208091040260200160405190810160405280929190818152602001828054600181600116156101000203166002900480156114035780601f106113d857610100808354040283529160200191611403565b820191906000526020600020905b8154815290600101906020018083116113e657829003601f168201915b50505050509350995099509950995099509950995099509950509193959799909294969850565b6000809054906101000a900473ffffffffffffffffffffffffffffffffffffffff1673ffffffffffffffffffffffffffffffffffffffff163373ffffffffffffffffffffffffffffffffffffffff16146114ec576040517f08c379a00000000000000000000000000000000000000000000000000000000081526004018080602001828103825260098152602001807f4e6f74206f776e6572000000000000000000000000000000000000000000000081525060200191505060405180910390fd5b60004711611562576040517f08c379a000000000000000000000000000000000000000000000000000000000815260040180806020018281038252600d8152602001807f656d7074792062616c616e63650000000000000000000000000000000000000081525060200191505060405180910390fd5b8073ffffffffffffffffffffffffffffffffffffffff166108fc479081150290604051600060405180830381858888f193505050501580156115a8573d6000803e3d6000fd5b5050565b828054600181600116156101000203166002900490600052602060002090601f016020900481019282601f106115ed57805160ff191683800117855561161b565b8280016001018555821561161b579182015b8281111561161a5782518255916020019190600101906115ff565b5b509050611628919061162c565b5090565b61164e91905b8082111561164a576000816000905550600101611632565b5090565b9056fea265627a7a72315820a0ab699536198e0b629b4d28ce443349b37bc4d22233aaa12db38a4daae57d1964736f6c63430005100032",
  "source": "pragma solidity >=0.4.22 <0.9.0;\r\n\r\ncontract PetShop {\r\n    address public owner;\r\n\r\n    //struct of a pet's info, picture = ipfs url\r\n    struct Pet {\r\n        uint id;\r\n        string name;\r\n        uint age;\r\n        string breed;\r\n        string location;\r\n        string photo;\r\n        uint price;\r\n        bool isSold;\r\n        address owner;\r\n    }\r\n\r\n    mapping(uint => Pet) public pets;\r\n\r\n    uint public petCount;\r\n\r\n    constructor() public {\r\n        petCount = 0;\r\n        owner = msg.sender;\r\n    }\r\n\r\n    function registerPet(string memory _name, uint _age, string memory _breed, \r\n    string memory _location, string memory _photo, uint _price, uint _fee) public payable returns (uint) {\r\n        require(msg.value >= _fee, \"Insufficient fee\");\r\n        petCount++;\r\n        pets[petCount] = Pet(petCount, _name, _age, _breed, _location, _photo, _price, false, address(0));\r\n        return petCount;\r\n    }\r\n\r\n    function buyPet(uint _id) external payable {\r\n        require(_id >= 0 && _id<= petCount);\r\n        Pet storage pet = pets[_id];\r\n        require(!pet.isSold, \"This pet is already sold\");\r\n        require(msg.value >= pet.price, \"Insufficient funds\");\r\n        pet.isSold = true;\r\n        pet.owner = msg.sender;\r\n    }\r\n\r\n    function adopt(uint _id) external returns (uint) {\r\n        require(_id >= 0 && _id <= petCount);\r\n        Pet storage pet = pets[_id];\r\n        require(!pet.isSold, \"This pet is already adpoted\");\r\n        pet.isSold = true;\r\n        pet.owner = msg.sender;\r\n        return _id;\r\n    }\r\n\r\n    function getCount() view external returns (uint) {\r\n        return petCount;\r\n    }\r\n\r\n    // Retrieving one pet's details\r\n    function getPetDetails(uint petId) public view returns (uint, string memory, uint, string memory, string memory,\r\n        string memory, uint, bool, address) {\r\n        //require(petId >= 0 && petId < petCount);\r\n        Pet storage p = pets[petId];\r\n        return (p.id, p.name, p.age, p.breed, p.location, p.photo, p.price, p.isSold, p.owner);\r\n    }\r\n\r\n    modifier onlyOwner() {\r\n        require(msg.sender == owner, \"Not owner\");\r\n        _;\r\n    }\r\n\r\n    function withdrawAll(address payable _to) external onlyOwner{\r\n        require(address(this).balance > 0, \"empty balance\");\r\n        _to.transfer(address(this).balance);\r\n    }\r\n}\r\n",
  "sourcePath": "C:\\Users\\xinyu\\Documents\\MyFiles\\U of T\\APS 1050\\Project\\Pet-Shop-Dapp\\contracts\\PetShop.sol",
  "compiler": {
    "name": "solc",
    "version": "0.5.16+commit.9c3226ce.Emscripten.clang"
  },
  "schemaVersion": "3.4.13",
  "updatedAt": "2023-04-05T04:30:04.509Z",
  "networkType": "ethereum",
  "devdoc": {
    "methods": {}
  },
  "userdoc": {
    "methods": {}
  }
}