{
  "contractName": "PetShop",
  "abi": [
    {
      "inputs": [],
      "payable": false,
      "stateMutability": "nonpayable",
      "type": "constructor"
    },
    {
      "constant": true,
      "inputs": [],
      "name": "petCount",
      "outputs": [
        {
          "internalType": "uint256",
          "name": "",
          "type": "uint256"
        }
      ],
      "payable": false,
      "stateMutability": "view",
      "type": "function"
    },
    {
      "constant": true,
      "inputs": [
        {
          "internalType": "uint256",
          "name": "",
          "type": "uint256"
        }
      ],
      "name": "pets",
      "outputs": [
        {
          "internalType": "uint256",
          "name": "id",
          "type": "uint256"
        },
        {
          "internalType": "string",
          "name": "name",
          "type": "string"
        },
        {
          "internalType": "uint256",
          "name": "age",
          "type": "uint256"
        },
        {
          "internalType": "string",
          "name": "breed",
          "type": "string"
        },
        {
          "internalType": "string",
          "name": "location",
          "type": "string"
        },
        {
          "internalType": "string",
          "name": "photo",
          "type": "string"
        },
        {
          "internalType": "uint256",
          "name": "price",
          "type": "uint256"
        },
        {
          "internalType": "bool",
          "name": "isSold",
          "type": "bool"
        },
        {
          "internalType": "address",
          "name": "owner",
          "type": "address"
        }
      ],
      "payable": false,
      "stateMutability": "view",
      "type": "function"
    },
    {
      "constant": false,
      "inputs": [
        {
          "internalType": "string",
          "name": "_name",
          "type": "string"
        },
        {
          "internalType": "uint256",
          "name": "_age",
          "type": "uint256"
        },
        {
          "internalType": "string",
          "name": "_breed",
          "type": "string"
        },
        {
          "internalType": "string",
          "name": "_location",
          "type": "string"
        },
        {
          "internalType": "string",
          "name": "_photo",
          "type": "string"
        },
        {
          "internalType": "uint256",
          "name": "_price",
          "type": "uint256"
        },
        {
          "internalType": "uint256",
          "name": "_fee",
          "type": "uint256"
        }
      ],
      "name": "registerPet",
      "outputs": [
        {
          "internalType": "uint256",
          "name": "",
          "type": "uint256"
        }
      ],
      "payable": true,
      "stateMutability": "payable",
      "type": "function"
    },
    {
      "constant": false,
      "inputs": [
        {
          "internalType": "uint256",
          "name": "_id",
          "type": "uint256"
        }
      ],
      "name": "buyPet",
      "outputs": [],
      "payable": true,
      "stateMutability": "payable",
      "type": "function"
    },
    {
      "constant": false,
      "inputs": [
        {
          "internalType": "uint256",
          "name": "_id",
          "type": "uint256"
        }
      ],
      "name": "adopt",
      "outputs": [
        {
          "internalType": "uint256",
          "name": "",
          "type": "uint256"
        }
      ],
      "payable": false,
      "stateMutability": "nonpayable",
      "type": "function"
    }
  ],
  "bytecode": "0x608060405234801561001057600080fd5b506000600181905550610e70806100286000396000f3fe60806040526004361061004a5760003560e01c806364da52bc1461004f5780638588b2c5146103015780639edded1114610350578063cd619f581461037e578063cfb869bf146103a9575b600080fd5b6102eb600480360360e081101561006557600080fd5b810190808035906020019064010000000081111561008257600080fd5b82018360208201111561009457600080fd5b803590602001918460018302840111640100000000831117156100b657600080fd5b91908080601f016020809104026020016040519081016040528093929190818152602001838380828437600081840152601f19601f820116905080830192505050505050509192919290803590602001909291908035906020019064010000000081111561012357600080fd5b82018360208201111561013557600080fd5b8035906020019184600183028401116401000000008311171561015757600080fd5b91908080601f016020809104026020016040519081016040528093929190818152602001838380828437600081840152601f19601f820116905080830192505050505050509192919290803590602001906401000000008111156101ba57600080fd5b8201836020820111156101cc57600080fd5b803590602001918460018302840111640100000000831117156101ee57600080fd5b91908080601f016020809104026020016040519081016040528093929190818152602001838380828437600081840152601f19601f8201169050808301925050505050505091929192908035906020019064010000000081111561025157600080fd5b82018360208201111561026357600080fd5b8035906020019184600183028401116401000000008311171561028557600080fd5b91908080601f016020809104026020016040519081016040528093929190818152602001838380828437600081840152601f19601f82011690508083019250505050505050919291929080359060200190929190803590602001909291905050506105f4565b6040518082815260200191505060405180910390f35b34801561030d57600080fd5b5061033a6004803603602081101561032457600080fd5b81019080803590602001909291905050506107fb565b6040518082815260200191505060405180910390f35b61037c6004803603602081101561036657600080fd5b810190808035906020019092919050505061091c565b005b34801561038a57600080fd5b50610393610ab5565b6040518082815260200191505060405180910390f35b3480156103b557600080fd5b506103e2600480360360208110156103cc57600080fd5b8101908080359060200190929190505050610abb565b604051808a815260200180602001898152602001806020018060200180602001888152602001871515151581526020018673ffffffffffffffffffffffffffffffffffffffff1673ffffffffffffffffffffffffffffffffffffffff16815260200185810385528d818151815260200191508051906020019080838360005b8381101561047c578082015181840152602081019050610461565b50505050905090810190601f1680156104a95780820380516001836020036101000a031916815260200191505b5085810384528b818151815260200191508051906020019080838360005b838110156104e25780820151818401526020810190506104c7565b50505050905090810190601f16801561050f5780820380516001836020036101000a031916815260200191505b5085810383528a818151815260200191508051906020019080838360005b8381101561054857808201518184015260208101905061052d565b50505050905090810190601f1680156105755780820380516001836020036101000a031916815260200191505b50858103825289818151815260200191508051906020019080838360005b838110156105ae578082015181840152602081019050610593565b50505050905090810190601f1680156105db5780820380516001836020036101000a031916815260200191505b509d505050505050505050505050505060405180910390f35b60008134101561066c576040517f08c379a00000000000000000000000000000000000000000000000000000000081526004018080602001828103825260108152602001807f496e73756666696369656e74206665650000000000000000000000000000000081525060200191505060405180910390fd5b6001600081548092919060010191905055506040518061012001604052806001548152602001898152602001888152602001878152602001868152602001858152602001848152602001600015158152602001600073ffffffffffffffffffffffffffffffffffffffff168152506000806001548152602001908152602001600020600082015181600001556020820151816001019080519060200190610714929190610d96565b5060408201518160020155606082015181600301908051906020019061073b929190610d96565b506080820151816004019080519060200190610758929190610d96565b5060a0820151816005019080519060200190610775929190610d96565b5060c0820151816006015560e08201518160070160006101000a81548160ff0219169083151502179055506101008201518160070160016101000a81548173ffffffffffffffffffffffffffffffffffffffff021916908373ffffffffffffffffffffffffffffffffffffffff1602179055509050506001549050979650505050505050565b600080821015801561080f57506001548211155b61081857600080fd5b600080600084815260200190815260200160002090508060070160009054906101000a900460ff16156108b3576040517f08c379a000000000000000000000000000000000000000000000000000000000815260040180806020018281038252601b8152602001807f546869732070657420697320616c7265616479206164706f746564000000000081525060200191505060405180910390fd5b60018160070160006101000a81548160ff021916908315150217905550338160070160016101000a81548173ffffffffffffffffffffffffffffffffffffffff021916908373ffffffffffffffffffffffffffffffffffffffff16021790555082915050919050565b6000811015801561092f57506001548111155b61093857600080fd5b600080600083815260200190815260200160002090508060070160009054906101000a900460ff16156109d3576040517f08c379a00000000000000000000000000000000000000000000000000000000081526004018080602001828103825260188152602001807f546869732070657420697320616c726561647920736f6c64000000000000000081525060200191505060405180910390fd5b67016345785d8a0000341015610a51576040517f08c379a00000000000000000000000000000000000000000000000000000000081526004018080602001828103825260128152602001807f496e73756666696369656e742066756e6473000000000000000000000000000081525060200191505060405180910390fd5b60018160070160006101000a81548160ff021916908315150217905550338160070160016101000a81548173ffffffffffffffffffffffffffffffffffffffff021916908373ffffffffffffffffffffffffffffffffffffffff1602179055505050565b60015481565b6000602052806000526040600020600091509050806000015490806001018054600181600116156101000203166002900480601f016020809104026020016040519081016040528092919081815260200182805460018160011615610100020316600290048015610b6d5780601f10610b4257610100808354040283529160200191610b6d565b820191906000526020600020905b815481529060010190602001808311610b5057829003601f168201915b505050505090806002015490806003018054600181600116156101000203166002900480601f016020809104026020016040519081016040528092919081815260200182805460018160011615610100020316600290048015610c115780601f10610be657610100808354040283529160200191610c11565b820191906000526020600020905b815481529060010190602001808311610bf457829003601f168201915b505050505090806004018054600181600116156101000203166002900480601f016020809104026020016040519081016040528092919081815260200182805460018160011615610100020316600290048015610caf5780601f10610c8457610100808354040283529160200191610caf565b820191906000526020600020905b815481529060010190602001808311610c9257829003601f168201915b505050505090806005018054600181600116156101000203166002900480601f016020809104026020016040519081016040528092919081815260200182805460018160011615610100020316600290048015610d4d5780601f10610d2257610100808354040283529160200191610d4d565b820191906000526020600020905b815481529060010190602001808311610d3057829003601f168201915b5050505050908060060154908060070160009054906101000a900460ff16908060070160019054906101000a900473ffffffffffffffffffffffffffffffffffffffff16905089565b828054600181600116156101000203166002900490600052602060002090601f016020900481019282601f10610dd757805160ff1916838001178555610e05565b82800160010185558215610e05579182015b82811115610e04578251825591602001919060010190610de9565b5b509050610e129190610e16565b5090565b610e3891905b80821115610e34576000816000905550600101610e1c565b5090565b9056fea265627a7a72315820a700295ff20346e77583e9e1fa949981a3b4102bddcd85e96318d18b8feb15f764736f6c63430005100032",
  "source": "pragma solidity >=0.4.22 <0.9.0;\r\n\r\ncontract PetShop {\r\n    //struct of a pet's info, picture = ipfs url\r\n    struct Pet {\r\n        uint id;\r\n        string name;\r\n        uint age;\r\n        string breed;\r\n        string location;\r\n        string photo;\r\n        uint price;\r\n        bool isSold;\r\n        address owner;\r\n    }\r\n\r\n    mapping(uint => Pet) public pets;\r\n\r\n    uint public petCount;\r\n\r\n    constructor() public {\r\n        petCount = 0;\r\n    }\r\n\r\n    function registerPet(string memory _name, uint _age, string memory _breed, \r\n    string memory _location, string memory _photo, uint _price, uint _fee) public payable returns (uint) {\r\n        require(msg.value >= _fee, \"Insufficient fee\");\r\n        petCount++;\r\n        pets[petCount] = Pet(petCount, _name, _age, _breed, _location, _photo, _price, false, address(0));\r\n        return petCount;\r\n    }\r\n\r\n    function buyPet(uint _id) public payable {\r\n        require(_id >= 0 && _id<= petCount);\r\n        Pet storage pet = pets[_id];\r\n        require(!pet.isSold, \"This pet is already sold\");\r\n        //require(msg.value >= pet.price, \"Insufficient funds\");\r\n        require(msg.value >= 1 * 10**17, \"Insufficient funds\");\r\n        pet.isSold = true;\r\n        pet.owner = msg.sender;\r\n    }\r\n\r\n    function adopt(uint _id) public returns (uint) {\r\n        require(_id >= 0 && _id <= petCount);\r\n        Pet storage pet = pets[_id];\r\n        require(!pet.isSold, \"This pet is already adpoted\");\r\n        pet.isSold = true;\r\n        pet.owner = msg.sender;\r\n        return _id;\r\n    }\r\n}\r\n",
  "sourcePath": "C:\\Users\\xinyu\\Documents\\MyFiles\\U of T\\APS 1050\\Project\\Pet-Shop-Dapp\\contracts\\PetShop.sol",
  "compiler": {
    "name": "solc",
    "version": "0.5.16+commit.9c3226ce.Emscripten.clang"
  },
  "schemaVersion": "3.4.13",
  "updatedAt": "2023-04-03T19:18:47.798Z",
  "networkType": "ethereum",
  "devdoc": {
    "methods": {}
  },
  "userdoc": {
    "methods": {}
  }
}