{
  "contractName": "PetShop",
  "abi": [
    {
      "inputs": [],
      "payable": false,
      "stateMutability": "nonpayable",
      "type": "constructor"
    },
    {
      "constant": true,
      "inputs": [],
      "name": "filterCount",
      "outputs": [
        {
          "internalType": "uint256",
          "name": "",
          "type": "uint256"
        }
      ],
      "payable": false,
      "stateMutability": "view",
      "type": "function"
    },
    {
      "constant": true,
      "inputs": [
        {
          "internalType": "uint256",
          "name": "",
          "type": "uint256"
        }
      ],
      "name": "filters",
      "outputs": [
        {
          "internalType": "int256",
          "name": "conditionAge",
          "type": "int256"
        },
        {
          "internalType": "int256",
          "name": "conditionPrice",
          "type": "int256"
        },
        {
          "internalType": "int256",
          "name": "conditionStatus",
          "type": "int256"
        },
        {
          "internalType": "int256",
          "name": "lowerAge",
          "type": "int256"
        },
        {
          "internalType": "int256",
          "name": "higherAge",
          "type": "int256"
        },
        {
          "internalType": "int256",
          "name": "lowerPrice",
          "type": "int256"
        },
        {
          "internalType": "int256",
          "name": "higherPrice",
          "type": "int256"
        },
        {
          "internalType": "int256",
          "name": "isSold",
          "type": "int256"
        }
      ],
      "payable": false,
      "stateMutability": "view",
      "type": "function"
    },
    {
      "constant": true,
      "inputs": [],
      "name": "owner",
      "outputs": [
        {
          "internalType": "address",
          "name": "",
          "type": "address"
        }
      ],
      "payable": false,
      "stateMutability": "view",
      "type": "function"
    },
    {
      "constant": true,
      "inputs": [],
      "name": "petCount",
      "outputs": [
        {
          "internalType": "uint256",
          "name": "",
          "type": "uint256"
        }
      ],
      "payable": false,
      "stateMutability": "view",
      "type": "function"
    },
    {
      "constant": true,
      "inputs": [
        {
          "internalType": "uint256",
          "name": "",
          "type": "uint256"
        }
      ],
      "name": "pets",
      "outputs": [
        {
          "internalType": "uint256",
          "name": "id",
          "type": "uint256"
        },
        {
          "internalType": "string",
          "name": "name",
          "type": "string"
        },
        {
          "internalType": "uint256",
          "name": "age",
          "type": "uint256"
        },
        {
          "internalType": "string",
          "name": "breed",
          "type": "string"
        },
        {
          "internalType": "string",
          "name": "location",
          "type": "string"
        },
        {
          "internalType": "string",
          "name": "photo",
          "type": "string"
        },
        {
          "internalType": "uint256",
          "name": "price",
          "type": "uint256"
        },
        {
          "internalType": "bool",
          "name": "isSold",
          "type": "bool"
        },
        {
          "internalType": "address",
          "name": "owner",
          "type": "address"
        }
      ],
      "payable": false,
      "stateMutability": "view",
      "type": "function"
    },
    {
      "constant": true,
      "inputs": [],
      "name": "productCount",
      "outputs": [
        {
          "internalType": "uint256",
          "name": "",
          "type": "uint256"
        }
      ],
      "payable": false,
      "stateMutability": "view",
      "type": "function"
    },
    {
      "constant": true,
      "inputs": [
        {
          "internalType": "uint256",
          "name": "",
          "type": "uint256"
        }
      ],
      "name": "products",
      "outputs": [
        {
          "internalType": "uint256",
          "name": "pId",
          "type": "uint256"
        },
        {
          "internalType": "string",
          "name": "pName",
          "type": "string"
        },
        {
          "internalType": "string",
          "name": "pCategory",
          "type": "string"
        },
        {
          "internalType": "string",
          "name": "pBrand",
          "type": "string"
        },
        {
          "internalType": "string",
          "name": "picture",
          "type": "string"
        },
        {
          "internalType": "uint256",
          "name": "pPrice",
          "type": "uint256"
        },
        {
          "internalType": "uint256",
          "name": "stock",
          "type": "uint256"
        }
      ],
      "payable": false,
      "stateMutability": "view",
      "type": "function"
    },
    {
      "constant": false,
      "inputs": [
        {
          "internalType": "string",
          "name": "pName",
          "type": "string"
        },
        {
          "internalType": "string",
          "name": "pCategory",
          "type": "string"
        },
        {
          "internalType": "string",
          "name": "pBrand",
          "type": "string"
        },
        {
          "internalType": "string",
          "name": "picture",
          "type": "string"
        },
        {
          "internalType": "uint256",
          "name": "pPrice",
          "type": "uint256"
        },
        {
          "internalType": "uint256",
          "name": "stock",
          "type": "uint256"
        }
      ],
      "name": "addProduct",
      "outputs": [
        {
          "internalType": "uint256",
          "name": "",
          "type": "uint256"
        }
      ],
      "payable": false,
      "stateMutability": "nonpayable",
      "type": "function"
    },
    {
      "constant": false,
      "inputs": [
        {
          "internalType": "string",
          "name": "_name",
          "type": "string"
        },
        {
          "internalType": "uint256",
          "name": "_age",
          "type": "uint256"
        },
        {
          "internalType": "string",
          "name": "_breed",
          "type": "string"
        },
        {
          "internalType": "string",
          "name": "_location",
          "type": "string"
        },
        {
          "internalType": "string",
          "name": "_photo",
          "type": "string"
        },
        {
          "internalType": "uint256",
          "name": "_price",
          "type": "uint256"
        },
        {
          "internalType": "uint256",
          "name": "_fee",
          "type": "uint256"
        }
      ],
      "name": "registerPet",
      "outputs": [
        {
          "internalType": "uint256",
          "name": "",
          "type": "uint256"
        }
      ],
      "payable": true,
      "stateMutability": "payable",
      "type": "function"
    },
    {
      "constant": false,
      "inputs": [
        {
          "internalType": "uint256",
          "name": "_id",
          "type": "uint256"
        }
      ],
      "name": "buyPet",
      "outputs": [],
      "payable": true,
      "stateMutability": "payable",
      "type": "function"
    },
    {
      "constant": false,
      "inputs": [
        {
          "internalType": "uint256",
          "name": "pId",
          "type": "uint256"
        },
        {
          "internalType": "uint256",
          "name": "amount",
          "type": "uint256"
        }
      ],
      "name": "buyProduct",
      "outputs": [],
      "payable": true,
      "stateMutability": "payable",
      "type": "function"
    },
    {
      "constant": false,
      "inputs": [
        {
          "internalType": "uint256",
          "name": "_id",
          "type": "uint256"
        }
      ],
      "name": "adopt",
      "outputs": [
        {
          "internalType": "uint256",
          "name": "",
          "type": "uint256"
        }
      ],
      "payable": false,
      "stateMutability": "nonpayable",
      "type": "function"
    },
    {
      "constant": true,
      "inputs": [],
      "name": "getCount",
      "outputs": [
        {
          "internalType": "uint256",
          "name": "",
          "type": "uint256"
        }
      ],
      "payable": false,
      "stateMutability": "view",
      "type": "function"
    },
    {
      "constant": true,
      "inputs": [],
      "name": "getProductCount",
      "outputs": [
        {
          "internalType": "uint256",
          "name": "",
          "type": "uint256"
        }
      ],
      "payable": false,
      "stateMutability": "view",
      "type": "function"
    },
    {
      "constant": true,
      "inputs": [
        {
          "internalType": "uint256",
          "name": "petId",
          "type": "uint256"
        }
      ],
      "name": "getPetDetails",
      "outputs": [
        {
          "internalType": "uint256",
          "name": "",
          "type": "uint256"
        },
        {
          "internalType": "string",
          "name": "",
          "type": "string"
        },
        {
          "internalType": "uint256",
          "name": "",
          "type": "uint256"
        },
        {
          "internalType": "string",
          "name": "",
          "type": "string"
        },
        {
          "internalType": "string",
          "name": "",
          "type": "string"
        },
        {
          "internalType": "string",
          "name": "",
          "type": "string"
        },
        {
          "internalType": "uint256",
          "name": "",
          "type": "uint256"
        },
        {
          "internalType": "bool",
          "name": "",
          "type": "bool"
        },
        {
          "internalType": "address",
          "name": "",
          "type": "address"
        }
      ],
      "payable": false,
      "stateMutability": "view",
      "type": "function"
    },
    {
      "constant": true,
      "inputs": [
        {
          "internalType": "uint256",
          "name": "pId",
          "type": "uint256"
        }
      ],
      "name": "getProductDetails",
      "outputs": [
        {
          "internalType": "uint256",
          "name": "",
          "type": "uint256"
        },
        {
          "internalType": "string",
          "name": "",
          "type": "string"
        },
        {
          "internalType": "string",
          "name": "",
          "type": "string"
        },
        {
          "internalType": "string",
          "name": "",
          "type": "string"
        },
        {
          "internalType": "string",
          "name": "",
          "type": "string"
        },
        {
          "internalType": "uint256",
          "name": "",
          "type": "uint256"
        },
        {
          "internalType": "uint256",
          "name": "",
          "type": "uint256"
        }
      ],
      "payable": false,
      "stateMutability": "view",
      "type": "function"
    },
    {
      "constant": true,
      "inputs": [
        {
          "internalType": "uint256",
          "name": "petId",
          "type": "uint256"
        }
      ],
      "name": "getPrice",
      "outputs": [
        {
          "internalType": "uint256",
          "name": "",
          "type": "uint256"
        }
      ],
      "payable": false,
      "stateMutability": "view",
      "type": "function"
    },
    {
      "constant": true,
      "inputs": [
        {
          "internalType": "uint256",
          "name": "pId",
          "type": "uint256"
        }
      ],
      "name": "getProductPrice",
      "outputs": [
        {
          "internalType": "uint256",
          "name": "",
          "type": "uint256"
        }
      ],
      "payable": false,
      "stateMutability": "view",
      "type": "function"
    },
    {
      "constant": false,
      "inputs": [
        {
          "internalType": "address payable",
          "name": "_to",
          "type": "address"
        }
      ],
      "name": "withdrawAll",
      "outputs": [],
      "payable": false,
      "stateMutability": "nonpayable",
      "type": "function"
    },
    {
      "constant": false,
      "inputs": [
        {
          "internalType": "int256",
          "name": "conditionAge",
          "type": "int256"
        },
        {
          "internalType": "int256",
          "name": "conditionPrice",
          "type": "int256"
        },
        {
          "internalType": "int256",
          "name": "conditionStatus",
          "type": "int256"
        },
        {
          "internalType": "int256",
          "name": "lowerAge",
          "type": "int256"
        },
        {
          "internalType": "int256",
          "name": "higherAge",
          "type": "int256"
        },
        {
          "internalType": "int256",
          "name": "lowerPrice",
          "type": "int256"
        },
        {
          "internalType": "int256",
          "name": "higherPrice",
          "type": "int256"
        },
        {
          "internalType": "int256",
          "name": "isSold",
          "type": "int256"
        }
      ],
      "name": "setFilters",
      "outputs": [
        {
          "internalType": "uint256",
          "name": "",
          "type": "uint256"
        }
      ],
      "payable": true,
      "stateMutability": "payable",
      "type": "function"
    },
    {
      "constant": true,
      "inputs": [],
      "name": "getFilters",
      "outputs": [
        {
          "internalType": "int256",
          "name": "",
          "type": "int256"
        },
        {
          "internalType": "int256",
          "name": "",
          "type": "int256"
        },
        {
          "internalType": "int256",
          "name": "",
          "type": "int256"
        },
        {
          "internalType": "int256",
          "name": "",
          "type": "int256"
        },
        {
          "internalType": "int256",
          "name": "",
          "type": "int256"
        },
        {
          "internalType": "int256",
          "name": "",
          "type": "int256"
        },
        {
          "internalType": "int256",
          "name": "",
          "type": "int256"
        },
        {
          "internalType": "int256",
          "name": "",
          "type": "int256"
        }
      ],
      "payable": false,
      "stateMutability": "view",
      "type": "function"
    }
  ],
  "bytecode": "0x60806040523480156200001157600080fd5b50600060048190555060006005819055506000600681905550336000806101000a81548173ffffffffffffffffffffffffffffffffffffffff021916908373ffffffffffffffffffffffffffffffffffffffff1602179055506200013d60405180606001604052806021815260200162003837602191396040518060400160405280600b81526020017f466f6f64265472656174730000000000000000000000000000000000000000008152506040518060400160405280600c81526020017f506572666f726d617472696e00000000000000000000000000000000000000008152506040518060400160405280601381526020017f696d616765732f70726f64756374312e6a706700000000000000000000000000815250620186a06103e86200093f60201b60201c565b506200022d6040518060400160405280602081526020017f486f6d6573746561642048617276657374204164756c742043617420466f6f648152506040518060400160405280600b81526020017f466f6f64265472656174730000000000000000000000000000000000000000008152506040518060400160405280600581526020017f4143414e410000000000000000000000000000000000000000000000000000008152506040518060400160405280601381526020017f696d616765732f70726f64756374322e6a70670000000000000000000000000081525062030d406103e86200093f60201b60201c565b506200031d6040518060400160405280601e81526020017f47726579202620576869746520486f6f646564204c697474657220426f7800008152506040518060400160405280601281526020017f4c6974746572264163636573736f7269657300000000000000000000000000008152506040518060400160405280600581526020017f53617669630000000000000000000000000000000000000000000000000000008152506040518060400160405280601381526020017f696d616765732f70726f64756374332e6a70670000000000000000000000000081525062030d406103e86200093f60201b60201c565b506200040d6040518060400160405280601281526020017f4769616e74204c69747465722053636f6f7000000000000000000000000000008152506040518060400160405280601281526020017f4c6974746572264163636573736f7269657300000000000000000000000000008152506040518060400160405280600881526020017f56616e204e6573730000000000000000000000000000000000000000000000008152506040518060400160405280601381526020017f696d616765732f70726f64756374342e6a70670000000000000000000000000081525062030d406103e86200093f60201b60201c565b50620004fd6040518060400160405280601781526020017f4e61747572654d617465732042697264205465617365720000000000000000008152506040518060400160405280600881526020017f537570706c6965730000000000000000000000000000000000000000000000008152506040518060400160405280600481526020017f4a756d70000000000000000000000000000000000000000000000000000000008152506040518060400160405280601381526020017f696d616765732f70726f64756374352e6a70670000000000000000000000000081525062030d406103e86200093f60201b60201c565b50620005ed6040518060400160405280601781526020017f46656c69782048616d6d6f636b2043617420436f6e646f0000000000000000008152506040518060400160405280600881526020017f537570706c6965730000000000000000000000000000000000000000000000008152506040518060400160405280600481526020017f4a756d70000000000000000000000000000000000000000000000000000000008152506040518060400160405280601381526020017f696d616765732f70726f64756374362e6a70670000000000000000000000000081525062030d406103e86200093f60201b60201c565b50620006dd6040518060400160405280600e81526020017f57656c6c6e657373206578616d730000000000000000000000000000000000008152506040518060400160405280600781526020017f53657276696365000000000000000000000000000000000000000000000000008152506040518060400160405280600d81526020017f50657420476f6f64204c696665000000000000000000000000000000000000008152506040518060400160405280601381526020017f696d616765732f70726f64756374372e6a70670000000000000000000000000081525062030d406103e86200093f60201b60201c565b50620007cd6040518060400160405280600c81526020017f56616363696e6174696f6e7300000000000000000000000000000000000000008152506040518060400160405280600781526020017f53657276696365000000000000000000000000000000000000000000000000008152506040518060400160405280600d81526020017f50657420476f6f64204c696665000000000000000000000000000000000000008152506040518060400160405280601381526020017f696d616765732f70726f64756374382e6a70670000000000000000000000000081525062030d406103e86200093f60201b60201c565b50620008bd6040518060400160405280601c81526020017f546565746820636c65616e696e6720616e642064656e746973747279000000008152506040518060400160405280600781526020017f53657276696365000000000000000000000000000000000000000000000000008152506040518060400160405280600d81526020017f50657420476f6f64204c696665000000000000000000000000000000000000008152506040518060400160405280601381526020017f696d616765732f70726f64756374392e6a70670000000000000000000000000081525062030d406103e86200093f60201b60201c565b506200093860008060007fffffffffffffffffffffffffffffffffffffffffffffffffffffffffffffffff807fffffffffffffffffffffffffffffffffffffffffffffffffffffffffffffffff807fffffffffffffffffffffffffffffffffffffffffffffffffffffffffffffffff62000b3360201b60201c565b5062000ca9565b6000808311620009b7576040517f08c379a00000000000000000000000000000000000000000000000000000000081526004018080602001828103825260118152602001807f756e73617469736669656420707269636500000000000000000000000000000081525060200191505060405180910390fd5b600082101562000a2f576040517f08c379a00000000000000000000000000000000000000000000000000000000081526004018080602001828103825260118152602001807f756e7361746973666965642073746f636b00000000000000000000000000000081525060200191505060405180910390fd5b6040518060e0016040528060055481526020018881526020018781526020018681526020018581526020018481526020018381525060026000600554815260200190815260200160002060008201518160000155602082015181600101908051906020019062000aa192919062000bfa565b50604082015181600201908051906020019062000ac092919062000bfa565b50606082015181600301908051906020019062000adf92919062000bfa565b50608082015181600401908051906020019062000afe92919062000bfa565b5060a0820151816005015560c08201518160060155905050600560008154809291906001019190505590509695505050505050565b60006006600081548092919060010191905055506040518061010001604052808a815260200189815260200188815260200187815260200186815260200185815260200184815260200183815250600360006006548152602001908152602001600020600082015181600001556020820151816001015560408201518160020155606082015181600301556080820151816004015560a0820151816005015560c0820151816006015560e08201518160070155905050600654905098975050505050505050565b828054600181600116156101000203166002900490600052602060002090601f016020900481019282601f1062000c3d57805160ff191683800117855562000c6e565b8280016001018555821562000c6e579182015b8281111562000c6d57825182559160200191906001019062000c50565b5b50905062000c7d919062000c81565b5090565b62000ca691905b8082111562000ca257600081600090555060010162000c88565b5090565b90565b612b7e8062000cb96000396000f3fe60806040526004361061012a5760003560e01c80638da5cb5b116100ab578063d89fd4b41161006f578063d89fd4b414610f8f578063e0f6ef87146111da578063e757223014611205578063e7bf7dfc14611254578063f7a943a6146112a3578063fa09e6301461132c5761012a565b80638da5cb5b14610c695780639edded1114610cc0578063a87d942c14610cee578063cd619f5814610d19578063cfb869bf14610d445761012a565b806361655e12116100f257806361655e121461029957806364da52bc1461054e5780636813b53b146108005780637acc0b2014610a0d5780638588b2c514610c1a5761012a565b806306e341501461012f578063259060d9146101af5780634a348da91461020b57806353b62866146102365780635e1978b81461026e575b600080fd5b34801561013b57600080fd5b506101686004803603602081101561015257600080fd5b810190808035906020019092919050505061137d565b604051808981526020018881526020018781526020018681526020018581526020018481526020018381526020018281526020019850505050505050505060405180910390f35b3480156101bb57600080fd5b506101c46113c5565b604051808981526020018881526020018781526020018681526020018581526020018481526020018381526020018281526020019850505050505050505060405180910390f35b34801561021757600080fd5b5061022061142d565b6040518082815260200191505060405180910390f35b61026c6004803603604081101561024c57600080fd5b810190808035906020019092919080359060200190929190505050611437565b005b34801561027a57600080fd5b5061028361157e565b6040518082815260200191505060405180910390f35b3480156102a557600080fd5b50610538600480360360c08110156102bc57600080fd5b81019080803590602001906401000000008111156102d957600080fd5b8201836020820111156102eb57600080fd5b8035906020019184600183028401116401000000008311171561030d57600080fd5b91908080601f016020809104026020016040519081016040528093929190818152602001838380828437600081840152601f19601f8201169050808301925050505050505091929192908035906020019064010000000081111561037057600080fd5b82018360208201111561038257600080fd5b803590602001918460018302840111640100000000831117156103a457600080fd5b91908080601f016020809104026020016040519081016040528093929190818152602001838380828437600081840152601f19601f8201169050808301925050505050505091929192908035906020019064010000000081111561040757600080fd5b82018360208201111561041957600080fd5b8035906020019184600183028401116401000000008311171561043b57600080fd5b91908080601f016020809104026020016040519081016040528093929190818152602001838380828437600081840152601f19601f8201169050808301925050505050505091929192908035906020019064010000000081111561049e57600080fd5b8201836020820111156104b057600080fd5b803590602001918460018302840111640100000000831117156104d257600080fd5b91908080601f016020809104026020016040519081016040528093929190818152602001838380828437600081840152601f19601f8201169050808301925050505050505091929192908035906020019092919080359060200190929190505050611584565b6040518082815260200191505060405180910390f35b6107ea600480360360e081101561056457600080fd5b810190808035906020019064010000000081111561058157600080fd5b82018360208201111561059357600080fd5b803590602001918460018302840111640100000000831117156105b557600080fd5b91908080601f016020809104026020016040519081016040528093929190818152602001838380828437600081840152601f19601f820116905080830192505050505050509192919290803590602001909291908035906020019064010000000081111561062257600080fd5b82018360208201111561063457600080fd5b8035906020019184600183028401116401000000008311171561065657600080fd5b91908080601f016020809104026020016040519081016040528093929190818152602001838380828437600081840152601f19601f820116905080830192505050505050509192919290803590602001906401000000008111156106b957600080fd5b8201836020820111156106cb57600080fd5b803590602001918460018302840111640100000000831117156106ed57600080fd5b91908080601f016020809104026020016040519081016040528093929190818152602001838380828437600081840152601f19601f8201169050808301925050505050505091929192908035906020019064010000000081111561075057600080fd5b82018360208201111561076257600080fd5b8035906020019184600183028401116401000000008311171561078457600080fd5b91908080601f016020809104026020016040519081016040528093929190818152602001838380828437600081840152601f19601f820116905080830192505050505050509192919290803590602001909291908035906020019092919050505061176e565b6040518082815260200191505060405180910390f35b34801561080c57600080fd5b506108396004803603602081101561082357600080fd5b8101908080359060200190929190505050611976565b604051808881526020018060200180602001806020018060200187815260200186815260200185810385528b818151815260200191508051906020019080838360005b8381101561089757808201518184015260208101905061087c565b50505050905090810190601f1680156108c45780820380516001836020036101000a031916815260200191505b5085810384528a818151815260200191508051906020019080838360005b838110156108fd5780820151818401526020810190506108e2565b50505050905090810190601f16801561092a5780820380516001836020036101000a031916815260200191505b50858103835289818151815260200191508051906020019080838360005b83811015610963578082015181840152602081019050610948565b50505050905090810190601f1680156109905780820380516001836020036101000a031916815260200191505b50858103825288818151815260200191508051906020019080838360005b838110156109c95780820151818401526020810190506109ae565b50505050905090810190601f1680156109f65780820380516001836020036101000a031916815260200191505b509b50505050505050505050505060405180910390f35b348015610a1957600080fd5b50610a4660048036036020811015610a3057600080fd5b8101908080359060200190929190505050611c41565b604051808881526020018060200180602001806020018060200187815260200186815260200185810385528b818151815260200191508051906020019080838360005b83811015610aa4578082015181840152602081019050610a89565b50505050905090810190601f168015610ad15780820380516001836020036101000a031916815260200191505b5085810384528a818151815260200191508051906020019080838360005b83811015610b0a578082015181840152602081019050610aef565b50505050905090810190601f168015610b375780820380516001836020036101000a031916815260200191505b50858103835289818151815260200191508051906020019080838360005b83811015610b70578082015181840152602081019050610b55565b50505050905090810190601f168015610b9d5780820380516001836020036101000a031916815260200191505b50858103825288818151815260200191508051906020019080838360005b83811015610bd6578082015181840152602081019050610bbb565b50505050905090810190601f168015610c035780820380516001836020036101000a031916815260200191505b509b50505050505050505050505060405180910390f35b348015610c2657600080fd5b50610c5360048036036020811015610c3d57600080fd5b8101908080359060200190929190505050611ee3565b6040518082815260200191505060405180910390f35b348015610c7557600080fd5b50610c7e612005565b604051808273ffffffffffffffffffffffffffffffffffffffff1673ffffffffffffffffffffffffffffffffffffffff16815260200191505060405180910390f35b610cec60048036036020811015610cd657600080fd5b810190808035906020019092919050505061202a565b005b348015610cfa57600080fd5b50610d036121c0565b6040518082815260200191505060405180910390f35b348015610d2557600080fd5b50610d2e6121ca565b6040518082815260200191505060405180910390f35b348015610d5057600080fd5b50610d7d60048036036020811015610d6757600080fd5b81019080803590602001909291905050506121d0565b604051808a815260200180602001898152602001806020018060200180602001888152602001871515151581526020018673ffffffffffffffffffffffffffffffffffffffff1673ffffffffffffffffffffffffffffffffffffffff16815260200185810385528d818151815260200191508051906020019080838360005b83811015610e17578082015181840152602081019050610dfc565b50505050905090810190601f168015610e445780820380516001836020036101000a031916815260200191505b5085810384528b818151815260200191508051906020019080838360005b83811015610e7d578082015181840152602081019050610e62565b50505050905090810190601f168015610eaa5780820380516001836020036101000a031916815260200191505b5085810383528a818151815260200191508051906020019080838360005b83811015610ee3578082015181840152602081019050610ec8565b50505050905090810190601f168015610f105780820380516001836020036101000a031916815260200191505b50858103825289818151815260200191508051906020019080838360005b83811015610f49578082015181840152602081019050610f2e565b50505050905090810190601f168015610f765780820380516001836020036101000a031916815260200191505b509d505050505050505050505050505060405180910390f35b348015610f9b57600080fd5b50610fc860048036036020811015610fb257600080fd5b81019080803590602001909291905050506124ab565b604051808a815260200180602001898152602001806020018060200180602001888152602001871515151581526020018673ffffffffffffffffffffffffffffffffffffffff1673ffffffffffffffffffffffffffffffffffffffff16815260200185810385528d818151815260200191508051906020019080838360005b83811015611062578082015181840152602081019050611047565b50505050905090810190601f16801561108f5780820380516001836020036101000a031916815260200191505b5085810384528b818151815260200191508051906020019080838360005b838110156110c85780820151818401526020810190506110ad565b50505050905090810190601f1680156110f55780820380516001836020036101000a031916815260200191505b5085810383528a818151815260200191508051906020019080838360005b8381101561112e578082015181840152602081019050611113565b50505050905090810190601f16801561115b5780820380516001836020036101000a031916815260200191505b50858103825289818151815260200191508051906020019080838360005b83811015611194578082015181840152602081019050611179565b50505050905090810190601f1680156111c15780820380516001836020036101000a031916815260200191505b509d505050505050505050505050505060405180910390f35b3480156111e657600080fd5b506111ef6127d3565b6040518082815260200191505060405180910390f35b34801561121157600080fd5b5061123e6004803603602081101561122857600080fd5b81019080803590602001909291905050506127d9565b6040518082815260200191505060405180910390f35b34801561126057600080fd5b5061128d6004803603602081101561127757600080fd5b810190808035906020019092919050505061281a565b6040518082815260200191505060405180910390f35b61131660048036036101008110156112ba57600080fd5b81019080803590602001909291908035906020019092919080359060200190929190803590602001909291908035906020019092919080359060200190929190803590602001909291908035906020019092919050505061285b565b6040518082815260200191505060405180910390f35b34801561133857600080fd5b5061137b6004803603602081101561134f57600080fd5b81019080803573ffffffffffffffffffffffffffffffffffffffff169060200190929190505050612922565b005b60036020528060005260406000206000915090508060000154908060010154908060020154908060030154908060040154908060050154908060060154908060070154905088565b600080600080600080600080600060036000600654815260200190815260200160002090508060000154816001015482600201548360030154846004015485600501548660060154876007015498509850985098509850985098509850509091929394959697565b6000600554905090565b6000821015801561144a57506005548211155b61145357600080fd5b600060026000848152602001908152602001600020905060008282600601540310156114e7576040517f08c379a00000000000000000000000000000000000000000000000000000000081526004018080602001828103825260108152602001807f53746f636b206e6f7420656e6f7567680000000000000000000000000000000081525060200191505060405180910390fd5b8060050154816006015402341015611567576040517f08c379a00000000000000000000000000000000000000000000000000000000081526004018080602001828103825260128152602001807f496e73756666696369656e742066756e6473000000000000000000000000000081525060200191505060405180910390fd5b818160060160008282540392505081905550505050565b60065481565b60008083116115fb576040517f08c379a00000000000000000000000000000000000000000000000000000000081526004018080602001828103825260118152602001807f756e73617469736669656420707269636500000000000000000000000000000081525060200191505060405180910390fd5b6000821015611672576040517f08c379a00000000000000000000000000000000000000000000000000000000081526004018080602001828103825260118152602001807f756e7361746973666965642073746f636b00000000000000000000000000000081525060200191505060405180910390fd5b6040518060e001604052806005548152602001888152602001878152602001868152602001858152602001848152602001838152506002600060055481526020019081526020016000206000820151816000015560208201518160010190805190602001906116e2929190612aa4565b5060408201518160020190805190602001906116ff929190612aa4565b50606082015181600301908051906020019061171c929190612aa4565b506080820151816004019080519060200190611739929190612aa4565b5060a0820151816005015560c08201518160060155905050600560008154809291906001019190505590509695505050505050565b6000813410156117e6576040517f08c379a00000000000000000000000000000000000000000000000000000000081526004018080602001828103825260108152602001807f496e73756666696369656e74206665650000000000000000000000000000000081525060200191505060405180910390fd5b6004600081548092919060010191905055506040518061012001604052806004548152602001898152602001888152602001878152602001868152602001858152602001848152602001600015158152602001600073ffffffffffffffffffffffffffffffffffffffff1681525060016000600454815260200190815260200160002060008201518160000155602082015181600101908051906020019061188f929190612aa4565b506040820151816002015560608201518160030190805190602001906118b6929190612aa4565b5060808201518160040190805190602001906118d3929190612aa4565b5060a08201518160050190805190602001906118f0929190612aa4565b5060c0820151816006015560e08201518160070160006101000a81548160ff0219169083151502179055506101008201518160070160016101000a81548173ffffffffffffffffffffffffffffffffffffffff021916908373ffffffffffffffffffffffffffffffffffffffff1602179055509050506004549050979650505050505050565b60006060806060806000806000600260008a8152602001908152602001600020905080600001548160010182600201836003018460040185600501548660060154858054600181600116156101000203166002900480601f016020809104026020016040519081016040528092919081815260200182805460018160011615610100020316600290048015611a4c5780601f10611a2157610100808354040283529160200191611a4c565b820191906000526020600020905b815481529060010190602001808311611a2f57829003601f168201915b50505050509550848054600181600116156101000203166002900480601f016020809104026020016040519081016040528092919081815260200182805460018160011615610100020316600290048015611ae85780601f10611abd57610100808354040283529160200191611ae8565b820191906000526020600020905b815481529060010190602001808311611acb57829003601f168201915b50505050509450838054600181600116156101000203166002900480601f016020809104026020016040519081016040528092919081815260200182805460018160011615610100020316600290048015611b845780601f10611b5957610100808354040283529160200191611b84565b820191906000526020600020905b815481529060010190602001808311611b6757829003601f168201915b50505050509350828054600181600116156101000203166002900480601f016020809104026020016040519081016040528092919081815260200182805460018160011615610100020316600290048015611c205780601f10611bf557610100808354040283529160200191611c20565b820191906000526020600020905b815481529060010190602001808311611c0357829003601f168201915b50505050509250975097509750975097509750975050919395979092949650565b6002602052806000526040600020600091509050806000015490806001018054600181600116156101000203166002900480601f016020809104026020016040519081016040528092919081815260200182805460018160011615610100020316600290048015611cf35780601f10611cc857610100808354040283529160200191611cf3565b820191906000526020600020905b815481529060010190602001808311611cd657829003601f168201915b505050505090806002018054600181600116156101000203166002900480601f016020809104026020016040519081016040528092919081815260200182805460018160011615610100020316600290048015611d915780601f10611d6657610100808354040283529160200191611d91565b820191906000526020600020905b815481529060010190602001808311611d7457829003601f168201915b505050505090806003018054600181600116156101000203166002900480601f016020809104026020016040519081016040528092919081815260200182805460018160011615610100020316600290048015611e2f5780601f10611e0457610100808354040283529160200191611e2f565b820191906000526020600020905b815481529060010190602001808311611e1257829003601f168201915b505050505090806004018054600181600116156101000203166002900480601f016020809104026020016040519081016040528092919081815260200182805460018160011615610100020316600290048015611ecd5780601f10611ea257610100808354040283529160200191611ecd565b820191906000526020600020905b815481529060010190602001808311611eb057829003601f168201915b5050505050908060050154908060060154905087565b6000808210158015611ef757506004548211155b611f0057600080fd5b60006001600084815260200190815260200160002090508060070160009054906101000a900460ff1615611f9c576040517f08c379a000000000000000000000000000000000000000000000000000000000815260040180806020018281038252601b8152602001807f546869732070657420697320616c7265616479206164706f746564000000000081525060200191505060405180910390fd5b60018160070160006101000a81548160ff021916908315150217905550338160070160016101000a81548173ffffffffffffffffffffffffffffffffffffffff021916908373ffffffffffffffffffffffffffffffffffffffff16021790555082915050919050565b6000809054906101000a900473ffffffffffffffffffffffffffffffffffffffff1681565b6000811015801561203d57506004548111155b61204657600080fd5b60006001600083815260200190815260200160002090508060070160009054906101000a900460ff16156120e2576040517f08c379a00000000000000000000000000000000000000000000000000000000081526004018080602001828103825260188152602001807f546869732070657420697320616c726561647920736f6c64000000000000000081525060200191505060405180910390fd5b806006015434101561215c576040517f08c379a00000000000000000000000000000000000000000000000000000000081526004018080602001828103825260128152602001807f496e73756666696369656e742066756e6473000000000000000000000000000081525060200191505060405180910390fd5b60018160070160006101000a81548160ff021916908315150217905550338160070160016101000a81548173ffffffffffffffffffffffffffffffffffffffff021916908373ffffffffffffffffffffffffffffffffffffffff1602179055505050565b6000600454905090565b60045481565b6001602052806000526040600020600091509050806000015490806001018054600181600116156101000203166002900480601f0160208091040260200160405190810160405280929190818152602001828054600181600116156101000203166002900480156122825780601f1061225757610100808354040283529160200191612282565b820191906000526020600020905b81548152906001019060200180831161226557829003601f168201915b505050505090806002015490806003018054600181600116156101000203166002900480601f0160208091040260200160405190810160405280929190818152602001828054600181600116156101000203166002900480156123265780601f106122fb57610100808354040283529160200191612326565b820191906000526020600020905b81548152906001019060200180831161230957829003601f168201915b505050505090806004018054600181600116156101000203166002900480601f0160208091040260200160405190810160405280929190818152602001828054600181600116156101000203166002900480156123c45780601f10612399576101008083540402835291602001916123c4565b820191906000526020600020905b8154815290600101906020018083116123a757829003601f168201915b505050505090806005018054600181600116156101000203166002900480601f0160208091040260200160405190810160405280929190818152602001828054600181600116156101000203166002900480156124625780601f1061243757610100808354040283529160200191612462565b820191906000526020600020905b81548152906001019060200180831161244557829003601f168201915b5050505050908060060154908060070160009054906101000a900460ff16908060070160019054906101000a900473ffffffffffffffffffffffffffffffffffffffff16905089565b60006060600060608060606000806000808a101580156124cd57506004548a11155b6124d657600080fd5b6000600160008c81526020019081526020016000209050806000015481600101826002015483600301846004018560050186600601548760070160009054906101000a900460ff168860070160019054906101000a900473ffffffffffffffffffffffffffffffffffffffff16878054600181600116156101000203166002900480601f0160208091040260200160405190810160405280929190818152602001828054600181600116156101000203166002900480156125d85780601f106125ad576101008083540402835291602001916125d8565b820191906000526020600020905b8154815290600101906020018083116125bb57829003601f168201915b50505050509750858054600181600116156101000203166002900480601f0160208091040260200160405190810160405280929190818152602001828054600181600116156101000203166002900480156126745780601f1061264957610100808354040283529160200191612674565b820191906000526020600020905b81548152906001019060200180831161265757829003601f168201915b50505050509550848054600181600116156101000203166002900480601f0160208091040260200160405190810160405280929190818152602001828054600181600116156101000203166002900480156127105780601f106126e557610100808354040283529160200191612710565b820191906000526020600020905b8154815290600101906020018083116126f357829003601f168201915b50505050509450838054600181600116156101000203166002900480601f0160208091040260200160405190810160405280929190818152602001828054600181600116156101000203166002900480156127ac5780601f10612781576101008083540402835291602001916127ac565b820191906000526020600020905b81548152906001019060200180831161278f57829003601f168201915b50505050509350995099509950995099509950995099509950509193959799909294969850565b60055481565b60008082101580156127ed57506004548211155b6127f657600080fd5b60006001600084815260200190815260200160002090508060060154915050919050565b600080821015801561282e57506005548211155b61283757600080fd5b60006002600084815260200190815260200160002090508060050154915050919050565b60006006600081548092919060010191905055506040518061010001604052808a815260200189815260200188815260200187815260200186815260200185815260200184815260200183815250600360006006548152602001908152602001600020600082015181600001556020820151816001015560408201518160020155606082015181600301556080820151816004015560a0820151816005015560c0820151816006015560e08201518160070155905050600654905098975050505050505050565b6000809054906101000a900473ffffffffffffffffffffffffffffffffffffffff1673ffffffffffffffffffffffffffffffffffffffff163373ffffffffffffffffffffffffffffffffffffffff16146129e4576040517f08c379a00000000000000000000000000000000000000000000000000000000081526004018080602001828103825260098152602001807f4e6f74206f776e6572000000000000000000000000000000000000000000000081525060200191505060405180910390fd5b60004711612a5a576040517f08c379a000000000000000000000000000000000000000000000000000000000815260040180806020018281038252600d8152602001807f656d7074792062616c616e63650000000000000000000000000000000000000081525060200191505060405180910390fd5b8073ffffffffffffffffffffffffffffffffffffffff166108fc479081150290604051600060405180830381858888f19350505050158015612aa0573d6000803e3d6000fd5b5050565b828054600181600116156101000203166002900490600052602060002090601f016020900481019282601f10612ae557805160ff1916838001178555612b13565b82800160010185558215612b13579182015b82811115612b12578251825591602001919060010190612af7565b5b509050612b209190612b24565b5090565b612b4691905b80821115612b42576000816000905550600101612b2a565b5090565b9056fea265627a7a7231582023c55bf4a638efdc088f7a216c49852117ab42acf0044054c508d602531bff2764736f6c634300051000324c616d6220262042726f776e20526963652052656369706520446f6720466f6f64",
  "source": "pragma solidity >=0.4.22 <0.9.0;\n\ncontract PetShop {\n    address public owner;\n\n    //struct of a pet's info, picture = ipfs url\n    struct Pet {\n        uint id;\n        string name;\n        uint age;\n        string breed;\n        string location;\n        string photo;\n        uint price;\n        bool isSold;\n        address owner;\n    }\n    \n    struct Product {\n        uint pId;\n        string pName;\n        string pCategory;\n        string pBrand;\n        string picture;\n        uint pPrice;\n        uint stock;\n    }\n\n    struct filter {\n      int conditionAge;\n      int conditionPrice;\n      int conditionStatus;\n      int lowerAge;\n      int higherAge;\n      int lowerPrice;\n      int higherPrice;\n      int isSold;\n    }\n\n    mapping(uint => Pet) public pets;\n    mapping(uint => Product) public products;\n    mapping(uint => filter) public filters;\n\n    uint public petCount;\n    uint public productCount;\n    uint public filterCount;\n\n    constructor() public {\n        petCount = 0;\n        productCount = 0;\n        filterCount =0;\n        owner = msg.sender;\n        addProduct(\"Lamb & Brown Rice Recipe Dog Food\",\"Food&Treats\",\"Performatrin\",\"images/product1.jpg\",1*100000,1000);\n        addProduct(\"Homestead Harvest Adult Cat Food\",\"Food&Treats\",\"ACANA\",\"images/product2.jpg\",2*100000,1000);\n        addProduct(\"Grey & White Hooded Litter Box\",\"Litter&Accessories\",\"Savic\",\"images/product3.jpg\",2*100000,1000);\n        addProduct(\"Giant Litter Scoop\",\"Litter&Accessories\",\"Van Ness\",\"images/product4.jpg\",2*100000,1000);\n        addProduct(\"NatureMates Bird Teaser\",\"Supplies\",\"Jump\",\"images/product5.jpg\",2*100000,1000);\n        addProduct(\"Felix Hammock Cat Condo\",\"Supplies\",\"Jump\",\"images/product6.jpg\",2*100000,1000);\n        addProduct(\"Wellness exams\",\"Service\",\"Pet Good Life\",\"images/product7.jpg\",2*100000,1000);\n        addProduct(\"Vaccinations\",\"Service\",\"Pet Good Life\",\"images/product8.jpg\",2*100000,1000);\n        addProduct(\"Teeth cleaning and dentistry\",\"Service\",\"Pet Good Life\",\"images/product9.jpg\",2*100000,1000);\n        setFilters(0, 0, 0, -1,-1,-1,-1,-1);\n    }\n\n    function addProduct(string memory pName, string memory pCategory, string memory pBrand, string memory picture, uint pPrice, uint stock) public returns (uint){\n        require (pPrice > 0,\"unsatisfied price\");\n        require (stock >= 0,\"unsatisfied stock\");\n        products[productCount] = Product(productCount, pName, pCategory, pBrand, picture, pPrice, stock);\n        return productCount++;\n    }\n    \n\n    function registerPet(string memory _name, uint _age, string memory _breed, \n    string memory _location, string memory _photo, uint _price, uint _fee) public payable returns (uint) {\n        require(msg.value >= _fee, \"Insufficient fee\");\n        petCount++;\n        pets[petCount] = Pet(petCount, _name, _age, _breed, _location, _photo, _price, false, address(0));\n        return petCount;\n    }\n\n    function buyPet(uint _id) external payable {\n        require(_id >= 0 && _id<= petCount);\n        Pet storage pet = pets[_id];\n        require(!pet.isSold, \"This pet is already sold\");\n        require(msg.value >= pet.price, \"Insufficient funds\");\n        pet.isSold = true;\n        pet.owner = msg.sender;\n    }\n    function buyProduct(uint pId, uint amount) external payable {\n        require(pId >= 0 && pId <= productCount);\n        Product storage product = products[pId];\n        require(product.stock-amount >= 0, \"Stock not enough\");\n        require(msg.value >= product.stock * product.pPrice, \"Insufficient funds\");\n        product.stock -= amount;\n    }\n\n    function adopt(uint _id) external returns (uint) {\n        require(_id >= 0 && _id <= petCount);\n        Pet storage pet = pets[_id];\n        require(!pet.isSold, \"This pet is already adpoted\");\n        pet.isSold = true;\n        pet.owner = msg.sender;\n        return _id;\n    }\n\n    function getCount() view external returns (uint) {\n        return petCount;\n    }\n    function getProductCount() view external returns (uint){\n        return productCount;\n    }\n\n    // Retrieving one pet's details\n    function getPetDetails(uint petId) public view returns (uint, string memory, uint, string memory, string memory,\n        string memory, uint, bool, address) {\n        require(petId >= 0 && petId <= petCount);\n        Pet storage p = pets[petId];\n        return (p.id, p.name, p.age, p.breed, p.location, p.photo, p.price, p.isSold, p.owner);\n    }\n    function getProductDetails(uint pId) public view returns (uint, string memory, string memory, string memory, string memory, uint, uint) {\n        Product storage product = products[pId];\n        return (product.pId, product.pName,product.pCategory,product.pBrand,product.picture,product.pPrice,product.stock);\n        // return product;\n    }\n\n    // Retrieving one pet's price\n    function getPrice(uint petId) public view returns (uint) {\n        require(petId >= 0 && petId <= petCount);\n        Pet storage p = pets[petId];\n        return p.price;\n    }\n    function getProductPrice(uint pId) public view returns (uint) {\n        require(pId >= 0 && pId <= productCount);\n        Product storage product = products[pId];\n        return product.pPrice;\n    }\n\n    modifier onlyOwner() {\n        require(msg.sender == owner, \"Not owner\");\n        _;\n    }\n\n    function withdrawAll(address payable _to) external onlyOwner{\n        require(address(this).balance > 0, \"empty balance\");\n        _to.transfer(address(this).balance);\n    }\n\n    function setFilters(int conditionAge, int conditionPrice, int conditionStatus, int lowerAge, int higherAge, int lowerPrice, int higherPrice, int isSold) public payable returns (uint){\n        filterCount++;\n        filters[filterCount] = filter(conditionAge, conditionPrice, conditionStatus, lowerAge, higherAge, lowerPrice, higherPrice, isSold);\n        return filterCount;\n    }\n\n    function getFilters() public view returns (int, int, int, int, int, int, int, int){\n        filter storage f = filters[filterCount];\n        return (f.conditionAge, f.conditionPrice, f.conditionStatus, f.lowerAge, f.higherAge, f.lowerPrice, f.higherPrice, f.isSold);\n    }\n}\n",
  "sourcePath": "/Users/thea/Projects/1050/Pet-Shop-Dapp/contracts/PetShop.sol",
  "compiler": {
    "name": "solc",
    "version": "0.5.16+commit.9c3226ce.Emscripten.clang"
  },
  "schemaVersion": "3.0.22",
  "updatedAt": "2023-04-08T03:41:58.050Z",
  "networkType": "ethereum",
  "devdoc": {
    "methods": {}
  },
  "userdoc": {
    "methods": {}
  }
}