{
  "contractName": "PetShop",
  "abi": [
    {
      "inputs": [],
      "payable": false,
      "stateMutability": "nonpayable",
      "type": "constructor"
    },
    {
      "constant": true,
      "inputs": [],
      "name": "owner",
      "outputs": [
        {
          "internalType": "address",
          "name": "",
          "type": "address"
        }
      ],
      "payable": false,
      "stateMutability": "view",
      "type": "function"
    },
    {
      "constant": true,
      "inputs": [],
      "name": "petCount",
      "outputs": [
        {
          "internalType": "uint256",
          "name": "",
          "type": "uint256"
        }
      ],
      "payable": false,
      "stateMutability": "view",
      "type": "function"
    },
    {
      "constant": true,
      "inputs": [
        {
          "internalType": "uint256",
          "name": "",
          "type": "uint256"
        }
      ],
      "name": "pets",
      "outputs": [
        {
          "internalType": "uint256",
          "name": "id",
          "type": "uint256"
        },
        {
          "internalType": "string",
          "name": "name",
          "type": "string"
        },
        {
          "internalType": "uint256",
          "name": "age",
          "type": "uint256"
        },
        {
          "internalType": "string",
          "name": "breed",
          "type": "string"
        },
        {
          "internalType": "string",
          "name": "location",
          "type": "string"
        },
        {
          "internalType": "string",
          "name": "photo",
          "type": "string"
        },
        {
          "internalType": "uint256",
          "name": "price",
          "type": "uint256"
        },
        {
          "internalType": "bool",
          "name": "isSold",
          "type": "bool"
        },
        {
          "internalType": "address",
          "name": "owner",
          "type": "address"
        }
      ],
      "payable": false,
      "stateMutability": "view",
      "type": "function"
    },
    {
      "constant": true,
      "inputs": [],
      "name": "productCount",
      "outputs": [
        {
          "internalType": "uint256",
          "name": "",
          "type": "uint256"
        }
      ],
      "payable": false,
      "stateMutability": "view",
      "type": "function"
    },
    {
      "constant": true,
      "inputs": [
        {
          "internalType": "uint256",
          "name": "",
          "type": "uint256"
        }
      ],
      "name": "products",
      "outputs": [
        {
          "internalType": "uint256",
          "name": "pId",
          "type": "uint256"
        },
        {
          "internalType": "string",
          "name": "pName",
          "type": "string"
        },
        {
          "internalType": "string",
          "name": "pCategory",
          "type": "string"
        },
        {
          "internalType": "string",
          "name": "pBrand",
          "type": "string"
        },
        {
          "internalType": "string",
          "name": "picture",
          "type": "string"
        },
        {
          "internalType": "uint256",
          "name": "pPrice",
          "type": "uint256"
        },
        {
          "internalType": "uint256",
          "name": "stock",
          "type": "uint256"
        }
      ],
      "payable": false,
      "stateMutability": "view",
      "type": "function"
    },
    {
      "constant": false,
      "inputs": [
        {
          "internalType": "string",
          "name": "pName",
          "type": "string"
        },
        {
          "internalType": "string",
          "name": "pCategory",
          "type": "string"
        },
        {
          "internalType": "string",
          "name": "pBrand",
          "type": "string"
        },
        {
          "internalType": "string",
          "name": "picture",
          "type": "string"
        },
        {
          "internalType": "uint256",
          "name": "pPrice",
          "type": "uint256"
        },
        {
          "internalType": "uint256",
          "name": "stock",
          "type": "uint256"
        }
      ],
      "name": "addProduct",
      "outputs": [
        {
          "internalType": "uint256",
          "name": "",
          "type": "uint256"
        }
      ],
      "payable": false,
      "stateMutability": "nonpayable",
      "type": "function"
    },
    {
      "constant": false,
      "inputs": [
        {
          "internalType": "string",
          "name": "_name",
          "type": "string"
        },
        {
          "internalType": "uint256",
          "name": "_age",
          "type": "uint256"
        },
        {
          "internalType": "string",
          "name": "_breed",
          "type": "string"
        },
        {
          "internalType": "string",
          "name": "_location",
          "type": "string"
        },
        {
          "internalType": "string",
          "name": "_photo",
          "type": "string"
        },
        {
          "internalType": "uint256",
          "name": "_price",
          "type": "uint256"
        },
        {
          "internalType": "uint256",
          "name": "_fee",
          "type": "uint256"
        }
      ],
      "name": "registerPet",
      "outputs": [
        {
          "internalType": "uint256",
          "name": "",
          "type": "uint256"
        }
      ],
      "payable": true,
      "stateMutability": "payable",
      "type": "function"
    },
    {
      "constant": false,
      "inputs": [
        {
          "internalType": "uint256",
          "name": "_id",
          "type": "uint256"
        }
      ],
      "name": "buyPet",
      "outputs": [],
      "payable": true,
      "stateMutability": "payable",
      "type": "function"
    },
    {
      "constant": false,
      "inputs": [
        {
          "internalType": "uint256",
          "name": "pId",
          "type": "uint256"
        },
        {
          "internalType": "uint256",
          "name": "amount",
          "type": "uint256"
        }
      ],
      "name": "buyProduct",
      "outputs": [],
      "payable": true,
      "stateMutability": "payable",
      "type": "function"
    },
    {
      "constant": false,
      "inputs": [
        {
          "internalType": "uint256",
          "name": "_id",
          "type": "uint256"
        }
      ],
      "name": "adopt",
      "outputs": [
        {
          "internalType": "uint256",
          "name": "",
          "type": "uint256"
        }
      ],
      "payable": false,
      "stateMutability": "nonpayable",
      "type": "function"
    },
    {
      "constant": true,
      "inputs": [],
      "name": "getCount",
      "outputs": [
        {
          "internalType": "uint256",
          "name": "",
          "type": "uint256"
        }
      ],
      "payable": false,
      "stateMutability": "view",
      "type": "function"
    },
    {
      "constant": true,
      "inputs": [],
      "name": "getProductCount",
      "outputs": [
        {
          "internalType": "uint256",
          "name": "",
          "type": "uint256"
        }
      ],
      "payable": false,
      "stateMutability": "view",
      "type": "function"
    },
    {
      "constant": true,
      "inputs": [
        {
          "internalType": "uint256",
          "name": "petId",
          "type": "uint256"
        }
      ],
      "name": "getPetDetails",
      "outputs": [
        {
          "internalType": "uint256",
          "name": "",
          "type": "uint256"
        },
        {
          "internalType": "string",
          "name": "",
          "type": "string"
        },
        {
          "internalType": "uint256",
          "name": "",
          "type": "uint256"
        },
        {
          "internalType": "string",
          "name": "",
          "type": "string"
        },
        {
          "internalType": "string",
          "name": "",
          "type": "string"
        },
        {
          "internalType": "string",
          "name": "",
          "type": "string"
        },
        {
          "internalType": "uint256",
          "name": "",
          "type": "uint256"
        },
        {
          "internalType": "bool",
          "name": "",
          "type": "bool"
        },
        {
          "internalType": "address",
          "name": "",
          "type": "address"
        }
      ],
      "payable": false,
      "stateMutability": "view",
      "type": "function"
    },
    {
      "constant": true,
      "inputs": [
        {
          "internalType": "uint256",
          "name": "pId",
          "type": "uint256"
        }
      ],
      "name": "getProductDetails",
      "outputs": [
        {
          "internalType": "uint256",
          "name": "",
          "type": "uint256"
        },
        {
          "internalType": "string",
          "name": "",
          "type": "string"
        },
        {
          "internalType": "string",
          "name": "",
          "type": "string"
        },
        {
          "internalType": "string",
          "name": "",
          "type": "string"
        },
        {
          "internalType": "string",
          "name": "",
          "type": "string"
        },
        {
          "internalType": "uint256",
          "name": "",
          "type": "uint256"
        },
        {
          "internalType": "uint256",
          "name": "",
          "type": "uint256"
        }
      ],
      "payable": false,
      "stateMutability": "view",
      "type": "function"
    },
    {
      "constant": true,
      "inputs": [
        {
          "internalType": "uint256",
          "name": "petId",
          "type": "uint256"
        }
      ],
      "name": "getPrice",
      "outputs": [
        {
          "internalType": "uint256",
          "name": "",
          "type": "uint256"
        }
      ],
      "payable": false,
      "stateMutability": "view",
      "type": "function"
    },
    {
      "constant": true,
      "inputs": [
        {
          "internalType": "uint256",
          "name": "pId",
          "type": "uint256"
        }
      ],
      "name": "getProductPrice",
      "outputs": [
        {
          "internalType": "uint256",
          "name": "",
          "type": "uint256"
        }
      ],
      "payable": false,
      "stateMutability": "view",
      "type": "function"
    },
    {
      "constant": false,
      "inputs": [
        {
          "internalType": "address payable",
          "name": "_to",
          "type": "address"
        }
      ],
      "name": "withdrawAll",
      "outputs": [],
      "payable": false,
      "stateMutability": "nonpayable",
      "type": "function"
    }
  ],
  "bytecode": "0x60806040523480156200001157600080fd5b5060006003819055506000600481905550336000806101000a81548173ffffffffffffffffffffffffffffffffffffffff021916908373ffffffffffffffffffffffffffffffffffffffff16021790555062000135604051806060016040528060218152602001620033b4602191396040518060400160405280600b81526020017f466f6f64265472656174730000000000000000000000000000000000000000008152506040518060400160405280600c81526020017f506572666f726d617472696e00000000000000000000000000000000000000008152506040518060400160405280601381526020017f696d616765732f70726f64756374312e6a706700000000000000000000000000815250620186a06103e8620008bc60201b60201c565b50620002256040518060400160405280602081526020017f486f6d6573746561642048617276657374204164756c742043617420466f6f648152506040518060400160405280600b81526020017f466f6f64265472656174730000000000000000000000000000000000000000008152506040518060400160405280600581526020017f4143414e410000000000000000000000000000000000000000000000000000008152506040518060400160405280601381526020017f696d616765732f70726f64756374322e6a70670000000000000000000000000081525062030d406103e8620008bc60201b60201c565b50620003156040518060400160405280601e81526020017f47726579202620576869746520486f6f646564204c697474657220426f7800008152506040518060400160405280601281526020017f4c6974746572264163636573736f7269657300000000000000000000000000008152506040518060400160405280600581526020017f53617669630000000000000000000000000000000000000000000000000000008152506040518060400160405280601381526020017f696d616765732f70726f64756374332e6a70670000000000000000000000000081525062030d406103e8620008bc60201b60201c565b50620004056040518060400160405280601281526020017f4769616e74204c69747465722053636f6f7000000000000000000000000000008152506040518060400160405280601281526020017f4c6974746572264163636573736f7269657300000000000000000000000000008152506040518060400160405280600881526020017f56616e204e6573730000000000000000000000000000000000000000000000008152506040518060400160405280601381526020017f696d616765732f70726f64756374342e6a70670000000000000000000000000081525062030d406103e8620008bc60201b60201c565b50620004f56040518060400160405280601781526020017f4e61747572654d617465732042697264205465617365720000000000000000008152506040518060400160405280600881526020017f537570706c6965730000000000000000000000000000000000000000000000008152506040518060400160405280600481526020017f4a756d70000000000000000000000000000000000000000000000000000000008152506040518060400160405280601381526020017f696d616765732f70726f64756374352e6a70670000000000000000000000000081525062030d406103e8620008bc60201b60201c565b50620005e56040518060400160405280601781526020017f46656c69782048616d6d6f636b2043617420436f6e646f0000000000000000008152506040518060400160405280600881526020017f537570706c6965730000000000000000000000000000000000000000000000008152506040518060400160405280600481526020017f4a756d70000000000000000000000000000000000000000000000000000000008152506040518060400160405280601381526020017f696d616765732f70726f64756374362e6a70670000000000000000000000000081525062030d406103e8620008bc60201b60201c565b50620006d56040518060400160405280600e81526020017f57656c6c6e657373206578616d730000000000000000000000000000000000008152506040518060400160405280600781526020017f53657276696365000000000000000000000000000000000000000000000000008152506040518060400160405280600d81526020017f50657420476f6f64204c696665000000000000000000000000000000000000008152506040518060400160405280601381526020017f696d616765732f70726f64756374372e6a70670000000000000000000000000081525062030d406103e8620008bc60201b60201c565b50620007c56040518060400160405280600c81526020017f56616363696e6174696f6e7300000000000000000000000000000000000000008152506040518060400160405280600781526020017f53657276696365000000000000000000000000000000000000000000000000008152506040518060400160405280600d81526020017f50657420476f6f64204c696665000000000000000000000000000000000000008152506040518060400160405280601381526020017f696d616765732f70726f64756374382e6a70670000000000000000000000000081525062030d406103e8620008bc60201b60201c565b50620008b56040518060400160405280601c81526020017f546565746820636c65616e696e6720616e642064656e746973747279000000008152506040518060400160405280600781526020017f53657276696365000000000000000000000000000000000000000000000000008152506040518060400160405280600d81526020017f50657420476f6f64204c696665000000000000000000000000000000000000008152506040518060400160405280601381526020017f696d616765732f70726f64756374392e6a70670000000000000000000000000081525062030d406103e8620008bc60201b60201c565b5062000b5f565b600080831162000934576040517f08c379a00000000000000000000000000000000000000000000000000000000081526004018080602001828103825260118152602001807f756e73617469736669656420707269636500000000000000000000000000000081525060200191505060405180910390fd5b6000821015620009ac576040517f08c379a00000000000000000000000000000000000000000000000000000000081526004018080602001828103825260118152602001807f756e7361746973666965642073746f636b00000000000000000000000000000081525060200191505060405180910390fd5b6040518060e0016040528060045481526020018881526020018781526020018681526020018581526020018481526020018381525060026000600454815260200190815260200160002060008201518160000155602082015181600101908051906020019062000a1e92919062000ab0565b50604082015181600201908051906020019062000a3d92919062000ab0565b50606082015181600301908051906020019062000a5c92919062000ab0565b50608082015181600401908051906020019062000a7b92919062000ab0565b5060a0820151816005015560c08201518160060155905050600460008154809291906001019190505590509695505050505050565b828054600181600116156101000203166002900490600052602060002090601f016020900481019282601f1062000af357805160ff191683800117855562000b24565b8280016001018555821562000b24579182015b8281111562000b2357825182559160200191906001019062000b06565b5b50905062000b33919062000b37565b5090565b62000b5c91905b8082111562000b5857600081600090555060010162000b3e565b5090565b90565b6128458062000b6f6000396000f3fe6080604052600436106100fe5760003560e01c80639edded1111610095578063d89fd4b411610064578063d89fd4b414610e5c578063e0f6ef87146110a7578063e7572230146110d2578063e7bf7dfc14611121578063fa09e63014611170576100fe565b80639edded1114610b8d578063a87d942c14610bbb578063cd619f5814610be6578063cfb869bf14610c11576100fe565b80636813b53b116100d15780636813b53b146106cd5780637acc0b20146108da5780638588b2c514610ae75780638da5cb5b14610b36576100fe565b80634a348da91461010357806353b628661461012e57806361655e121461016657806364da52bc1461041b575b600080fd5b34801561010f57600080fd5b506101186111c1565b6040518082815260200191505060405180910390f35b6101646004803603604081101561014457600080fd5b8101908080359060200190929190803590602001909291905050506111cb565b005b34801561017257600080fd5b50610405600480360360c081101561018957600080fd5b81019080803590602001906401000000008111156101a657600080fd5b8201836020820111156101b857600080fd5b803590602001918460018302840111640100000000831117156101da57600080fd5b91908080601f016020809104026020016040519081016040528093929190818152602001838380828437600081840152601f19601f8201169050808301925050505050505091929192908035906020019064010000000081111561023d57600080fd5b82018360208201111561024f57600080fd5b8035906020019184600183028401116401000000008311171561027157600080fd5b91908080601f016020809104026020016040519081016040528093929190818152602001838380828437600081840152601f19601f820116905080830192505050505050509192919290803590602001906401000000008111156102d457600080fd5b8201836020820111156102e657600080fd5b8035906020019184600183028401116401000000008311171561030857600080fd5b91908080601f016020809104026020016040519081016040528093929190818152602001838380828437600081840152601f19601f8201169050808301925050505050505091929192908035906020019064010000000081111561036b57600080fd5b82018360208201111561037d57600080fd5b8035906020019184600183028401116401000000008311171561039f57600080fd5b91908080601f016020809104026020016040519081016040528093929190818152602001838380828437600081840152601f19601f8201169050808301925050505050505091929192908035906020019092919080359060200190929190505050611312565b6040518082815260200191505060405180910390f35b6106b7600480360360e081101561043157600080fd5b810190808035906020019064010000000081111561044e57600080fd5b82018360208201111561046057600080fd5b8035906020019184600183028401116401000000008311171561048257600080fd5b91908080601f016020809104026020016040519081016040528093929190818152602001838380828437600081840152601f19601f82011690508083019250505050505050919291929080359060200190929190803590602001906401000000008111156104ef57600080fd5b82018360208201111561050157600080fd5b8035906020019184600183028401116401000000008311171561052357600080fd5b91908080601f016020809104026020016040519081016040528093929190818152602001838380828437600081840152601f19601f8201169050808301925050505050505091929192908035906020019064010000000081111561058657600080fd5b82018360208201111561059857600080fd5b803590602001918460018302840111640100000000831117156105ba57600080fd5b91908080601f016020809104026020016040519081016040528093929190818152602001838380828437600081840152601f19601f8201169050808301925050505050505091929192908035906020019064010000000081111561061d57600080fd5b82018360208201111561062f57600080fd5b8035906020019184600183028401116401000000008311171561065157600080fd5b91908080601f016020809104026020016040519081016040528093929190818152602001838380828437600081840152601f19601f82011690508083019250505050505050919291929080359060200190929190803590602001909291905050506114fc565b6040518082815260200191505060405180910390f35b3480156106d957600080fd5b50610706600480360360208110156106f057600080fd5b8101908080359060200190929190505050611704565b604051808881526020018060200180602001806020018060200187815260200186815260200185810385528b818151815260200191508051906020019080838360005b83811015610764578082015181840152602081019050610749565b50505050905090810190601f1680156107915780820380516001836020036101000a031916815260200191505b5085810384528a818151815260200191508051906020019080838360005b838110156107ca5780820151818401526020810190506107af565b50505050905090810190601f1680156107f75780820380516001836020036101000a031916815260200191505b50858103835289818151815260200191508051906020019080838360005b83811015610830578082015181840152602081019050610815565b50505050905090810190601f16801561085d5780820380516001836020036101000a031916815260200191505b50858103825288818151815260200191508051906020019080838360005b8381101561089657808201518184015260208101905061087b565b50505050905090810190601f1680156108c35780820380516001836020036101000a031916815260200191505b509b50505050505050505050505060405180910390f35b3480156108e657600080fd5b50610913600480360360208110156108fd57600080fd5b81019080803590602001909291905050506119cf565b604051808881526020018060200180602001806020018060200187815260200186815260200185810385528b818151815260200191508051906020019080838360005b83811015610971578082015181840152602081019050610956565b50505050905090810190601f16801561099e5780820380516001836020036101000a031916815260200191505b5085810384528a818151815260200191508051906020019080838360005b838110156109d75780820151818401526020810190506109bc565b50505050905090810190601f168015610a045780820380516001836020036101000a031916815260200191505b50858103835289818151815260200191508051906020019080838360005b83811015610a3d578082015181840152602081019050610a22565b50505050905090810190601f168015610a6a5780820380516001836020036101000a031916815260200191505b50858103825288818151815260200191508051906020019080838360005b83811015610aa3578082015181840152602081019050610a88565b50505050905090810190601f168015610ad05780820380516001836020036101000a031916815260200191505b509b50505050505050505050505060405180910390f35b348015610af357600080fd5b50610b2060048036036020811015610b0a57600080fd5b8101908080359060200190929190505050611c71565b6040518082815260200191505060405180910390f35b348015610b4257600080fd5b50610b4b611d93565b604051808273ffffffffffffffffffffffffffffffffffffffff1673ffffffffffffffffffffffffffffffffffffffff16815260200191505060405180910390f35b610bb960048036036020811015610ba357600080fd5b8101908080359060200190929190505050611db8565b005b348015610bc757600080fd5b50610bd0611f4e565b6040518082815260200191505060405180910390f35b348015610bf257600080fd5b50610bfb611f58565b6040518082815260200191505060405180910390f35b348015610c1d57600080fd5b50610c4a60048036036020811015610c3457600080fd5b8101908080359060200190929190505050611f5e565b604051808a815260200180602001898152602001806020018060200180602001888152602001871515151581526020018673ffffffffffffffffffffffffffffffffffffffff1673ffffffffffffffffffffffffffffffffffffffff16815260200185810385528d818151815260200191508051906020019080838360005b83811015610ce4578082015181840152602081019050610cc9565b50505050905090810190601f168015610d115780820380516001836020036101000a031916815260200191505b5085810384528b818151815260200191508051906020019080838360005b83811015610d4a578082015181840152602081019050610d2f565b50505050905090810190601f168015610d775780820380516001836020036101000a031916815260200191505b5085810383528a818151815260200191508051906020019080838360005b83811015610db0578082015181840152602081019050610d95565b50505050905090810190601f168015610ddd5780820380516001836020036101000a031916815260200191505b50858103825289818151815260200191508051906020019080838360005b83811015610e16578082015181840152602081019050610dfb565b50505050905090810190601f168015610e435780820380516001836020036101000a031916815260200191505b509d505050505050505050505050505060405180910390f35b348015610e6857600080fd5b50610e9560048036036020811015610e7f57600080fd5b8101908080359060200190929190505050612239565b604051808a815260200180602001898152602001806020018060200180602001888152602001871515151581526020018673ffffffffffffffffffffffffffffffffffffffff1673ffffffffffffffffffffffffffffffffffffffff16815260200185810385528d818151815260200191508051906020019080838360005b83811015610f2f578082015181840152602081019050610f14565b50505050905090810190601f168015610f5c5780820380516001836020036101000a031916815260200191505b5085810384528b818151815260200191508051906020019080838360005b83811015610f95578082015181840152602081019050610f7a565b50505050905090810190601f168015610fc25780820380516001836020036101000a031916815260200191505b5085810383528a818151815260200191508051906020019080838360005b83811015610ffb578082015181840152602081019050610fe0565b50505050905090810190601f1680156110285780820380516001836020036101000a031916815260200191505b50858103825289818151815260200191508051906020019080838360005b83811015611061578082015181840152602081019050611046565b50505050905090810190601f16801561108e5780820380516001836020036101000a031916815260200191505b509d505050505050505050505050505060405180910390f35b3480156110b357600080fd5b506110bc612561565b6040518082815260200191505060405180910390f35b3480156110de57600080fd5b5061110b600480360360208110156110f557600080fd5b8101908080359060200190929190505050612567565b6040518082815260200191505060405180910390f35b34801561112d57600080fd5b5061115a6004803603602081101561114457600080fd5b81019080803590602001909291905050506125a8565b6040518082815260200191505060405180910390f35b34801561117c57600080fd5b506111bf6004803603602081101561119357600080fd5b81019080803573ffffffffffffffffffffffffffffffffffffffff1690602001909291905050506125e9565b005b6000600454905090565b600082101580156111de57506004548211155b6111e757600080fd5b6000600260008481526020019081526020016000209050600082826006015403101561127b576040517f08c379a00000000000000000000000000000000000000000000000000000000081526004018080602001828103825260108152602001807f53746f636b206e6f7420656e6f7567680000000000000000000000000000000081525060200191505060405180910390fd5b80600501548160060154023410156112fb576040517f08c379a00000000000000000000000000000000000000000000000000000000081526004018080602001828103825260128152602001807f496e73756666696369656e742066756e6473000000000000000000000000000081525060200191505060405180910390fd5b818160060160008282540392505081905550505050565b6000808311611389576040517f08c379a00000000000000000000000000000000000000000000000000000000081526004018080602001828103825260118152602001807f756e73617469736669656420707269636500000000000000000000000000000081525060200191505060405180910390fd5b6000821015611400576040517f08c379a00000000000000000000000000000000000000000000000000000000081526004018080602001828103825260118152602001807f756e7361746973666965642073746f636b00000000000000000000000000000081525060200191505060405180910390fd5b6040518060e0016040528060045481526020018881526020018781526020018681526020018581526020018481526020018381525060026000600454815260200190815260200160002060008201518160000155602082015181600101908051906020019061147092919061276b565b50604082015181600201908051906020019061148d92919061276b565b5060608201518160030190805190602001906114aa92919061276b565b5060808201518160040190805190602001906114c792919061276b565b5060a0820151816005015560c08201518160060155905050600460008154809291906001019190505590509695505050505050565b600081341015611574576040517f08c379a00000000000000000000000000000000000000000000000000000000081526004018080602001828103825260108152602001807f496e73756666696369656e74206665650000000000000000000000000000000081525060200191505060405180910390fd5b6003600081548092919060010191905055506040518061012001604052806003548152602001898152602001888152602001878152602001868152602001858152602001848152602001600015158152602001600073ffffffffffffffffffffffffffffffffffffffff1681525060016000600354815260200190815260200160002060008201518160000155602082015181600101908051906020019061161d92919061276b565b5060408201518160020155606082015181600301908051906020019061164492919061276b565b50608082015181600401908051906020019061166192919061276b565b5060a082015181600501908051906020019061167e92919061276b565b5060c0820151816006015560e08201518160070160006101000a81548160ff0219169083151502179055506101008201518160070160016101000a81548173ffffffffffffffffffffffffffffffffffffffff021916908373ffffffffffffffffffffffffffffffffffffffff1602179055509050506003549050979650505050505050565b60006060806060806000806000600260008a8152602001908152602001600020905080600001548160010182600201836003018460040185600501548660060154858054600181600116156101000203166002900480601f0160208091040260200160405190810160405280929190818152602001828054600181600116156101000203166002900480156117da5780601f106117af576101008083540402835291602001916117da565b820191906000526020600020905b8154815290600101906020018083116117bd57829003601f168201915b50505050509550848054600181600116156101000203166002900480601f0160208091040260200160405190810160405280929190818152602001828054600181600116156101000203166002900480156118765780601f1061184b57610100808354040283529160200191611876565b820191906000526020600020905b81548152906001019060200180831161185957829003601f168201915b50505050509450838054600181600116156101000203166002900480601f0160208091040260200160405190810160405280929190818152602001828054600181600116156101000203166002900480156119125780601f106118e757610100808354040283529160200191611912565b820191906000526020600020905b8154815290600101906020018083116118f557829003601f168201915b50505050509350828054600181600116156101000203166002900480601f0160208091040260200160405190810160405280929190818152602001828054600181600116156101000203166002900480156119ae5780601f10611983576101008083540402835291602001916119ae565b820191906000526020600020905b81548152906001019060200180831161199157829003601f168201915b50505050509250975097509750975097509750975050919395979092949650565b6002602052806000526040600020600091509050806000015490806001018054600181600116156101000203166002900480601f016020809104026020016040519081016040528092919081815260200182805460018160011615610100020316600290048015611a815780601f10611a5657610100808354040283529160200191611a81565b820191906000526020600020905b815481529060010190602001808311611a6457829003601f168201915b505050505090806002018054600181600116156101000203166002900480601f016020809104026020016040519081016040528092919081815260200182805460018160011615610100020316600290048015611b1f5780601f10611af457610100808354040283529160200191611b1f565b820191906000526020600020905b815481529060010190602001808311611b0257829003601f168201915b505050505090806003018054600181600116156101000203166002900480601f016020809104026020016040519081016040528092919081815260200182805460018160011615610100020316600290048015611bbd5780601f10611b9257610100808354040283529160200191611bbd565b820191906000526020600020905b815481529060010190602001808311611ba057829003601f168201915b505050505090806004018054600181600116156101000203166002900480601f016020809104026020016040519081016040528092919081815260200182805460018160011615610100020316600290048015611c5b5780601f10611c3057610100808354040283529160200191611c5b565b820191906000526020600020905b815481529060010190602001808311611c3e57829003601f168201915b5050505050908060050154908060060154905087565b6000808210158015611c8557506003548211155b611c8e57600080fd5b60006001600084815260200190815260200160002090508060070160009054906101000a900460ff1615611d2a576040517f08c379a000000000000000000000000000000000000000000000000000000000815260040180806020018281038252601b8152602001807f546869732070657420697320616c7265616479206164706f746564000000000081525060200191505060405180910390fd5b60018160070160006101000a81548160ff021916908315150217905550338160070160016101000a81548173ffffffffffffffffffffffffffffffffffffffff021916908373ffffffffffffffffffffffffffffffffffffffff16021790555082915050919050565b6000809054906101000a900473ffffffffffffffffffffffffffffffffffffffff1681565b60008110158015611dcb57506003548111155b611dd457600080fd5b60006001600083815260200190815260200160002090508060070160009054906101000a900460ff1615611e70576040517f08c379a00000000000000000000000000000000000000000000000000000000081526004018080602001828103825260188152602001807f546869732070657420697320616c726561647920736f6c64000000000000000081525060200191505060405180910390fd5b8060060154341015611eea576040517f08c379a00000000000000000000000000000000000000000000000000000000081526004018080602001828103825260128152602001807f496e73756666696369656e742066756e6473000000000000000000000000000081525060200191505060405180910390fd5b60018160070160006101000a81548160ff021916908315150217905550338160070160016101000a81548173ffffffffffffffffffffffffffffffffffffffff021916908373ffffffffffffffffffffffffffffffffffffffff1602179055505050565b6000600354905090565b60035481565b6001602052806000526040600020600091509050806000015490806001018054600181600116156101000203166002900480601f0160208091040260200160405190810160405280929190818152602001828054600181600116156101000203166002900480156120105780601f10611fe557610100808354040283529160200191612010565b820191906000526020600020905b815481529060010190602001808311611ff357829003601f168201915b505050505090806002015490806003018054600181600116156101000203166002900480601f0160208091040260200160405190810160405280929190818152602001828054600181600116156101000203166002900480156120b45780601f10612089576101008083540402835291602001916120b4565b820191906000526020600020905b81548152906001019060200180831161209757829003601f168201915b505050505090806004018054600181600116156101000203166002900480601f0160208091040260200160405190810160405280929190818152602001828054600181600116156101000203166002900480156121525780601f1061212757610100808354040283529160200191612152565b820191906000526020600020905b81548152906001019060200180831161213557829003601f168201915b505050505090806005018054600181600116156101000203166002900480601f0160208091040260200160405190810160405280929190818152602001828054600181600116156101000203166002900480156121f05780601f106121c5576101008083540402835291602001916121f0565b820191906000526020600020905b8154815290600101906020018083116121d357829003601f168201915b5050505050908060060154908060070160009054906101000a900460ff16908060070160019054906101000a900473ffffffffffffffffffffffffffffffffffffffff16905089565b60006060600060608060606000806000808a1015801561225b57506003548a11155b61226457600080fd5b6000600160008c81526020019081526020016000209050806000015481600101826002015483600301846004018560050186600601548760070160009054906101000a900460ff168860070160019054906101000a900473ffffffffffffffffffffffffffffffffffffffff16878054600181600116156101000203166002900480601f0160208091040260200160405190810160405280929190818152602001828054600181600116156101000203166002900480156123665780601f1061233b57610100808354040283529160200191612366565b820191906000526020600020905b81548152906001019060200180831161234957829003601f168201915b50505050509750858054600181600116156101000203166002900480601f0160208091040260200160405190810160405280929190818152602001828054600181600116156101000203166002900480156124025780601f106123d757610100808354040283529160200191612402565b820191906000526020600020905b8154815290600101906020018083116123e557829003601f168201915b50505050509550848054600181600116156101000203166002900480601f01602080910402602001604051908101604052809291908181526020018280546001816001161561010002031660029004801561249e5780601f106124735761010080835404028352916020019161249e565b820191906000526020600020905b81548152906001019060200180831161248157829003601f168201915b50505050509450838054600181600116156101000203166002900480601f01602080910402602001604051908101604052809291908181526020018280546001816001161561010002031660029004801561253a5780601f1061250f5761010080835404028352916020019161253a565b820191906000526020600020905b81548152906001019060200180831161251d57829003601f168201915b50505050509350995099509950995099509950995099509950509193959799909294969850565b60045481565b600080821015801561257b57506003548211155b61258457600080fd5b60006001600084815260200190815260200160002090508060060154915050919050565b60008082101580156125bc57506004548211155b6125c557600080fd5b60006002600084815260200190815260200160002090508060050154915050919050565b6000809054906101000a900473ffffffffffffffffffffffffffffffffffffffff1673ffffffffffffffffffffffffffffffffffffffff163373ffffffffffffffffffffffffffffffffffffffff16146126ab576040517f08c379a00000000000000000000000000000000000000000000000000000000081526004018080602001828103825260098152602001807f4e6f74206f776e6572000000000000000000000000000000000000000000000081525060200191505060405180910390fd5b60004711612721576040517f08c379a000000000000000000000000000000000000000000000000000000000815260040180806020018281038252600d8152602001807f656d7074792062616c616e63650000000000000000000000000000000000000081525060200191505060405180910390fd5b8073ffffffffffffffffffffffffffffffffffffffff166108fc479081150290604051600060405180830381858888f19350505050158015612767573d6000803e3d6000fd5b5050565b828054600181600116156101000203166002900490600052602060002090601f016020900481019282601f106127ac57805160ff19168380011785556127da565b828001600101855582156127da579182015b828111156127d95782518255916020019190600101906127be565b5b5090506127e791906127eb565b5090565b61280d91905b808211156128095760008160009055506001016127f1565b5090565b9056fea265627a7a7231582020523ee06e02b62d0426902db0bc62c0399dbfcf8caf8132fff653c61804fc6264736f6c634300051000324c616d6220262042726f776e20526963652052656369706520446f6720466f6f64",
  "source": "pragma solidity >=0.4.22 <0.9.0;\n\ncontract PetShop {\n    address public owner;\n\n    //struct of a pet's info, picture = ipfs url\n    struct Pet {\n        uint id;\n        string name;\n        uint age;\n        string breed;\n        string location;\n        string photo;\n        uint price;\n        bool isSold;\n        address owner;\n    }\n    struct Product {\n        uint pId;\n        string pName;\n        string pCategory;\n        string pBrand;\n        string picture;\n        uint pPrice;\n        uint stock;\n    }\n\n    mapping(uint => Pet) public pets;\n    mapping(uint => Product) public products;\n\n    uint public petCount;\n    uint public productCount;\n\n    constructor() public {\n        petCount = 0;\n        productCount = 0;\n        owner = msg.sender;\n        addProduct(\"Lamb & Brown Rice Recipe Dog Food\",\"Food&Treats\",\"Performatrin\",\"images/product1.jpg\",1*100000,1000);\n        addProduct(\"Homestead Harvest Adult Cat Food\",\"Food&Treats\",\"ACANA\",\"images/product2.jpg\",2*100000,1000);\n        addProduct(\"Grey & White Hooded Litter Box\",\"Litter&Accessories\",\"Savic\",\"images/product3.jpg\",2*100000,1000);\n        addProduct(\"Giant Litter Scoop\",\"Litter&Accessories\",\"Van Ness\",\"images/product4.jpg\",2*100000,1000);\n        addProduct(\"NatureMates Bird Teaser\",\"Supplies\",\"Jump\",\"images/product5.jpg\",2*100000,1000);\n        addProduct(\"Felix Hammock Cat Condo\",\"Supplies\",\"Jump\",\"images/product6.jpg\",2*100000,1000);\n        addProduct(\"Wellness exams\",\"Service\",\"Pet Good Life\",\"images/product7.jpg\",2*100000,1000);\n        addProduct(\"Vaccinations\",\"Service\",\"Pet Good Life\",\"images/product8.jpg\",2*100000,1000);\n        addProduct(\"Teeth cleaning and dentistry\",\"Service\",\"Pet Good Life\",\"images/product9.jpg\",2*100000,1000);\n    }\n\n    function addProduct(string memory pName, string memory pCategory, string memory pBrand, string memory picture, uint pPrice, uint stock) public returns (uint){\n        require (pPrice > 0,\"unsatisfied price\");\n        require (stock >= 0,\"unsatisfied stock\");\n        products[productCount] = Product(productCount, pName, pCategory, pBrand, picture, pPrice, stock);\n        return productCount++;\n    }\n    \n\n    function registerPet(string memory _name, uint _age, string memory _breed, \n    string memory _location, string memory _photo, uint _price, uint _fee) public payable returns (uint) {\n        require(msg.value >= _fee, \"Insufficient fee\");\n        petCount++;\n        pets[petCount] = Pet(petCount, _name, _age, _breed, _location, _photo, _price, false, address(0));\n        return petCount;\n    }\n\n    function buyPet(uint _id) external payable {\n        require(_id >= 0 && _id<= petCount);\n        Pet storage pet = pets[_id];\n        require(!pet.isSold, \"This pet is already sold\");\n        require(msg.value >= pet.price, \"Insufficient funds\");\n        pet.isSold = true;\n        pet.owner = msg.sender;\n    }\n    function buyProduct(uint pId, uint amount) external payable {\n        require(pId >= 0 && pId <= productCount);\n        Product storage product = products[pId];\n        require(product.stock-amount >= 0, \"Stock not enough\");\n        require(msg.value >= product.stock * product.pPrice, \"Insufficient funds\");\n        product.stock -= amount;\n    }\n\n    function adopt(uint _id) external returns (uint) {\n        require(_id >= 0 && _id <= petCount);\n        Pet storage pet = pets[_id];\n        require(!pet.isSold, \"This pet is already adpoted\");\n        pet.isSold = true;\n        pet.owner = msg.sender;\n        return _id;\n    }\n\n    function getCount() view external returns (uint) {\n        return petCount;\n    }\n    function getProductCount() view external returns (uint){\n        return productCount;\n    }\n\n    // Retrieving one pet's details\n    function getPetDetails(uint petId) public view returns (uint, string memory, uint, string memory, string memory,\n        string memory, uint, bool, address) {\n        require(petId >= 0 && petId <= petCount);\n        Pet storage p = pets[petId];\n        return (p.id, p.name, p.age, p.breed, p.location, p.photo, p.price, p.isSold, p.owner);\n    }\n    function getProductDetails(uint pId) public view returns (uint, string memory, string memory, string memory, string memory, uint, uint) {\n        Product storage product = products[pId];\n        return (product.pId, product.pName,product.pCategory,product.pBrand,product.picture,product.pPrice,product.stock);\n        // return product;\n    }\n\n    // Retrieving one pet's price\n    function getPrice(uint petId) public view returns (uint) {\n        require(petId >= 0 && petId <= petCount);\n        Pet storage p = pets[petId];\n        return p.price;\n    }\n    function getProductPrice(uint pId) public view returns (uint) {\n        require(pId >= 0 && pId <= productCount);\n        Product storage product = products[pId];\n        return product.pPrice;\n    }\n\n    modifier onlyOwner() {\n        require(msg.sender == owner, \"Not owner\");\n        _;\n    }\n\n    function withdrawAll(address payable _to) external onlyOwner{\n        require(address(this).balance > 0, \"empty balance\");\n        _to.transfer(address(this).balance);\n    }\n\n}\n",
  "sourcePath": "/Users/thea/Projects/1050/Pet-Shop-Dapp/contracts/PetShop.sol",
  "compiler": {
    "name": "solc",
    "version": "0.5.16+commit.9c3226ce.Emscripten.clang"
  },
  "schemaVersion": "3.0.22",
  "updatedAt": "2023-04-07T00:16:14.278Z",
  "networkType": "ethereum",
  "devdoc": {
    "methods": {}
  },
  "userdoc": {
    "methods": {}
  }
}