{
  "contractName": "PetShop",
  "abi": [
    {
      "inputs": [],
      "payable": false,
      "stateMutability": "nonpayable",
      "type": "constructor"
    },
    {
      "constant": true,
      "inputs": [],
      "name": "owner",
      "outputs": [
        {
          "internalType": "address",
          "name": "",
          "type": "address"
        }
      ],
      "payable": false,
      "stateMutability": "view",
      "type": "function"
    },
    {
      "constant": true,
      "inputs": [],
      "name": "petCount",
      "outputs": [
        {
          "internalType": "uint256",
          "name": "",
          "type": "uint256"
        }
      ],
      "payable": false,
      "stateMutability": "view",
      "type": "function"
    },
    {
      "constant": true,
      "inputs": [
        {
          "internalType": "uint256",
          "name": "",
          "type": "uint256"
        }
      ],
      "name": "pets",
      "outputs": [
        {
          "internalType": "uint256",
          "name": "id",
          "type": "uint256"
        },
        {
          "internalType": "string",
          "name": "name",
          "type": "string"
        },
        {
          "internalType": "uint256",
          "name": "age",
          "type": "uint256"
        },
        {
          "internalType": "string",
          "name": "sex",
          "type": "string"
        },
        {
          "internalType": "string",
          "name": "breed",
          "type": "string"
        },
        {
          "internalType": "string",
          "name": "location",
          "type": "string"
        },
        {
          "internalType": "string",
          "name": "photo",
          "type": "string"
        },
        {
          "internalType": "uint256",
          "name": "price",
          "type": "uint256"
        },
        {
          "internalType": "bool",
          "name": "isSold",
          "type": "bool"
        },
        {
          "internalType": "address",
          "name": "owner",
          "type": "address"
        }
      ],
      "payable": false,
      "stateMutability": "view",
      "type": "function"
    },
    {
      "constant": false,
      "inputs": [
        {
          "internalType": "string",
          "name": "_name",
          "type": "string"
        },
        {
          "internalType": "uint256",
          "name": "_age",
          "type": "uint256"
        },
        {
          "internalType": "string",
          "name": "_sex",
          "type": "string"
        },
        {
          "internalType": "string",
          "name": "_breed",
          "type": "string"
        },
        {
          "internalType": "string",
          "name": "_location",
          "type": "string"
        },
        {
          "internalType": "string",
          "name": "_photo",
          "type": "string"
        },
        {
          "internalType": "uint256",
          "name": "_price",
          "type": "uint256"
        },
        {
          "internalType": "uint256",
          "name": "_fee",
          "type": "uint256"
        }
      ],
      "name": "registerPet",
      "outputs": [
        {
          "internalType": "uint256",
          "name": "",
          "type": "uint256"
        }
      ],
      "payable": true,
      "stateMutability": "payable",
      "type": "function"
    },
    {
      "constant": false,
      "inputs": [
        {
          "internalType": "uint256",
          "name": "_id",
          "type": "uint256"
        }
      ],
      "name": "buyPet",
      "outputs": [],
      "payable": true,
      "stateMutability": "payable",
      "type": "function"
    },
    {
      "constant": false,
      "inputs": [
        {
          "internalType": "uint256",
          "name": "_id",
          "type": "uint256"
        }
      ],
      "name": "adopt",
      "outputs": [
        {
          "internalType": "uint256",
          "name": "",
          "type": "uint256"
        }
      ],
      "payable": false,
      "stateMutability": "nonpayable",
      "type": "function"
    },
    {
      "constant": true,
      "inputs": [],
      "name": "getCount",
      "outputs": [
        {
          "internalType": "uint256",
          "name": "",
          "type": "uint256"
        }
      ],
      "payable": false,
      "stateMutability": "view",
      "type": "function"
    },
    {
      "constant": true,
      "inputs": [
        {
          "internalType": "uint256",
          "name": "petId",
          "type": "uint256"
        }
      ],
      "name": "getPetDetails",
      "outputs": [
        {
          "internalType": "uint256",
          "name": "",
          "type": "uint256"
        },
        {
          "internalType": "string",
          "name": "",
          "type": "string"
        },
        {
          "internalType": "uint256",
          "name": "",
          "type": "uint256"
        },
        {
          "internalType": "string",
          "name": "",
          "type": "string"
        },
        {
          "internalType": "string",
          "name": "",
          "type": "string"
        },
        {
          "internalType": "string",
          "name": "",
          "type": "string"
        },
        {
          "internalType": "uint256",
          "name": "",
          "type": "uint256"
        },
        {
          "internalType": "bool",
          "name": "",
          "type": "bool"
        },
        {
          "internalType": "address",
          "name": "",
          "type": "address"
        },
        {
          "internalType": "string",
          "name": "",
          "type": "string"
        }
      ],
      "payable": false,
      "stateMutability": "view",
      "type": "function"
    },
    {
      "constant": true,
      "inputs": [
        {
          "internalType": "uint256",
          "name": "petId",
          "type": "uint256"
        }
      ],
      "name": "getPrice",
      "outputs": [
        {
          "internalType": "uint256",
          "name": "",
          "type": "uint256"
        }
      ],
      "payable": false,
      "stateMutability": "view",
      "type": "function"
    },
    {
      "constant": false,
      "inputs": [
        {
          "internalType": "address payable",
          "name": "_to",
          "type": "address"
        }
      ],
      "name": "withdrawAll",
      "outputs": [],
      "payable": false,
      "stateMutability": "nonpayable",
      "type": "function"
    }
  ],
  "bytecode": "0x608060405234801561001057600080fd5b506000600281905550336000806101000a81548173ffffffffffffffffffffffffffffffffffffffff021916908373ffffffffffffffffffffffffffffffffffffffff160217905550611a15806100686000396000f3fe6080604052600436106100915760003560e01c8063cd619f5811610059578063cd619f58146104df578063cfb869bf1461050a578063d89fd4b4146107c1578063e757223014610a78578063fa09e63014610ac757610091565b806334ea7734146100965780638588b2c5146103e05780638da5cb5b1461042f5780639edded1114610486578063a87d942c146104b4575b600080fd5b6103ca60048036036101008110156100ad57600080fd5b81019080803590602001906401000000008111156100ca57600080fd5b8201836020820111156100dc57600080fd5b803590602001918460018302840111640100000000831117156100fe57600080fd5b91908080601f016020809104026020016040519081016040528093929190818152602001838380828437600081840152601f19601f820116905080830192505050505050509192919290803590602001909291908035906020019064010000000081111561016b57600080fd5b82018360208201111561017d57600080fd5b8035906020019184600183028401116401000000008311171561019f57600080fd5b91908080601f016020809104026020016040519081016040528093929190818152602001838380828437600081840152601f19601f8201169050808301925050505050505091929192908035906020019064010000000081111561020257600080fd5b82018360208201111561021457600080fd5b8035906020019184600183028401116401000000008311171561023657600080fd5b91908080601f016020809104026020016040519081016040528093929190818152602001838380828437600081840152601f19601f8201169050808301925050505050505091929192908035906020019064010000000081111561029957600080fd5b8201836020820111156102ab57600080fd5b803590602001918460018302840111640100000000831117156102cd57600080fd5b91908080601f016020809104026020016040519081016040528093929190818152602001838380828437600081840152601f19601f8201169050808301925050505050505091929192908035906020019064010000000081111561033057600080fd5b82018360208201111561034257600080fd5b8035906020019184600183028401116401000000008311171561036457600080fd5b91908080601f016020809104026020016040519081016040528093929190818152602001838380828437600081840152601f19601f8201169050808301925050505050505091929192908035906020019092919080359060200190929190505050610b18565b6040518082815260200191505060405180910390f35b3480156103ec57600080fd5b506104196004803603602081101561040357600080fd5b8101908080359060200190929190505050610d45565b6040518082815260200191505060405180910390f35b34801561043b57600080fd5b50610444610e67565b604051808273ffffffffffffffffffffffffffffffffffffffff1673ffffffffffffffffffffffffffffffffffffffff16815260200191505060405180910390f35b6104b26004803603602081101561049c57600080fd5b8101908080359060200190929190505050610e8c565b005b3480156104c057600080fd5b506104c9611022565b6040518082815260200191505060405180910390f35b3480156104eb57600080fd5b506104f461102c565b6040518082815260200191505060405180910390f35b34801561051657600080fd5b506105436004803603602081101561052d57600080fd5b8101908080359060200190929190505050611032565b604051808b8152602001806020018a815260200180602001806020018060200180602001898152602001881515151581526020018773ffffffffffffffffffffffffffffffffffffffff1673ffffffffffffffffffffffffffffffffffffffff16815260200186810386528f818151815260200191508051906020019080838360005b838110156105e15780820151818401526020810190506105c6565b50505050905090810190601f16801561060e5780820380516001836020036101000a031916815260200191505b5086810385528d818151815260200191508051906020019080838360005b8381101561064757808201518184015260208101905061062c565b50505050905090810190601f1680156106745780820380516001836020036101000a031916815260200191505b5086810384528c818151815260200191508051906020019080838360005b838110156106ad578082015181840152602081019050610692565b50505050905090810190601f1680156106da5780820380516001836020036101000a031916815260200191505b5086810383528b818151815260200191508051906020019080838360005b838110156107135780820151818401526020810190506106f8565b50505050905090810190601f1680156107405780820380516001836020036101000a031916815260200191505b5086810382528a818151815260200191508051906020019080838360005b8381101561077957808201518184015260208101905061075e565b50505050905090810190601f1680156107a65780820380516001836020036101000a031916815260200191505b509f5050505050505050505050505050505060405180910390f35b3480156107cd57600080fd5b506107fa600480360360208110156107e457600080fd5b81019080803590602001909291905050506113ab565b604051808b8152602001806020018a8152602001806020018060200180602001898152602001881515151581526020018773ffffffffffffffffffffffffffffffffffffffff1673ffffffffffffffffffffffffffffffffffffffff1681526020018060200186810386528f818151815260200191508051906020019080838360005b8381101561089857808201518184015260208101905061087d565b50505050905090810190601f1680156108c55780820380516001836020036101000a031916815260200191505b5086810385528d818151815260200191508051906020019080838360005b838110156108fe5780820151818401526020810190506108e3565b50505050905090810190601f16801561092b5780820380516001836020036101000a031916815260200191505b5086810384528c818151815260200191508051906020019080838360005b83811015610964578082015181840152602081019050610949565b50505050905090810190601f1680156109915780820380516001836020036101000a031916815260200191505b5086810383528b818151815260200191508051906020019080838360005b838110156109ca5780820151818401526020810190506109af565b50505050905090810190601f1680156109f75780820380516001836020036101000a031916815260200191505b50868103825287818151815260200191508051906020019080838360005b83811015610a30578082015181840152602081019050610a15565b50505050905090810190601f168015610a5d5780820380516001836020036101000a031916815260200191505b509f5050505050505050505050505050505060405180910390f35b348015610a8457600080fd5b50610ab160048036036020811015610a9b57600080fd5b8101908080359060200190929190505050611778565b6040518082815260200191505060405180910390f35b348015610ad357600080fd5b50610b1660048036036020811015610aea57600080fd5b81019080803573ffffffffffffffffffffffffffffffffffffffff1690602001909291905050506117b9565b005b600081341015610b90576040517f08c379a00000000000000000000000000000000000000000000000000000000081526004018080602001828103825260108152602001807f496e73756666696369656e74206665650000000000000000000000000000000081525060200191505060405180910390fd5b60026000815480929190600101919050555060405180610140016040528060025481526020018a8152602001898152602001888152602001878152602001868152602001858152602001848152602001600015158152602001600073ffffffffffffffffffffffffffffffffffffffff16815250600160006002548152602001908152602001600020600082015181600001556020820151816001019080519060200190610c3f92919061193b565b50604082015181600201556060820151816003019080519060200190610c6692919061193b565b506080820151816004019080519060200190610c8392919061193b565b5060a0820151816005019080519060200190610ca092919061193b565b5060c0820151816006019080519060200190610cbd92919061193b565b5060e082015181600701556101008201518160080160006101000a81548160ff0219169083151502179055506101208201518160080160016101000a81548173ffffffffffffffffffffffffffffffffffffffff021916908373ffffffffffffffffffffffffffffffffffffffff160217905550905050600254905098975050505050505050565b6000808210158015610d5957506002548211155b610d6257600080fd5b60006001600084815260200190815260200160002090508060080160009054906101000a900460ff1615610dfe576040517f08c379a000000000000000000000000000000000000000000000000000000000815260040180806020018281038252601b8152602001807f546869732070657420697320616c7265616479206164706f746564000000000081525060200191505060405180910390fd5b60018160080160006101000a81548160ff021916908315150217905550338160080160016101000a81548173ffffffffffffffffffffffffffffffffffffffff021916908373ffffffffffffffffffffffffffffffffffffffff16021790555082915050919050565b6000809054906101000a900473ffffffffffffffffffffffffffffffffffffffff1681565b60008110158015610e9f57506002548111155b610ea857600080fd5b60006001600083815260200190815260200160002090508060080160009054906101000a900460ff1615610f44576040517f08c379a00000000000000000000000000000000000000000000000000000000081526004018080602001828103825260188152602001807f546869732070657420697320616c726561647920736f6c64000000000000000081525060200191505060405180910390fd5b8060070154341015610fbe576040517f08c379a00000000000000000000000000000000000000000000000000000000081526004018080602001828103825260128152602001807f496e73756666696369656e742066756e6473000000000000000000000000000081525060200191505060405180910390fd5b60018160080160006101000a81548160ff021916908315150217905550338160080160016101000a81548173ffffffffffffffffffffffffffffffffffffffff021916908373ffffffffffffffffffffffffffffffffffffffff1602179055505050565b6000600254905090565b60025481565b6001602052806000526040600020600091509050806000015490806001018054600181600116156101000203166002900480601f0160208091040260200160405190810160405280929190818152602001828054600181600116156101000203166002900480156110e45780601f106110b9576101008083540402835291602001916110e4565b820191906000526020600020905b8154815290600101906020018083116110c757829003601f168201915b505050505090806002015490806003018054600181600116156101000203166002900480601f0160208091040260200160405190810160405280929190818152602001828054600181600116156101000203166002900480156111885780601f1061115d57610100808354040283529160200191611188565b820191906000526020600020905b81548152906001019060200180831161116b57829003601f168201915b505050505090806004018054600181600116156101000203166002900480601f0160208091040260200160405190810160405280929190818152602001828054600181600116156101000203166002900480156112265780601f106111fb57610100808354040283529160200191611226565b820191906000526020600020905b81548152906001019060200180831161120957829003601f168201915b505050505090806005018054600181600116156101000203166002900480601f0160208091040260200160405190810160405280929190818152602001828054600181600116156101000203166002900480156112c45780601f10611299576101008083540402835291602001916112c4565b820191906000526020600020905b8154815290600101906020018083116112a757829003601f168201915b505050505090806006018054600181600116156101000203166002900480601f0160208091040260200160405190810160405280929190818152602001828054600181600116156101000203166002900480156113625780601f1061133757610100808354040283529160200191611362565b820191906000526020600020905b81548152906001019060200180831161134557829003601f168201915b5050505050908060070154908060080160009054906101000a900460ff16908060080160019054906101000a900473ffffffffffffffffffffffffffffffffffffffff1690508a565b60006060600060608060606000806000606060008b101580156113d057506002548b11155b6113d957600080fd5b6000600160008d81526020019081526020016000209050806000015481600101826002015483600401846005018560060186600701548760080160009054906101000a900460ff168860080160019054906101000a900473ffffffffffffffffffffffffffffffffffffffff1689600301888054600181600116156101000203166002900480601f0160208091040260200160405190810160405280929190818152602001828054600181600116156101000203166002900480156114df5780601f106114b4576101008083540402835291602001916114df565b820191906000526020600020905b8154815290600101906020018083116114c257829003601f168201915b50505050509850868054600181600116156101000203166002900480601f01602080910402602001604051908101604052809291908181526020018280546001816001161561010002031660029004801561157b5780601f106115505761010080835404028352916020019161157b565b820191906000526020600020905b81548152906001019060200180831161155e57829003601f168201915b50505050509650858054600181600116156101000203166002900480601f0160208091040260200160405190810160405280929190818152602001828054600181600116156101000203166002900480156116175780601f106115ec57610100808354040283529160200191611617565b820191906000526020600020905b8154815290600101906020018083116115fa57829003601f168201915b50505050509550848054600181600116156101000203166002900480601f0160208091040260200160405190810160405280929190818152602001828054600181600116156101000203166002900480156116b35780601f10611688576101008083540402835291602001916116b3565b820191906000526020600020905b81548152906001019060200180831161169657829003601f168201915b50505050509450808054600181600116156101000203166002900480601f01602080910402602001604051908101604052809291908181526020018280546001816001161561010002031660029004801561174f5780601f106117245761010080835404028352916020019161174f565b820191906000526020600020905b81548152906001019060200180831161173257829003601f168201915b505050505090509a509a509a509a509a509a509a509a509a509a50509193959799509193959799565b600080821015801561178c57506002548211155b61179557600080fd5b60006001600084815260200190815260200160002090508060070154915050919050565b6000809054906101000a900473ffffffffffffffffffffffffffffffffffffffff1673ffffffffffffffffffffffffffffffffffffffff163373ffffffffffffffffffffffffffffffffffffffff161461187b576040517f08c379a00000000000000000000000000000000000000000000000000000000081526004018080602001828103825260098152602001807f4e6f74206f776e6572000000000000000000000000000000000000000000000081525060200191505060405180910390fd5b600047116118f1576040517f08c379a000000000000000000000000000000000000000000000000000000000815260040180806020018281038252600d8152602001807f656d7074792062616c616e63650000000000000000000000000000000000000081525060200191505060405180910390fd5b8073ffffffffffffffffffffffffffffffffffffffff166108fc479081150290604051600060405180830381858888f19350505050158015611937573d6000803e3d6000fd5b5050565b828054600181600116156101000203166002900490600052602060002090601f016020900481019282601f1061197c57805160ff19168380011785556119aa565b828001600101855582156119aa579182015b828111156119a957825182559160200191906001019061198e565b5b5090506119b791906119bb565b5090565b6119dd91905b808211156119d95760008160009055506001016119c1565b5090565b9056fea265627a7a723158200e0b57eb3ad934b3336d5dfefa5b1793bad06f2bd69fa12cf040dbc2b654a60564736f6c63430005100032",
  "source": "pragma solidity >=0.4.22 <0.9.0;\r\n\r\ncontract PetShop {\r\n    address public owner;\r\n\r\n    //struct of a pet's info, picture = ipfs url\r\n    struct Pet {\r\n        uint id;\r\n        string name;\r\n        uint age;\r\n        string sex;\r\n        string breed;\r\n        string location;\r\n        string photo;\r\n        uint price;\r\n        bool isSold;\r\n        address owner;\r\n    }\r\n\r\n    mapping(uint => Pet) public pets;\r\n\r\n    uint public petCount;\r\n\r\n    constructor() public {\r\n        petCount = 0;\r\n        owner = msg.sender;\r\n    }\r\n\r\n    function registerPet(string memory _name, uint _age, string memory _sex, string memory _breed, \r\n    string memory _location, string memory _photo, uint _price, uint _fee) public payable returns (uint) {\r\n        require(msg.value >= _fee, \"Insufficient fee\");\r\n        petCount++;\r\n        pets[petCount] = Pet(petCount, _name, _age, _sex, _breed, _location, _photo, _price, false, address(0));\r\n        return petCount;\r\n    }\r\n\r\n    function buyPet(uint _id) external payable {\r\n        require(_id >= 0 && _id<= petCount);\r\n        Pet storage pet = pets[_id];\r\n        require(!pet.isSold, \"This pet is already sold\");\r\n        require(msg.value >= pet.price, \"Insufficient funds\");\r\n        pet.isSold = true;\r\n        pet.owner = msg.sender;\r\n    }\r\n\r\n    function adopt(uint _id) external returns (uint) {\r\n        require(_id >= 0 && _id <= petCount);\r\n        Pet storage pet = pets[_id];\r\n        require(!pet.isSold, \"This pet is already adpoted\");\r\n        pet.isSold = true;\r\n        pet.owner = msg.sender;\r\n        return _id;\r\n    }\r\n\r\n    function getCount() view external returns (uint) {\r\n        return petCount;\r\n    }\r\n\r\n    // Retrieving one pet's details\r\n    function getPetDetails(uint petId) public view returns (uint, string memory, uint, string memory, string memory,\r\n        string memory, uint, bool, address, string memory) {\r\n        require(petId >= 0 && petId <= petCount);\r\n        Pet storage p = pets[petId];\r\n        return (p.id, p.name, p.age, p.breed, p.location, p.photo, p.price, p.isSold, p.owner, p.sex);\r\n    }\r\n\r\n    // Retrieving one pet's price\r\n    function getPrice(uint petId) public view returns (uint) {\r\n        require(petId >= 0 && petId <= petCount);\r\n        Pet storage p = pets[petId];\r\n        return p.price;\r\n    }\r\n\r\n    modifier onlyOwner() {\r\n        require(msg.sender == owner, \"Not owner\");\r\n        _;\r\n    }\r\n\r\n    function withdrawAll(address payable _to) external onlyOwner{\r\n        require(address(this).balance > 0, \"empty balance\");\r\n        _to.transfer(address(this).balance);\r\n    }\r\n}\r\n",
  "sourcePath": "C:\\Users\\xinyu\\Documents\\MyFiles\\U of T\\APS 1050\\Project\\Pet-Shop-Dapp\\contracts\\PetShop.sol",
  "compiler": {
    "name": "solc",
    "version": "0.5.16+commit.9c3226ce.Emscripten.clang"
  },
  "schemaVersion": "3.4.13",
  "updatedAt": "2023-04-08T22:17:22.125Z",
  "networkType": "ethereum",
  "devdoc": {
    "methods": {}
  },
  "userdoc": {
    "methods": {}
  }
}